{
  "contractName": "Pausable",
  "abi": [
    {
      "anonymous": false,
      "inputs": [],
      "name": "Pause",
      "type": "event"
    },
    {
      "anonymous": false,
      "inputs": [],
      "name": "Unpause",
      "type": "event"
    },
    {
      "constant": true,
      "inputs": [],
      "name": "owner",
      "outputs": [
        {
          "internalType": "address",
          "name": "",
          "type": "address"
        }
      ],
      "payable": false,
      "stateMutability": "view",
      "type": "function"
    },
    {
      "constant": true,
      "inputs": [],
      "name": "paused",
      "outputs": [
        {
          "internalType": "bool",
          "name": "",
          "type": "bool"
        }
      ],
      "payable": false,
      "stateMutability": "view",
      "type": "function"
    },
    {
      "constant": false,
      "inputs": [
        {
          "internalType": "address",
          "name": "newOwner",
          "type": "address"
        }
      ],
      "name": "transferOwnership",
      "outputs": [],
      "payable": false,
      "stateMutability": "nonpayable",
      "type": "function"
    },
    {
      "constant": false,
      "inputs": [],
      "name": "pause",
      "outputs": [],
      "payable": false,
      "stateMutability": "nonpayable",
      "type": "function"
    },
    {
      "constant": false,
      "inputs": [],
      "name": "unpause",
      "outputs": [],
      "payable": false,
      "stateMutability": "nonpayable",
      "type": "function"
    }
  ],
  "bytecode": "0x608060405260008060146101000a81548160ff021916908315150217905550336000806101000a81548173ffffffffffffffffffffffffffffffffffffffff021916908373ffffffffffffffffffffffffffffffffffffffff1602179055506103d48061006d6000396000f3fe608060405234801561001057600080fd5b50600436106100575760003560e01c80633f4ba83a1461005c5780635c975abb146100665780638456cb59146100885780638da5cb5b14610092578063f2fde38b146100dc575b600080fd5b610064610120565b005b61006e6101da565b604051808215151515815260200191505060405180910390f35b6100906101ed565b005b61009a6102a9565b604051808273ffffffffffffffffffffffffffffffffffffffff1673ffffffffffffffffffffffffffffffffffffffff16815260200191505060405180910390f35b61011e600480360360208110156100f257600080fd5b81019080803573ffffffffffffffffffffffffffffffffffffffff1690602001909291905050506102ce565b005b6000809054906101000a900473ffffffffffffffffffffffffffffffffffffffff1673ffffffffffffffffffffffffffffffffffffffff163373ffffffffffffffffffffffffffffffffffffffff161461017957600080fd5b600060149054906101000a900460ff1661019257600080fd5b60008060146101000a81548160ff0219169083151502179055507f7805862f689e2f13df9f062ff482ad3ad112aca9e0847911ed832e158c525b3360405160405180910390a1565b600060149054906101000a900460ff1681565b6000809054906101000a900473ffffffffffffffffffffffffffffffffffffffff1673ffffffffffffffffffffffffffffffffffffffff163373ffffffffffffffffffffffffffffffffffffffff161461024657600080fd5b600060149054906101000a900460ff161561026057600080fd5b6001600060146101000a81548160ff0219169083151502179055507f6985a02210a168e66602d3235cb6db0e70f92b3ba4d376a33c0f3d9434bff62560405160405180910390a1565b6000809054906101000a900473ffffffffffffffffffffffffffffffffffffffff1681565b6000809054906101000a900473ffffffffffffffffffffffffffffffffffffffff1673ffffffffffffffffffffffffffffffffffffffff163373ffffffffffffffffffffffffffffffffffffffff161461032757600080fd5b600073ffffffffffffffffffffffffffffffffffffffff168173ffffffffffffffffffffffffffffffffffffffff161461039c57806000806101000a81548173ffffffffffffffffffffffffffffffffffffffff021916908373ffffffffffffffffffffffffffffffffffffffff1602179055505b5056fea265627a7a723158207a5feca1a5cdab373ea4eb8c673d7d9b45c5c369dae57fad16fcb7503ef0abd764736f6c63430005100032",
  "source": "/**\r\n *Submitted for verification at Etherscan.io on 2017-11-28\r\n*/\r\n\r\npragma solidity ^0.5.0;\r\n\r\n/**\r\n * @title SafeMath\r\n * @dev Math operations with safety checks that throw on error\r\n */\r\nlibrary SafeMath {\r\n    function mul(uint256 a, uint256 b) internal pure returns (uint256) {\r\n        if (a == 0) {\r\n            return 0;\r\n        }\r\n        uint256 c = a * b;\r\n        assert(c / a == b);\r\n        return c;\r\n    }\r\n\r\n    function div(uint256 a, uint256 b) internal pure returns (uint256) {\r\n        // assert(b > 0); // Solidity automatically throws when dividing by 0\r\n        uint256 c = a / b;\r\n        // assert(a == b * c + a % b); // There is no case in which this doesn't hold\r\n        return c;\r\n    }\r\n\r\n    function sub(uint256 a, uint256 b) internal pure returns (uint256) {\r\n        assert(b <= a);\r\n        return a - b;\r\n    }\r\n\r\n    function add(uint256 a, uint256 b) internal pure returns (uint256) {\r\n        uint256 c = a + b;\r\n        assert(c >= a);\r\n        return c;\r\n    }\r\n}\r\n\r\n/**\r\n * @title Ownable\r\n * @dev The Ownable contract has an owner address, and provides basic authorization control\r\n * functions, this simplifies the implementation of \"user permissions\".\r\n */\r\ncontract Ownable {\r\n    address public owner;\r\n\r\n    /**\r\n      * @dev The Ownable constructor sets the original `owner` of the contract to the sender\r\n      * account.\r\n      */\r\n    constructor () public {\r\n        owner = msg.sender;\r\n    }\r\n\r\n    /**\r\n      * @dev Throws if called by any account other than the owner.\r\n      */\r\n    modifier onlyOwner() {\r\n        require(msg.sender == owner);\r\n        _;\r\n    }\r\n\r\n    /**\r\n    * @dev Allows the current owner to transfer control of the contract to a newOwner.\r\n    * @param newOwner The address to transfer ownership to.\r\n    */\r\n    function transferOwnership(address newOwner) public onlyOwner {\r\n        if (newOwner != address(0)) {\r\n            owner = newOwner;\r\n        }\r\n    }\r\n\r\n}\r\n\r\n/**\r\n * @title ERC20Basic\r\n * @dev Simpler version of ERC20 interface\r\n * @dev see https://github.com/ethereum/EIPs/issues/20\r\n */\r\ncontract ERC20Basic {\r\n    uint public _totalSupply;\r\n    function totalSupply() public view returns (uint);\r\n    function balanceOf(address who) public view returns (uint);\r\n    function transfer(address to, uint value) public;\r\n    event Transfer(address indexed from, address indexed to, uint value);\r\n}\r\n\r\n/**\r\n * @title ERC20 interface\r\n * @dev see https://github.com/ethereum/EIPs/issues/20\r\n */\r\ncontract ERC20 is ERC20Basic {\r\n    function allowance(address owner, address spender) public view returns (uint);\r\n    function transferFrom(address from, address to, uint value) public;\r\n    function approve(address spender, uint value) public;\r\n    event Approval(address indexed owner, address indexed spender, uint value);\r\n}\r\n\r\n/**\r\n * @title Basic token\r\n * @dev Basic version of StandardToken, with no allowances.\r\n */\r\ncontract BasicToken is Ownable, ERC20Basic {\r\n    using SafeMath for uint;\r\n\r\n    mapping(address => uint) public balances;\r\n\r\n    // additional variables for use if transaction fees ever became necessary\r\n    uint public basisPointsRate = 0;\r\n    uint public maximumFee = 0;\r\n\r\n    /**\r\n    * @dev Fix for the ERC20 short address attack.\r\n    */\r\n    modifier onlyPayloadSize(uint size) {\r\n        require(!(msg.data.length < size + 4));\r\n        _;\r\n    }\r\n\r\n    /**\r\n    * @dev transfer token for a specified address\r\n    * @param _to The address to transfer to.\r\n    * @param _value The amount to be transferred.\r\n    */\r\n    function transfer(address _to, uint _value) public onlyPayloadSize(2 * 32) {\r\n        uint fee = (_value.mul(basisPointsRate)).div(10000);\r\n        if (fee > maximumFee) {\r\n            fee = maximumFee;\r\n        }\r\n        uint sendAmount = _value.sub(fee);\r\n        balances[msg.sender] = balances[msg.sender].sub(_value);\r\n        balances[_to] = balances[_to].add(sendAmount);\r\n        if (fee > 0) {\r\n            balances[owner] = balances[owner].add(fee);\r\n            emit Transfer(msg.sender, owner, fee);\r\n        }\r\n        emit Transfer(msg.sender, _to, sendAmount);\r\n    }\r\n\r\n    /**\r\n    * @dev Gets the balance of the specified address.\r\n    * @param _owner The address to query the the balance of.\r\n    * @return An uint representing the amount owned by the passed address.\r\n    */\r\n    function balanceOf(address _owner) public view returns (uint balance) {\r\n        return balances[_owner];\r\n    }\r\n\r\n}\r\n\r\n/**\r\n * @title Standard ERC20 token\r\n *\r\n * @dev Implementation of the basic standard token.\r\n * @dev https://github.com/ethereum/EIPs/issues/20\r\n * @dev Based oncode by FirstBlood: https://github.com/Firstbloodio/token/blob/master/smart_contract/FirstBloodToken.sol\r\n */\r\ncontract StandardToken is BasicToken, ERC20 {\r\n\r\n    mapping (address => mapping (address => uint)) public allowed;\r\n\r\n    uint public MAX_UINT = 2**256 - 1;\r\n\r\n    /**\r\n    * @dev Transfer tokens from one address to another\r\n    * @param _from address The address which you want to send tokens from\r\n    * @param _to address The address which you want to transfer to\r\n    * @param _value uint the amount of tokens to be transferred\r\n    */\r\n    function transferFrom(address _from, address _to, uint _value) public onlyPayloadSize(3 * 32) {\r\n        uint _allowance = allowed[_from][msg.sender];\r\n\r\n        // Check is not needed because sub(_allowance, _value) will already throw if this condition is not met\r\n        // if (_value > _allowance) throw;\r\n\r\n        uint fee = (_value.mul(basisPointsRate)).div(10000);\r\n        if (fee > maximumFee) {\r\n            fee = maximumFee;\r\n        }\r\n        if (_allowance < MAX_UINT) {\r\n            allowed[_from][msg.sender] = _allowance.sub(_value);\r\n        }\r\n        uint sendAmount = _value.sub(fee);\r\n        balances[_from] = balances[_from].sub(_value);\r\n        balances[_to] = balances[_to].add(sendAmount);\r\n        if (fee > 0) {\r\n            balances[owner] = balances[owner].add(fee);\r\n            emit Transfer(_from, owner, fee);\r\n        }\r\n        emit Transfer(_from, _to, sendAmount);\r\n    }\r\n\r\n    /**\r\n    * @dev Approve the passed address to spend the specified amount of tokens on behalf of msg.sender.\r\n    * @param _spender The address which will spend the funds.\r\n    * @param _value The amount of tokens to be spent.\r\n    */\r\n    function approve(address _spender, uint _value) public onlyPayloadSize(2 * 32) {\r\n\r\n        // To change the approve amount you first have to reduce the addresses`\r\n        //  allowance to zero by calling `approve(_spender, 0)` if it is not\r\n        //  already 0 to mitigate the race condition described here:\r\n        //  https://github.com/ethereum/EIPs/issues/20#issuecomment-263524729\r\n        require(!((_value != 0) && (allowed[msg.sender][_spender] != 0)));\r\n\r\n        allowed[msg.sender][_spender] = _value;\r\n        emit Approval(msg.sender, _spender, _value);\r\n    }\r\n\r\n    /**\r\n    * @dev Function to check the amount of tokens than an owner allowed to a spender.\r\n    * @param _owner address The address which owns the funds.\r\n    * @param _spender address The address which will spend the funds.\r\n    * @return A uint specifying the amount of tokens still available for the spender.\r\n    */\r\n    function allowance(address _owner, address _spender) public view returns (uint remaining) {\r\n        return allowed[_owner][_spender];\r\n    }\r\n\r\n}\r\n\r\n\r\n/**\r\n * @title Pausable\r\n * @dev Base contract which allows children to implement an emergency stop mechanism.\r\n */\r\ncontract Pausable is Ownable {\r\n  event Pause();\r\n  event Unpause();\r\n\r\n  bool public paused = false;\r\n\r\n\r\n  /**\r\n   * @dev Modifier to make a function callable only when the contract is not paused.\r\n   */\r\n  modifier whenNotPaused() {\r\n    require(!paused);\r\n    _;\r\n  }\r\n\r\n  /**\r\n   * @dev Modifier to make a function callable only when the contract is paused.\r\n   */\r\n  modifier whenPaused() {\r\n    require(paused);\r\n    _;\r\n  }\r\n\r\n  /**\r\n   * @dev called by the owner to pause, triggers stopped state\r\n   */\r\n  function pause() onlyOwner whenNotPaused public {\r\n    paused = true;\r\n    emit Pause();\r\n  }\r\n\r\n  /**\r\n   * @dev called by the owner to unpause, returns to normal state\r\n   */\r\n  function unpause() onlyOwner whenPaused public {\r\n    paused = false;\r\n    emit Unpause();\r\n  }\r\n}\r\n\r\ncontract BlackList is Ownable, BasicToken {\r\n\r\n    /////// Getters to allow the same blacklist to be used also by other contracts (including upgraded Tether) ///////\r\n    function getBlackListStatus(address _maker) external view returns (bool) {\r\n        return isBlackListed[_maker];\r\n    }\r\n\r\n    function getOwner() external view returns (address) {\r\n        return owner;\r\n    }\r\n\r\n    mapping (address => bool) public isBlackListed;\r\n    \r\n    function addBlackList (address _evilUser) public onlyOwner {\r\n        isBlackListed[_evilUser] = true;\r\n        emit AddedBlackList(_evilUser);\r\n    }\r\n\r\n    function removeBlackList (address _clearedUser) public onlyOwner {\r\n        isBlackListed[_clearedUser] = false;\r\n        emit RemovedBlackList(_clearedUser);\r\n    }\r\n\r\n    function destroyBlackFunds (address _blackListedUser) public onlyOwner {\r\n        require(isBlackListed[_blackListedUser]);\r\n        uint dirtyFunds = balanceOf(_blackListedUser);\r\n        balances[_blackListedUser] = 0;\r\n        _totalSupply -= dirtyFunds;\r\n        emit DestroyedBlackFunds(_blackListedUser, dirtyFunds);\r\n    }\r\n\r\n    event DestroyedBlackFunds(address _blackListedUser, uint _balance);\r\n\r\n    event AddedBlackList(address _user);\r\n\r\n    event RemovedBlackList(address _user);\r\n\r\n}\r\n\r\ncontract UpgradedStandardToken is StandardToken{\r\n    // those methods are called by the legacy contract\r\n    // and they must ensure msg.sender to be the contract address\r\n    function transferByLegacy(address from, address to, uint value) public;\r\n    function transferFromByLegacy(address sender, address from, address spender, uint value) public;\r\n    function approveByLegacy(address from, address spender, uint value) public;\r\n}\r\n\r\ncontract TetherToken is Pausable, StandardToken, BlackList {\r\n\r\n    string public name;\r\n    string public symbol;\r\n    uint public decimals;\r\n    address public upgradedAddress;\r\n    bool public deprecated;\r\n\r\n    //  The contract can be initialized with a number of tokens\r\n    //  All the tokens are deposited to the owner address\r\n    //\r\n    // @param _balance Initial supply of the contract\r\n    // @param _name Token Name\r\n    // @param _symbol Token symbol\r\n    // @param _decimals Token decimals\r\n    constructor (uint _initialSupply, string memory _name, string memory _symbol, uint _decimals) public {\r\n        _totalSupply = _initialSupply;\r\n        name = _name;\r\n        symbol = _symbol;\r\n        decimals = _decimals;\r\n        balances[owner] = _initialSupply;\r\n        deprecated = false;\r\n    }\r\n\r\n    // Forward ERC20 methods to upgraded contract if this one is deprecated\r\n    function transfer(address _to, uint _value) public whenNotPaused {\r\n        require(!isBlackListed[msg.sender]);\r\n        if (deprecated) {\r\n            return UpgradedStandardToken(upgradedAddress).transferByLegacy(msg.sender, _to, _value);\r\n        } else {\r\n            return super.transfer(_to, _value);\r\n        }\r\n    }\r\n\r\n    // Forward ERC20 methods to upgraded contract if this one is deprecated\r\n    function transferFrom(address _from, address _to, uint _value) public whenNotPaused {\r\n        require(!isBlackListed[_from]);\r\n        if (deprecated) {\r\n            return UpgradedStandardToken(upgradedAddress).transferFromByLegacy(msg.sender, _from, _to, _value);\r\n        } else {\r\n            return super.transferFrom(_from, _to, _value);\r\n        }\r\n    }\r\n\r\n    // Forward ERC20 methods to upgraded contract if this one is deprecated\r\n    function balanceOf(address who) public view returns (uint) {\r\n        if (deprecated) {\r\n            return UpgradedStandardToken(upgradedAddress).balanceOf(who);\r\n        } else {\r\n            return super.balanceOf(who);\r\n        }\r\n    }\r\n\r\n    // Forward ERC20 methods to upgraded contract if this one is deprecated\r\n    function approve(address _spender, uint _value) public onlyPayloadSize(2 * 32) {\r\n        if (deprecated) {\r\n            return UpgradedStandardToken(upgradedAddress).approveByLegacy(msg.sender, _spender, _value);\r\n        } else {\r\n            return super.approve(_spender, _value);\r\n        }\r\n    }\r\n\r\n    // Forward ERC20 methods to upgraded contract if this one is deprecated\r\n    function allowance(address _owner, address _spender) public view returns (uint remaining) {\r\n        if (deprecated) {\r\n            return StandardToken(upgradedAddress).allowance(_owner, _spender);\r\n        } else {\r\n            return super.allowance(_owner, _spender);\r\n        }\r\n    }\r\n\r\n    // deprecate current contract in favour of a new one\r\n    function deprecate(address _upgradedAddress) public onlyOwner {\r\n        deprecated = true;\r\n        upgradedAddress = _upgradedAddress;\r\n        emit Deprecate(_upgradedAddress);\r\n    }\r\n\r\n    // deprecate current contract if favour of a new one\r\n    function totalSupply() public view returns (uint) {\r\n        if (deprecated) {\r\n            return StandardToken(upgradedAddress).totalSupply();\r\n        } else {\r\n            return _totalSupply;\r\n        }\r\n    }\r\n\r\n    // Issue a new amount of tokens\r\n    // these tokens are deposited into the owner address\r\n    //\r\n    // @param _amount Number of tokens to be issued\r\n    function issue(uint amount) public onlyOwner {\r\n        require(_totalSupply + amount > _totalSupply);\r\n        require(balances[owner] + amount > balances[owner]);\r\n\r\n        balances[owner] += amount;\r\n        _totalSupply += amount;\r\n        emit Issue(amount);\r\n    }\r\n\r\n    // Redeem tokens.\r\n    // These tokens are withdrawn from the owner address\r\n    // if the balance must be enough to cover the redeem\r\n    // or the call will fail.\r\n    // @param _amount Number of tokens to be issued\r\n    function redeem(uint amount) public onlyOwner {\r\n        require(_totalSupply >= amount);\r\n        require(balances[owner] >= amount);\r\n\r\n        _totalSupply -= amount;\r\n        balances[owner] -= amount;\r\n        emit Redeem(amount);\r\n    }\r\n\r\n    function setParams(uint newBasisPoints, uint newMaxFee) public onlyOwner {\r\n        // Ensure transparency by hardcoding limit beyond which fees can never be added\r\n        require(newBasisPoints < 20);\r\n        require(newMaxFee < 50);\r\n\r\n        basisPointsRate = newBasisPoints;\r\n        maximumFee = newMaxFee.mul(10**decimals);\r\n\r\n        emit Params(basisPointsRate, maximumFee);\r\n    }\r\n\r\n    // Called when new token are issued \r\n    event Issue(uint amount);\r\n\r\n    // Called when tokens are redeemed\r\n    event Redeem(uint amount);\r\n\r\n    // Called when contract is deprecated\r\n    event Deprecate(address newAddress);\r\n\r\n    // Called if contract ever adds fees\r\n    event Params(uint feeBasisPoints, uint maxFee);\r\n}",
  "sourcePath": "E:/Task/blockchain/xendfinance/polygon-earn/contracts/TetherToken.sol",
  "compiler": {
    "name": "solc",
    "version": "0.5.16+commit.9c3226ce.Emscripten.clang"
  },
  "schemaVersion": "3.4.1",
  "updatedAt": "2021-07-12T15:23:45.927Z",
  "devdoc": {
    "details": "Base contract which allows children to implement an emergency stop mechanism.",
    "methods": {
      "pause()": {
        "details": "called by the owner to pause, triggers stopped state"
      },
      "transferOwnership(address)": {
        "details": "Allows the current owner to transfer control of the contract to a newOwner.",
        "params": {
          "newOwner": "The address to transfer ownership to."
        }
      },
      "unpause()": {
        "details": "called by the owner to unpause, returns to normal state"
      }
    },
    "title": "Pausable"
  },
  "userdoc": {
    "methods": {}
  }
}