{
  "contractName": "xAAVE",
  "abi": [
    {
      "inputs": [],
      "payable": false,
      "stateMutability": "nonpayable",
      "type": "constructor"
    },
    {
      "anonymous": false,
      "inputs": [
        {
          "indexed": true,
          "internalType": "address",
          "name": "owner",
          "type": "address"
        },
        {
          "indexed": true,
          "internalType": "address",
          "name": "spender",
          "type": "address"
        },
        {
          "indexed": false,
          "internalType": "uint256",
          "name": "value",
          "type": "uint256"
        }
      ],
      "name": "Approval",
      "type": "event"
    },
    {
      "anonymous": false,
      "inputs": [
        {
          "indexed": true,
          "internalType": "address",
          "name": "previousOwner",
          "type": "address"
        },
        {
          "indexed": true,
          "internalType": "address",
          "name": "newOwner",
          "type": "address"
        }
      ],
      "name": "OwnershipTransferred",
      "type": "event"
    },
    {
      "anonymous": false,
      "inputs": [
        {
          "indexed": true,
          "internalType": "address",
          "name": "from",
          "type": "address"
        },
        {
          "indexed": true,
          "internalType": "address",
          "name": "to",
          "type": "address"
        },
        {
          "indexed": false,
          "internalType": "uint256",
          "name": "value",
          "type": "uint256"
        }
      ],
      "name": "Transfer",
      "type": "event"
    },
    {
      "payable": true,
      "stateMutability": "payable",
      "type": "fallback"
    },
    {
      "constant": true,
      "inputs": [],
      "name": "aave",
      "outputs": [
        {
          "internalType": "address",
          "name": "",
          "type": "address"
        }
      ],
      "payable": false,
      "stateMutability": "view",
      "type": "function"
    },
    {
      "constant": true,
      "inputs": [],
      "name": "aaveToken",
      "outputs": [
        {
          "internalType": "address",
          "name": "",
          "type": "address"
        }
      ],
      "payable": false,
      "stateMutability": "view",
      "type": "function"
    },
    {
      "constant": true,
      "inputs": [
        {
          "internalType": "address",
          "name": "owner",
          "type": "address"
        },
        {
          "internalType": "address",
          "name": "spender",
          "type": "address"
        }
      ],
      "name": "allowance",
      "outputs": [
        {
          "internalType": "uint256",
          "name": "",
          "type": "uint256"
        }
      ],
      "payable": false,
      "stateMutability": "view",
      "type": "function"
    },
    {
      "constant": false,
      "inputs": [
        {
          "internalType": "address",
          "name": "spender",
          "type": "address"
        },
        {
          "internalType": "uint256",
          "name": "amount",
          "type": "uint256"
        }
      ],
      "name": "approve",
      "outputs": [
        {
          "internalType": "bool",
          "name": "",
          "type": "bool"
        }
      ],
      "payable": false,
      "stateMutability": "nonpayable",
      "type": "function"
    },
    {
      "constant": true,
      "inputs": [],
      "name": "apr",
      "outputs": [
        {
          "internalType": "address",
          "name": "",
          "type": "address"
        }
      ],
      "payable": false,
      "stateMutability": "view",
      "type": "function"
    },
    {
      "constant": true,
      "inputs": [
        {
          "internalType": "address",
          "name": "account",
          "type": "address"
        }
      ],
      "name": "balanceOf",
      "outputs": [
        {
          "internalType": "uint256",
          "name": "",
          "type": "uint256"
        }
      ],
      "payable": false,
      "stateMutability": "view",
      "type": "function"
    },
    {
      "constant": true,
      "inputs": [],
      "name": "decimals",
      "outputs": [
        {
          "internalType": "uint8",
          "name": "",
          "type": "uint8"
        }
      ],
      "payable": false,
      "stateMutability": "view",
      "type": "function"
    },
    {
      "constant": false,
      "inputs": [
        {
          "internalType": "address",
          "name": "spender",
          "type": "address"
        },
        {
          "internalType": "uint256",
          "name": "subtractedValue",
          "type": "uint256"
        }
      ],
      "name": "decreaseAllowance",
      "outputs": [
        {
          "internalType": "bool",
          "name": "",
          "type": "bool"
        }
      ],
      "payable": false,
      "stateMutability": "nonpayable",
      "type": "function"
    },
    {
      "constant": true,
      "inputs": [],
      "name": "fulcrum",
      "outputs": [
        {
          "internalType": "address",
          "name": "",
          "type": "address"
        }
      ],
      "payable": false,
      "stateMutability": "view",
      "type": "function"
    },
    {
      "constant": false,
      "inputs": [
        {
          "internalType": "address",
          "name": "spender",
          "type": "address"
        },
        {
          "internalType": "uint256",
          "name": "addedValue",
          "type": "uint256"
        }
      ],
      "name": "increaseAllowance",
      "outputs": [
        {
          "internalType": "bool",
          "name": "",
          "type": "bool"
        }
      ],
      "payable": false,
      "stateMutability": "nonpayable",
      "type": "function"
    },
    {
      "constant": true,
      "inputs": [],
      "name": "isOwner",
      "outputs": [
        {
          "internalType": "bool",
          "name": "",
          "type": "bool"
        }
      ],
      "payable": false,
      "stateMutability": "view",
      "type": "function"
    },
    {
      "constant": true,
      "inputs": [],
      "name": "name",
      "outputs": [
        {
          "internalType": "string",
          "name": "",
          "type": "string"
        }
      ],
      "payable": false,
      "stateMutability": "view",
      "type": "function"
    },
    {
      "constant": true,
      "inputs": [],
      "name": "owner",
      "outputs": [
        {
          "internalType": "address",
          "name": "",
          "type": "address"
        }
      ],
      "payable": false,
      "stateMutability": "view",
      "type": "function"
    },
    {
      "constant": true,
      "inputs": [],
      "name": "pool",
      "outputs": [
        {
          "internalType": "uint256",
          "name": "",
          "type": "uint256"
        }
      ],
      "payable": false,
      "stateMutability": "view",
      "type": "function"
    },
    {
      "constant": true,
      "inputs": [],
      "name": "provider",
      "outputs": [
        {
          "internalType": "enum xAAVE.Lender",
          "name": "",
          "type": "uint8"
        }
      ],
      "payable": false,
      "stateMutability": "view",
      "type": "function"
    },
    {
      "constant": false,
      "inputs": [],
      "name": "renounceOwnership",
      "outputs": [],
      "payable": false,
      "stateMutability": "nonpayable",
      "type": "function"
    },
    {
      "constant": true,
      "inputs": [],
      "name": "symbol",
      "outputs": [
        {
          "internalType": "string",
          "name": "",
          "type": "string"
        }
      ],
      "payable": false,
      "stateMutability": "view",
      "type": "function"
    },
    {
      "constant": true,
      "inputs": [],
      "name": "token",
      "outputs": [
        {
          "internalType": "address",
          "name": "",
          "type": "address"
        }
      ],
      "payable": false,
      "stateMutability": "view",
      "type": "function"
    },
    {
      "constant": true,
      "inputs": [],
      "name": "totalSupply",
      "outputs": [
        {
          "internalType": "uint256",
          "name": "",
          "type": "uint256"
        }
      ],
      "payable": false,
      "stateMutability": "view",
      "type": "function"
    },
    {
      "constant": false,
      "inputs": [
        {
          "internalType": "address",
          "name": "recipient",
          "type": "address"
        },
        {
          "internalType": "uint256",
          "name": "amount",
          "type": "uint256"
        }
      ],
      "name": "transfer",
      "outputs": [
        {
          "internalType": "bool",
          "name": "",
          "type": "bool"
        }
      ],
      "payable": false,
      "stateMutability": "nonpayable",
      "type": "function"
    },
    {
      "constant": false,
      "inputs": [
        {
          "internalType": "address",
          "name": "sender",
          "type": "address"
        },
        {
          "internalType": "address",
          "name": "recipient",
          "type": "address"
        },
        {
          "internalType": "uint256",
          "name": "amount",
          "type": "uint256"
        }
      ],
      "name": "transferFrom",
      "outputs": [
        {
          "internalType": "bool",
          "name": "",
          "type": "bool"
        }
      ],
      "payable": false,
      "stateMutability": "nonpayable",
      "type": "function"
    },
    {
      "constant": false,
      "inputs": [
        {
          "internalType": "address",
          "name": "newOwner",
          "type": "address"
        }
      ],
      "name": "transferOwnership",
      "outputs": [],
      "payable": false,
      "stateMutability": "nonpayable",
      "type": "function"
    },
    {
      "constant": false,
      "inputs": [
        {
          "internalType": "address",
          "name": "_new_AAVE",
          "type": "address"
        }
      ],
      "name": "set_new_AAVE",
      "outputs": [],
      "payable": false,
      "stateMutability": "nonpayable",
      "type": "function"
    },
    {
      "constant": false,
      "inputs": [
        {
          "internalType": "address",
          "name": "_new_APR",
          "type": "address"
        }
      ],
      "name": "set_new_APR",
      "outputs": [],
      "payable": false,
      "stateMutability": "nonpayable",
      "type": "function"
    },
    {
      "constant": false,
      "inputs": [
        {
          "internalType": "address",
          "name": "_new_FULCRUM",
          "type": "address"
        }
      ],
      "name": "set_new_FULCRUM",
      "outputs": [],
      "payable": false,
      "stateMutability": "nonpayable",
      "type": "function"
    },
    {
      "constant": false,
      "inputs": [
        {
          "internalType": "address",
          "name": "_new_ATOKEN",
          "type": "address"
        }
      ],
      "name": "set_new_ATOKEN",
      "outputs": [],
      "payable": false,
      "stateMutability": "nonpayable",
      "type": "function"
    },
    {
      "constant": true,
      "inputs": [],
      "name": "recommend",
      "outputs": [
        {
          "internalType": "enum xAAVE.Lender",
          "name": "",
          "type": "uint8"
        }
      ],
      "payable": false,
      "stateMutability": "view",
      "type": "function"
    },
    {
      "constant": true,
      "inputs": [],
      "name": "balance",
      "outputs": [
        {
          "internalType": "uint256",
          "name": "",
          "type": "uint256"
        }
      ],
      "payable": false,
      "stateMutability": "view",
      "type": "function"
    },
    {
      "constant": true,
      "inputs": [],
      "name": "getAave",
      "outputs": [
        {
          "internalType": "address",
          "name": "",
          "type": "address"
        }
      ],
      "payable": false,
      "stateMutability": "view",
      "type": "function"
    },
    {
      "constant": true,
      "inputs": [],
      "name": "getAaveCore",
      "outputs": [
        {
          "internalType": "address",
          "name": "",
          "type": "address"
        }
      ],
      "payable": false,
      "stateMutability": "view",
      "type": "function"
    },
    {
      "constant": false,
      "inputs": [],
      "name": "approveToken",
      "outputs": [],
      "payable": false,
      "stateMutability": "nonpayable",
      "type": "function"
    },
    {
      "constant": true,
      "inputs": [],
      "name": "balanceFulcrumInToken",
      "outputs": [
        {
          "internalType": "uint256",
          "name": "",
          "type": "uint256"
        }
      ],
      "payable": false,
      "stateMutability": "view",
      "type": "function"
    },
    {
      "constant": true,
      "inputs": [],
      "name": "balanceFulcrum",
      "outputs": [
        {
          "internalType": "uint256",
          "name": "",
          "type": "uint256"
        }
      ],
      "payable": false,
      "stateMutability": "view",
      "type": "function"
    },
    {
      "constant": true,
      "inputs": [],
      "name": "balanceAave",
      "outputs": [
        {
          "internalType": "uint256",
          "name": "",
          "type": "uint256"
        }
      ],
      "payable": false,
      "stateMutability": "view",
      "type": "function"
    },
    {
      "constant": false,
      "inputs": [],
      "name": "rebalance",
      "outputs": [],
      "payable": false,
      "stateMutability": "nonpayable",
      "type": "function"
    },
    {
      "constant": false,
      "inputs": [
        {
          "internalType": "uint256",
          "name": "amount",
          "type": "uint256"
        }
      ],
      "name": "supplyAave",
      "outputs": [],
      "payable": false,
      "stateMutability": "nonpayable",
      "type": "function"
    },
    {
      "constant": false,
      "inputs": [
        {
          "internalType": "uint256",
          "name": "amount",
          "type": "uint256"
        }
      ],
      "name": "supplyFulcrum",
      "outputs": [],
      "payable": false,
      "stateMutability": "nonpayable",
      "type": "function"
    },
    {
      "constant": false,
      "inputs": [
        {
          "internalType": "uint256",
          "name": "_amount",
          "type": "uint256"
        }
      ],
      "name": "invest",
      "outputs": [],
      "payable": false,
      "stateMutability": "nonpayable",
      "type": "function"
    },
    {
      "constant": false,
      "inputs": [],
      "name": "investSelf",
      "outputs": [],
      "payable": false,
      "stateMutability": "nonpayable",
      "type": "function"
    },
    {
      "constant": true,
      "inputs": [],
      "name": "calcPoolValueInToken",
      "outputs": [
        {
          "internalType": "uint256",
          "name": "",
          "type": "uint256"
        }
      ],
      "payable": false,
      "stateMutability": "view",
      "type": "function"
    },
    {
      "constant": true,
      "inputs": [],
      "name": "getPricePerFullShare",
      "outputs": [
        {
          "internalType": "uint256",
          "name": "",
          "type": "uint256"
        }
      ],
      "payable": false,
      "stateMutability": "view",
      "type": "function"
    },
    {
      "constant": false,
      "inputs": [
        {
          "internalType": "uint256",
          "name": "_shares",
          "type": "uint256"
        }
      ],
      "name": "redeem",
      "outputs": [],
      "payable": false,
      "stateMutability": "nonpayable",
      "type": "function"
    }
  ],
  "bytecode": "0x60806040526000600d60146101000a81548160ff021916908360028111156200002457fe5b02179055503480156200003657600080fd5b506040518060400160405280600581526020017f78414156450000000000000000000000000000000000000000000000000000008152506040518060400160405280600581526020017f784141564500000000000000000000000000000000000000000000000000000081525060068260039080519060200190620000bd92919062000381565b508160049080519060200190620000d692919062000381565b5080600560006101000a81548160ff021916908360ff16021790555050505060016006819055506200010d6200037960201b60201c565b600760006101000a81548173ffffffffffffffffffffffffffffffffffffffff021916908373ffffffffffffffffffffffffffffffffffffffff160217905550600760009054906101000a900473ffffffffffffffffffffffffffffffffffffffff1673ffffffffffffffffffffffffffffffffffffffff16600073ffffffffffffffffffffffffffffffffffffffff167f8be0079c531659141344cd1fd0a4f28419497f9722a3daafe3b4186f6b6457e060405160405180910390a373dac17f958d2ee523a2206206994597c13d831ec7600960006101000a81548173ffffffffffffffffffffffffffffffffffffffff021916908373ffffffffffffffffffffffffffffffffffffffff16021790555073318135fbd0b40d48fcef431ccdf6c7926450edfb600d60006101000a81548173ffffffffffffffffffffffffffffffffffffffff021916908373ffffffffffffffffffffffffffffffffffffffff1602179055507324a42fd28c976a61df5d00d0599c34c4f90748c8600b60006101000a81548173ffffffffffffffffffffffffffffffffffffffff021916908373ffffffffffffffffffffffffffffffffffffffff16021790555073f013406a0b1d544238083df0b93ad0d2cbe0f65f600a60006101000a81548173ffffffffffffffffffffffffffffffffffffffff021916908373ffffffffffffffffffffffffffffffffffffffff1602179055507371fc860f7d3a592a4a98740e39db31d25db65ae8600c60006101000a81548173ffffffffffffffffffffffffffffffffffffffff021916908373ffffffffffffffffffffffffffffffffffffffff16021790555062000430565b600033905090565b828054600181600116156101000203166002900490600052602060002090601f016020900481019282601f10620003c457805160ff1916838001178555620003f5565b82800160010185558215620003f5579182015b82811115620003f4578251825591602001919060010190620003d7565b5b50905062000404919062000408565b5090565b6200042d91905b80821115620004295760008160009055506001016200040f565b5090565b90565b6143ec80620004406000396000f3fe6080604052600436106102515760003560e01c80638124955c11610139578063a9de245b116100b6578063dd62ed3e1161007a578063dd62ed3e1461086b578063f2fde38b146108a8578063f5a41dea146108d1578063f7c1ec77146108fc578063f82ce27d14610927578063fc0c546a1461095257610251565b8063a9de245b1461079a578063b69ef8a8146107c3578063bbf31644146107ee578063cf8ca42614610817578063db006a751461084257610251565b806395d89b41116100fd57806395d89b41146106b357806399b71d5c146106de578063a160176d146106f5578063a457c2d714610720578063a9059cbb1461075d57610251565b80638124955c146105e0578063812adb0614610609578063819faf7b146106325780638da5cb5b1461065d5780638f32d59b1461068857610251565b806339509351116101d257806365aab7491161019657806365aab749146104f657806370a082311461051f5780637137ef991461055c578063715018a61461058757806377c7b8fc1461059e5780637d7c2a1c146105c957610251565b806339509351146104235780633990ab4f14610460578063463574731461047757806357ded9c9146104a057806358782c21146104cb57610251565b806316f0115b1161021957806316f0115b1461033c57806318160ddd1461036757806323b872dd146103925780632afcf480146103cf578063313ce567146103f857610251565b806306a3fe591461025357806306fdde031461027e578063085d4883146102a9578063095ea7b3146102d45780630eb2a26714610311575b005b34801561025f57600080fd5b5061026861097d565b6040516102759190613d18565b60405180910390f35b34801561028a57600080fd5b506102936109a3565b6040516102a09190613e6d565b60405180910390f35b3480156102b557600080fd5b506102be610a45565b6040516102cb9190613e52565b60405180910390f35b3480156102e057600080fd5b506102fb60048036036102f691908101906134e0565b610a58565b6040516103089190613e37565b60405180910390f35b34801561031d57600080fd5b50610326610a76565b604051610333919061410f565b60405180910390f35b34801561034857600080fd5b50610351610b28565b60405161035e919061410f565b60405180910390f35b34801561037357600080fd5b5061037c610b2e565b604051610389919061410f565b60405180910390f35b34801561039e57600080fd5b506103b960048036036103b49190810190613491565b610b38565b6040516103c69190613e37565b60405180910390f35b3480156103db57600080fd5b506103f660048036036103f191908101906135ac565b610c11565b005b34801561040457600080fd5b5061040d610d7d565b60405161041a919061412a565b60405180910390f35b34801561042f57600080fd5b5061044a600480360361044591908101906134e0565b610d94565b6040516104579190613e37565b60405180910390f35b34801561046c57600080fd5b50610475610e47565b005b34801561048357600080fd5b5061049e60048036036104999190810190613403565b610ff6565b005b3480156104ac57600080fd5b506104b5611081565b6040516104c29190613d18565b60405180910390f35b3480156104d757600080fd5b506104e06110a7565b6040516104ed9190613d18565b60405180910390f35b34801561050257600080fd5b5061051d600480360361051891908101906135ac565b6110cd565b005b34801561052b57600080fd5b5061054660048036036105419190810190613403565b611169565b604051610553919061410f565b60405180910390f35b34801561056857600080fd5b506105716111b1565b60405161057e919061410f565b60405180910390f35b34801561059357600080fd5b5061059c6111f2565b005b3480156105aa57600080fd5b506105b36112fa565b6040516105c0919061410f565b60405180910390f35b3480156105d557600080fd5b506105de61133c565b005b3480156105ec57600080fd5b50610607600480360361060291908101906135ac565b611413565b005b34801561061557600080fd5b50610630600480360361062b9190810190613403565b611507565b005b34801561063e57600080fd5b50610647611592565b6040516106549190613d18565b60405180910390f35b34801561066957600080fd5b506106726115b8565b60405161067f9190613d18565b60405180910390f35b34801561069457600080fd5b5061069d6115e2565b6040516106aa9190613e37565b60405180910390f35b3480156106bf57600080fd5b506106c8611641565b6040516106d59190613e6d565b60405180910390f35b3480156106ea57600080fd5b506106f36116e3565b005b34801561070157600080fd5b5061070a6117e8565b6040516107179190613e52565b60405180910390f35b34801561072c57600080fd5b50610747600480360361074291908101906134e0565b61190a565b6040516107549190613e37565b60405180910390f35b34801561076957600080fd5b50610784600480360361077f91908101906134e0565b6119d7565b6040516107919190613e37565b60405180910390f35b3480156107a657600080fd5b506107c160048036036107bc9190810190613403565b6119f5565b005b3480156107cf57600080fd5b506107d8611a80565b6040516107e5919061410f565b60405180910390f35b3480156107fa57600080fd5b5061081560048036036108109190810190613403565b611b32565b005b34801561082357600080fd5b5061082c611bbd565b604051610839919061410f565b60405180910390f35b34801561084e57600080fd5b50610869600480360361086491908101906135ac565b611c6f565b005b34801561087757600080fd5b50610892600480360361088d9190810190613455565b61200f565b60405161089f919061410f565b60405180910390f35b3480156108b457600080fd5b506108cf60048036036108ca9190810190613403565b612096565b005b3480156108dd57600080fd5b506108e66120e9565b6040516108f3919061410f565b60405180910390f35b34801561090857600080fd5b506109116121b4565b60405161091e9190613d18565b60405180910390f35b34801561093357600080fd5b5061093c61225b565b6040516109499190613d18565b60405180910390f35b34801561095e57600080fd5b50610967612302565b6040516109749190613d18565b60405180910390f35b600c60009054906101000a900473ffffffffffffffffffffffffffffffffffffffff1681565b606060038054600181600116156101000203166002900480601f016020809104026020016040519081016040528092919081815260200182805460018160011615610100020316600290048015610a3b5780601f10610a1057610100808354040283529160200191610a3b565b820191906000526020600020905b815481529060010190602001808311610a1e57829003601f168201915b5050505050905090565b600d60149054906101000a900460ff1681565b6000610a6c610a65612328565b8484612330565b6001905092915050565b6000600a60009054906101000a900473ffffffffffffffffffffffffffffffffffffffff1673ffffffffffffffffffffffffffffffffffffffff166370a08231306040518263ffffffff1660e01b8152600401610ad39190613d33565b60206040518083038186803b158015610aeb57600080fd5b505afa158015610aff573d6000803e3d6000fd5b505050506040513d601f19601f82011682018060405250610b2391908101906135d5565b905090565b60085481565b6000600254905090565b6000610b458484846124fb565b610c0684610b51612328565b610c018560405180606001604052806028815260200161435d60289139600160008b73ffffffffffffffffffffffffffffffffffffffff1673ffffffffffffffffffffffffffffffffffffffff1681526020019081526020016000206000610bb7612328565b73ffffffffffffffffffffffffffffffffffffffff1673ffffffffffffffffffffffffffffffffffffffff168152602001908152602001600020546127859092919063ffffffff16565b612330565b600190509392505050565b60016006600082825401925050819055506000600654905060008211610c6c576040517f08c379a0000000000000000000000000000000000000000000000000000000008152600401610c639061402f565b60405180910390fd5b610c746111b1565b600881905550610cc9333084600960009054906101000a900473ffffffffffffffffffffffffffffffffffffffff1673ffffffffffffffffffffffffffffffffffffffff166127e0909392919063ffffffff16565b610cd161133c565b600080905060006008541415610cf05782905082600881905550610d1c565b610d19600854610d0b6002548661288290919063ffffffff16565b6128f290919063ffffffff16565b90505b610d246111b1565b600881905550610d34338261293c565b506006548114610d79576040517f08c379a0000000000000000000000000000000000000000000000000000000008152600401610d709061408f565b60405180910390fd5b5050565b6000600560009054906101000a900460ff16905090565b6000610e3d610da1612328565b84610e388560016000610db2612328565b73ffffffffffffffffffffffffffffffffffffffff1673ffffffffffffffffffffffffffffffffffffffff16815260200190815260200160002060008973ffffffffffffffffffffffffffffffffffffffff1673ffffffffffffffffffffffffffffffffffffffff16815260200190815260200160002054612ac490919063ffffffff16565b612330565b6001905092915050565b600160066000828254019250508190555060006006549050610e676115e2565b610ea6576040517f08c379a0000000000000000000000000000000000000000000000000000000008152600401610e9d90613f6f565b60405180910390fd5b6000600960009054906101000a900473ffffffffffffffffffffffffffffffffffffffff1673ffffffffffffffffffffffffffffffffffffffff166370a08231306040518263ffffffff1660e01b8152600401610f039190613d33565b60206040518083038186803b158015610f1b57600080fd5b505afa158015610f2f573d6000803e3d6000fd5b505050506040513d601f19601f82011682018060405250610f5391908101906135d5565b905060008111610f98576040517f08c379a0000000000000000000000000000000000000000000000000000000008152600401610f8f9061402f565b60405180910390fd5b610fa061133c565b610fa86111b1565b600881905550506006548114610ff3576040517f08c379a0000000000000000000000000000000000000000000000000000000008152600401610fea9061408f565b60405180910390fd5b50565b610ffe6115e2565b61103d576040517f08c379a000000000000000000000000000000000000000000000000000000000815260040161103490613f6f565b60405180910390fd5b80600d60006101000a81548173ffffffffffffffffffffffffffffffffffffffff021916908373ffffffffffffffffffffffffffffffffffffffff16021790555050565b600d60009054906101000a900473ffffffffffffffffffffffffffffffffffffffff1681565b600a60009054906101000a900473ffffffffffffffffffffffffffffffffffffffff1681565b6110d56121b4565b73ffffffffffffffffffffffffffffffffffffffff1663d2d0e066600960009054906101000a900473ffffffffffffffffffffffffffffffffffffffff168360006040518463ffffffff1660e01b815260040161113493929190613e00565b600060405180830381600087803b15801561114e57600080fd5b505af1158015611162573d6000803e3d6000fd5b5050505050565b60008060008373ffffffffffffffffffffffffffffffffffffffff1673ffffffffffffffffffffffffffffffffffffffff168152602001908152602001600020549050919050565b60006111ed6111be611a80565b6111df6111c9611bbd565b6111d16120e9565b612ac490919063ffffffff16565b612ac490919063ffffffff16565b905090565b6111fa6115e2565b611239576040517f08c379a000000000000000000000000000000000000000000000000000000000815260040161123090613f6f565b60405180910390fd5b600073ffffffffffffffffffffffffffffffffffffffff16600760009054906101000a900473ffffffffffffffffffffffffffffffffffffffff1673ffffffffffffffffffffffffffffffffffffffff167f8be0079c531659141344cd1fd0a4f28419497f9722a3daafe3b4186f6b6457e060405160405180910390a36000600760006101000a81548173ffffffffffffffffffffffffffffffffffffffff021916908373ffffffffffffffffffffffffffffffffffffffff160217905550565b6000806113056111b1565b9050611336600254611328670de0b6b3a76400008461288290919063ffffffff16565b6128f290919063ffffffff16565b91505090565b60006113466117e8565b9050600d60149054906101000a900460ff16600281111561136357fe5b81600281111561136f57fe5b1461137d5761137c612b19565b5b6000611387611a80565b11156113ed5760028081111561139957fe5b8160028111156113a557fe5b14156113bc576113bb6113b6611a80565b611413565b5b600160028111156113c957fe5b8160028111156113d557fe5b14156113ec576113eb6113e6611a80565b6110cd565b5b5b80600d60146101000a81548160ff0219169083600281111561140b57fe5b021790555050565b6000600a60009054906101000a900473ffffffffffffffffffffffffffffffffffffffff1673ffffffffffffffffffffffffffffffffffffffff166340c10f1930846040518363ffffffff1660e01b8152600401611472929190613d4e565b602060405180830381600087803b15801561148c57600080fd5b505af11580156114a0573d6000803e3d6000fd5b505050506040513d601f19601f820116820180604052506114c491908101906135d5565b11611504576040517f08c379a00000000000000000000000000000000000000000000000000000000081526004016114fb9061404f565b60405180910390fd5b50565b61150f6115e2565b61154e576040517f08c379a000000000000000000000000000000000000000000000000000000000815260040161154590613f6f565b60405180910390fd5b80600b60006101000a81548173ffffffffffffffffffffffffffffffffffffffff021916908373ffffffffffffffffffffffffffffffffffffffff16021790555050565b600b60009054906101000a900473ffffffffffffffffffffffffffffffffffffffff1681565b6000600760009054906101000a900473ffffffffffffffffffffffffffffffffffffffff16905090565b6000600760009054906101000a900473ffffffffffffffffffffffffffffffffffffffff1673ffffffffffffffffffffffffffffffffffffffff16611625612328565b73ffffffffffffffffffffffffffffffffffffffff1614905090565b606060048054600181600116156101000203166002900480601f0160208091040260200160405190810160405280929190818152602001828054600181600116156101000203166002900480156116d95780601f106116ae576101008083540402835291602001916116d9565b820191906000526020600020905b8154815290600101906020018083116116bc57829003601f168201915b5050505050905090565b6117576116ee61225b565b7fffffffffffffffffffffffffffffffffffffffffffffffffffffffffffffffff600960009054906101000a900473ffffffffffffffffffffffffffffffffffffffff1673ffffffffffffffffffffffffffffffffffffffff16612b589092919063ffffffff16565b6117e6600a60009054906101000a900473ffffffffffffffffffffffffffffffffffffffff167fffffffffffffffffffffffffffffffffffffffffffffffffffffffffffffffff600960009054906101000a900473ffffffffffffffffffffffffffffffffffffffff1673ffffffffffffffffffffffffffffffffffffffff16612b589092919063ffffffff16565b565b6000806000600d60009054906101000a900473ffffffffffffffffffffffffffffffffffffffff1673ffffffffffffffffffffffffffffffffffffffff1663d88be3c0600960009054906101000a900473ffffffffffffffffffffffffffffffffffffffff166040518263ffffffff1660e01b815260040161186a9190613d18565b60006040518083038186803b15801561188257600080fd5b505afa158015611896573d6000803e3d6000fd5b505050506040513d6000823e3d601f19601f820116820180604052506118bf9190810190613545565b92509250506000809050808311156118d5578290505b808211156118e1578190505b6000809050828214156118f357600190505b8382141561190057600290505b8094505050505090565b60006119cd611917612328565b846119c8856040518060600160405280602581526020016143856025913960016000611941612328565b73ffffffffffffffffffffffffffffffffffffffff1673ffffffffffffffffffffffffffffffffffffffff16815260200190815260200160002060008a73ffffffffffffffffffffffffffffffffffffffff1673ffffffffffffffffffffffffffffffffffffffff168152602001908152602001600020546127859092919063ffffffff16565b612330565b6001905092915050565b60006119eb6119e4612328565b84846124fb565b6001905092915050565b6119fd6115e2565b611a3c576040517f08c379a0000000000000000000000000000000000000000000000000000000008152600401611a3390613f6f565b60405180910390fd5b80600c60006101000a81548173ffffffffffffffffffffffffffffffffffffffff021916908373ffffffffffffffffffffffffffffffffffffffff16021790555050565b6000600960009054906101000a900473ffffffffffffffffffffffffffffffffffffffff1673ffffffffffffffffffffffffffffffffffffffff166370a08231306040518263ffffffff1660e01b8152600401611add9190613d33565b60206040518083038186803b158015611af557600080fd5b505afa158015611b09573d6000803e3d6000fd5b505050506040513d601f19601f82011682018060405250611b2d91908101906135d5565b905090565b611b3a6115e2565b611b79576040517f08c379a0000000000000000000000000000000000000000000000000000000008152600401611b7090613f6f565b60405180910390fd5b80600a60006101000a81548173ffffffffffffffffffffffffffffffffffffffff021916908373ffffffffffffffffffffffffffffffffffffffff16021790555050565b6000600c60009054906101000a900473ffffffffffffffffffffffffffffffffffffffff1673ffffffffffffffffffffffffffffffffffffffff166370a08231306040518263ffffffff1660e01b8152600401611c1a9190613d33565b60206040518083038186803b158015611c3257600080fd5b505afa158015611c46573d6000803e3d6000fd5b505050506040513d601f19601f82011682018060405250611c6a91908101906135d5565b905090565b60016006600082825401925050819055506000600654905060008211611cca576040517f08c379a0000000000000000000000000000000000000000000000000000000008152600401611cc190613faf565b60405180910390fd5b6000611cd533611169565b905080831115611d1a576040517f08c379a0000000000000000000000000000000000000000000000000000000008152600401611d1190613f8f565b60405180910390fd5b611d226111b1565b6008819055506000611d53600254611d458660085461288290919063ffffffff16565b6128f290919063ffffffff16565b9050611ddd846040518060400160405280601d81526020017f72656465656d20616d6f756e7420657863656564732062616c616e63650000008152506000803373ffffffffffffffffffffffffffffffffffffffff1673ffffffffffffffffffffffffffffffffffffffff168152602001908152602001600020546127859092919063ffffffff16565b6000803373ffffffffffffffffffffffffffffffffffffffff1673ffffffffffffffffffffffffffffffffffffffff16815260200190815260200160002081905550611e3484600254612ccf90919063ffffffff16565b600281905550600073ffffffffffffffffffffffffffffffffffffffff163373ffffffffffffffffffffffffffffffffffffffff167fddf252ad1be2c89b69c2b068fc378daa952ba7f163c4a11628f55a4df523b3ef86604051611e98919061410f565b60405180910390a36000600960009054906101000a900473ffffffffffffffffffffffffffffffffffffffff1673ffffffffffffffffffffffffffffffffffffffff166370a08231306040518263ffffffff1660e01b8152600401611efd9190613d33565b60206040518083038186803b158015611f1557600080fd5b505afa158015611f29573d6000803e3d6000fd5b505050506040513d601f19601f82011682018060405250611f4d91908101906135d5565b905081811015611f6157611f6082612d19565b5b611fae3383600960009054906101000a900473ffffffffffffffffffffffffffffffffffffffff1673ffffffffffffffffffffffffffffffffffffffff16612dd59092919063ffffffff16565b611fb661133c565b611fbe6111b1565b600881905550505050600654811461200b576040517f08c379a00000000000000000000000000000000000000000000000000000000081526004016120029061408f565b60405180910390fd5b5050565b6000600160008473ffffffffffffffffffffffffffffffffffffffff1673ffffffffffffffffffffffffffffffffffffffff16815260200190815260200160002060008373ffffffffffffffffffffffffffffffffffffffff1673ffffffffffffffffffffffffffffffffffffffff16815260200190815260200160002054905092915050565b61209e6115e2565b6120dd576040517f08c379a00000000000000000000000000000000000000000000000000000000081526004016120d490613f6f565b60405180910390fd5b6120e681612e74565b50565b6000806120f4610a76565b905060008111156121ad57600a60009054906101000a900473ffffffffffffffffffffffffffffffffffffffff1673ffffffffffffffffffffffffffffffffffffffff166306b3efd6306040518263ffffffff1660e01b815260040161215a9190613d33565b60206040518083038186803b15801561217257600080fd5b505afa158015612186573d6000803e3d6000fd5b505050506040513d601f19601f820116820180604052506121aa91908101906135d5565b90505b8091505090565b6000600b60009054906101000a900473ffffffffffffffffffffffffffffffffffffffff1673ffffffffffffffffffffffffffffffffffffffff16630261bf8b6040518163ffffffff1660e01b815260040160206040518083038186803b15801561221e57600080fd5b505afa158015612232573d6000803e3d6000fd5b505050506040513d601f19601f82011682018060405250612256919081019061342c565b905090565b6000600b60009054906101000a900473ffffffffffffffffffffffffffffffffffffffff1673ffffffffffffffffffffffffffffffffffffffff1663ed6ff7606040518163ffffffff1660e01b815260040160206040518083038186803b1580156122c557600080fd5b505afa1580156122d9573d6000803e3d6000fd5b505050506040513d601f19601f820116820180604052506122fd919081019061342c565b905090565b600960009054906101000a900473ffffffffffffffffffffffffffffffffffffffff1681565b600033905090565b600073ffffffffffffffffffffffffffffffffffffffff168373ffffffffffffffffffffffffffffffffffffffff1614156123a0576040517f08c379a00000000000000000000000000000000000000000000000000000000081526004016123979061400f565b60405180910390fd5b600073ffffffffffffffffffffffffffffffffffffffff168273ffffffffffffffffffffffffffffffffffffffff161415612410576040517f08c379a000000000000000000000000000000000000000000000000000000000815260040161240790613ecf565b60405180910390fd5b80600160008573ffffffffffffffffffffffffffffffffffffffff1673ffffffffffffffffffffffffffffffffffffffff16815260200190815260200160002060008473ffffffffffffffffffffffffffffffffffffffff1673ffffffffffffffffffffffffffffffffffffffff168152602001908152602001600020819055508173ffffffffffffffffffffffffffffffffffffffff168373ffffffffffffffffffffffffffffffffffffffff167f8c5be1e5ebec7d5bd14f71427d1e84f3dd0314c0f7b2291e5b200ac8c7c3b925836040516124ee919061410f565b60405180910390a3505050565b600073ffffffffffffffffffffffffffffffffffffffff168373ffffffffffffffffffffffffffffffffffffffff16141561256b576040517f08c379a000000000000000000000000000000000000000000000000000000000815260040161256290613fcf565b60405180910390fd5b600073ffffffffffffffffffffffffffffffffffffffff168273ffffffffffffffffffffffffffffffffffffffff1614156125db576040517f08c379a00000000000000000000000000000000000000000000000000000000081526004016125d290613e8f565b60405180910390fd5b61264681604051806060016040528060268152602001614337602691396000808773ffffffffffffffffffffffffffffffffffffffff1673ffffffffffffffffffffffffffffffffffffffff168152602001908152602001600020546127859092919063ffffffff16565b6000808573ffffffffffffffffffffffffffffffffffffffff1673ffffffffffffffffffffffffffffffffffffffff168152602001908152602001600020819055506126d9816000808573ffffffffffffffffffffffffffffffffffffffff1673ffffffffffffffffffffffffffffffffffffffff16815260200190815260200160002054612ac490919063ffffffff16565b6000808473ffffffffffffffffffffffffffffffffffffffff1673ffffffffffffffffffffffffffffffffffffffff168152602001908152602001600020819055508173ffffffffffffffffffffffffffffffffffffffff168373ffffffffffffffffffffffffffffffffffffffff167fddf252ad1be2c89b69c2b068fc378daa952ba7f163c4a11628f55a4df523b3ef83604051612778919061410f565b60405180910390a3505050565b60008383111582906127cd576040517f08c379a00000000000000000000000000000000000000000000000000000000081526004016127c49190613e6d565b60405180910390fd5b5060008385039050809150509392505050565b61287c848573ffffffffffffffffffffffffffffffffffffffff166323b872dd905060e01b85858560405160240161281a93929190613da0565b604051602081830303815290604052907bffffffffffffffffffffffffffffffffffffffffffffffffffffffff19166020820180517bffffffffffffffffffffffffffffffffffffffffffffffffffffffff8381831617835250505050612fa4565b50505050565b60008083141561289557600090506128ec565b60008284029050828482816128a657fe5b04146128e7576040517f08c379a00000000000000000000000000000000000000000000000000000000081526004016128de90613f2f565b60405180910390fd5b809150505b92915050565b600061293483836040518060400160405280601a81526020017f536166654d6174683a206469766973696f6e206279207a65726f000000000000815250613116565b905092915050565b600073ffffffffffffffffffffffffffffffffffffffff168273ffffffffffffffffffffffffffffffffffffffff1614156129ac576040517f08c379a00000000000000000000000000000000000000000000000000000000081526004016129a3906140ef565b60405180910390fd5b6129c181600254612ac490919063ffffffff16565b600281905550612a18816000808573ffffffffffffffffffffffffffffffffffffffff1673ffffffffffffffffffffffffffffffffffffffff16815260200190815260200160002054612ac490919063ffffffff16565b6000808473ffffffffffffffffffffffffffffffffffffffff1673ffffffffffffffffffffffffffffffffffffffff168152602001908152602001600020819055508173ffffffffffffffffffffffffffffffffffffffff16600073ffffffffffffffffffffffffffffffffffffffff167fddf252ad1be2c89b69c2b068fc378daa952ba7f163c4a11628f55a4df523b3ef83604051612ab8919061410f565b60405180910390a35050565b600080828401905083811015612b0f576040517f08c379a0000000000000000000000000000000000000000000000000000000008152600401612b0690613eef565b60405180910390fd5b8091505092915050565b6000612b23610a76565b90506000811115612b3857612b3781613177565b5b612b40611bbd565b90506000811115612b5557612b548161326b565b5b50565b6000811480612bf1575060008373ffffffffffffffffffffffffffffffffffffffff1663dd62ed3e30856040518363ffffffff1660e01b8152600401612b9f929190613d77565b60206040518083038186803b158015612bb757600080fd5b505afa158015612bcb573d6000803e3d6000fd5b505050506040513d601f19601f82011682018060405250612bef91908101906135d5565b145b612c30576040517f08c379a0000000000000000000000000000000000000000000000000000000008152600401612c27906140af565b60405180910390fd5b612cca838473ffffffffffffffffffffffffffffffffffffffff1663095ea7b3905060e01b8484604051602401612c68929190613dd7565b604051602081830303815290604052907bffffffffffffffffffffffffffffffffffffffffffffffffffffffff19166020820180517bffffffffffffffffffffffffffffffffffffffffffffffffffffffff8381831617835250505050612fa4565b505050565b6000612d1183836040518060400160405280601e81526020017f536166654d6174683a207375627472616374696f6e206f766572666c6f770000815250612785565b905092915050565b60016002811115612d2657fe5b600d60149054906101000a900460ff166002811115612d4157fe5b1415612d9b5780612d50611bbd565b1015612d91576040517f08c379a0000000000000000000000000000000000000000000000000000000008152600401612d8890613fef565b60405180910390fd5b612d9a8161326b565b5b600280811115612da757fe5b600d60149054906101000a900460ff166002811115612dc257fe5b1415612dd257612dd181613177565b5b50565b612e6f838473ffffffffffffffffffffffffffffffffffffffff1663a9059cbb905060e01b8484604051602401612e0d929190613dd7565b604051602081830303815290604052907bffffffffffffffffffffffffffffffffffffffffffffffffffffffff19166020820180517bffffffffffffffffffffffffffffffffffffffffffffffffffffffff8381831617835250505050612fa4565b505050565b600073ffffffffffffffffffffffffffffffffffffffff168173ffffffffffffffffffffffffffffffffffffffff161415612ee4576040517f08c379a0000000000000000000000000000000000000000000000000000000008152600401612edb90613eaf565b60405180910390fd5b8073ffffffffffffffffffffffffffffffffffffffff16600760009054906101000a900473ffffffffffffffffffffffffffffffffffffffff1673ffffffffffffffffffffffffffffffffffffffff167f8be0079c531659141344cd1fd0a4f28419497f9722a3daafe3b4186f6b6457e060405160405180910390a380600760006101000a81548173ffffffffffffffffffffffffffffffffffffffff021916908373ffffffffffffffffffffffffffffffffffffffff16021790555050565b612fc38273ffffffffffffffffffffffffffffffffffffffff166132fb565b613002576040517f08c379a0000000000000000000000000000000000000000000000000000000008152600401612ff9906140cf565b60405180910390fd5b600060608373ffffffffffffffffffffffffffffffffffffffff168360405161302b9190613d01565b6000604051808303816000865af19150503d8060008114613068576040519150601f19603f3d011682016040523d82523d6000602084013e61306d565b606091505b5091509150816130b2576040517f08c379a00000000000000000000000000000000000000000000000000000000081526004016130a990613f0f565b60405180910390fd5b60008151111561311057808060200190516130d0919081019061351c565b61310f576040517f08c379a00000000000000000000000000000000000000000000000000000000081526004016131069061406f565b60405180910390fd5b5b50505050565b6000808311829061315d576040517f08c379a00000000000000000000000000000000000000000000000000000000081526004016131549190613e6d565b60405180910390fd5b50600083858161316957fe5b049050809150509392505050565b6000600a60009054906101000a900473ffffffffffffffffffffffffffffffffffffffff1673ffffffffffffffffffffffffffffffffffffffff16639dc29fac30846040518363ffffffff1660e01b81526004016131d6929190613d4e565b602060405180830381600087803b1580156131f057600080fd5b505af1158015613204573d6000803e3d6000fd5b505050506040513d601f19601f8201168201806040525061322891908101906135d5565b11613268576040517f08c379a000000000000000000000000000000000000000000000000000000000815260040161325f90613f4f565b60405180910390fd5b50565b600c60009054906101000a900473ffffffffffffffffffffffffffffffffffffffff1673ffffffffffffffffffffffffffffffffffffffff1663db006a75826040518263ffffffff1660e01b81526004016132c6919061410f565b600060405180830381600087803b1580156132e057600080fd5b505af11580156132f4573d6000803e3d6000fd5b5050505050565b60008060007fc5d2460186f7233c927e7db2dcc703c0e500b653ca82273b7bfad8045d85a47060001b9050833f91506000801b821415801561333d5750808214155b92505050919050565b600081359050613355816142f1565b92915050565b60008151905061336a816142f1565b92915050565b60008151905061337f81614308565b92915050565b600082601f83011261339657600080fd5b81516133a96133a482614172565b614145565b915080825260208301602083018583830111156133c557600080fd5b6133d08382846142a0565b50505092915050565b6000813590506133e88161431f565b92915050565b6000815190506133fd8161431f565b92915050565b60006020828403121561341557600080fd5b600061342384828501613346565b91505092915050565b60006020828403121561343e57600080fd5b600061344c8482850161335b565b91505092915050565b6000806040838503121561346857600080fd5b600061347685828601613346565b925050602061348785828601613346565b9150509250929050565b6000806000606084860312156134a657600080fd5b60006134b486828701613346565b93505060206134c586828701613346565b92505060406134d6868287016133d9565b9150509250925092565b600080604083850312156134f357600080fd5b600061350185828601613346565b9250506020613512858286016133d9565b9150509250929050565b60006020828403121561352e57600080fd5b600061353c84828501613370565b91505092915050565b60008060006060848603121561355a57600080fd5b600084015167ffffffffffffffff81111561357457600080fd5b61358086828701613385565b9350506020613591868287016133ee565b92505060406135a2868287016133ee565b9150509250925092565b6000602082840312156135be57600080fd5b60006135cc848285016133d9565b91505092915050565b6000602082840312156135e757600080fd5b60006135f5848285016133ee565b91505092915050565b61360781614246565b82525050565b613616816141d0565b82525050565b613625816141e2565b82525050565b60006136368261419e565b61364081856141b4565b93506136508185602086016142a0565b80840191505092915050565b61366581614258565b82525050565b6136748161426a565b82525050565b6000613685826141a9565b61368f81856141bf565b935061369f8185602086016142a0565b6136a8816142d3565b840191505092915050565b60006136c06023836141bf565b91507f45524332303a207472616e7366657220746f20746865207a65726f206164647260008301527f65737300000000000000000000000000000000000000000000000000000000006020830152604082019050919050565b60006137266026836141bf565b91507f4f776e61626c653a206e6577206f776e657220697320746865207a65726f206160008301527f64647265737300000000000000000000000000000000000000000000000000006020830152604082019050919050565b600061378c6022836141bf565b91507f45524332303a20617070726f766520746f20746865207a65726f20616464726560008301527f73730000000000000000000000000000000000000000000000000000000000006020830152604082019050919050565b60006137f2601b836141bf565b91507f536166654d6174683a206164646974696f6e206f766572666c6f7700000000006000830152602082019050919050565b60006138326020836141bf565b91507f5361666545524332303a206c6f772d6c6576656c2063616c6c206661696c65646000830152602082019050919050565b60006138726021836141bf565b91507f536166654d6174683a206d756c7469706c69636174696f6e206f766572666c6f60008301527f77000000000000000000000000000000000000000000000000000000000000006020830152604082019050919050565b60006138d86018836141bf565b91507f46554c4352554d3a207769746864726177206661696c656400000000000000006000830152602082019050919050565b60006139186020836141bf565b91507f4f776e61626c653a2063616c6c6572206973206e6f7420746865206f776e65726000830152602082019050919050565b60006139586014836141bf565b91507f696e73756666696369656e742062616c616e63650000000000000000000000006000830152602082019050919050565b6000613998601f836141bf565b91507f7769746864726177206d7573742062652067726561746572207468616e2030006000830152602082019050919050565b60006139d86025836141bf565b91507f45524332303a207472616e736665722066726f6d20746865207a65726f20616460008301527f64726573730000000000000000000000000000000000000000000000000000006020830152604082019050919050565b6000613a3e6012836141bf565b91507f696e73756666696369656e742066756e647300000000000000000000000000006000830152602082019050919050565b6000613a7e6024836141bf565b91507f45524332303a20617070726f76652066726f6d20746865207a65726f2061646460008301527f72657373000000000000000000000000000000000000000000000000000000006020830152604082019050919050565b6000613ae4601e836141bf565b91507f6465706f736974206d7573742062652067726561746572207468616e203000006000830152602082019050919050565b6000613b246016836141bf565b91507f46554c4352554d3a20737570706c79206661696c6564000000000000000000006000830152602082019050919050565b6000613b64602a836141bf565b91507f5361666545524332303a204552433230206f7065726174696f6e20646964206e60008301527f6f742073756363656564000000000000000000000000000000000000000000006020830152604082019050919050565b6000613bca601f836141bf565b91507f5265656e7472616e637947756172643a207265656e7472616e742063616c6c006000830152602082019050919050565b6000613c0a6036836141bf565b91507f5361666545524332303a20617070726f76652066726f6d206e6f6e2d7a65726f60008301527f20746f206e6f6e2d7a65726f20616c6c6f77616e6365000000000000000000006020830152604082019050919050565b6000613c70601f836141bf565b91507f5361666545524332303a2063616c6c20746f206e6f6e2d636f6e7472616374006000830152602082019050919050565b6000613cb0601f836141bf565b91507f45524332303a206d696e7420746f20746865207a65726f2061646472657373006000830152602082019050919050565b613cec8161422f565b82525050565b613cfb81614239565b82525050565b6000613d0d828461362b565b915081905092915050565b6000602082019050613d2d600083018461360d565b92915050565b6000602082019050613d4860008301846135fe565b92915050565b6000604082019050613d6360008301856135fe565b613d706020830184613ce3565b9392505050565b6000604082019050613d8c600083018561360d565b613d99602083018461360d565b9392505050565b6000606082019050613db5600083018661360d565b613dc2602083018561360d565b613dcf6040830184613ce3565b949350505050565b6000604082019050613dec600083018561360d565b613df96020830184613ce3565b9392505050565b6000606082019050613e15600083018661360d565b613e226020830185613ce3565b613e2f604083018461366b565b949350505050565b6000602082019050613e4c600083018461361c565b92915050565b6000602082019050613e67600083018461365c565b92915050565b60006020820190508181036000830152613e87818461367a565b905092915050565b60006020820190508181036000830152613ea8816136b3565b9050919050565b60006020820190508181036000830152613ec881613719565b9050919050565b60006020820190508181036000830152613ee88161377f565b9050919050565b60006020820190508181036000830152613f08816137e5565b9050919050565b60006020820190508181036000830152613f2881613825565b9050919050565b60006020820190508181036000830152613f4881613865565b9050919050565b60006020820190508181036000830152613f68816138cb565b9050919050565b60006020820190508181036000830152613f888161390b565b9050919050565b60006020820190508181036000830152613fa88161394b565b9050919050565b60006020820190508181036000830152613fc88161398b565b9050919050565b60006020820190508181036000830152613fe8816139cb565b9050919050565b6000602082019050818103600083015261400881613a31565b9050919050565b6000602082019050818103600083015261402881613a71565b9050919050565b6000602082019050818103600083015261404881613ad7565b9050919050565b6000602082019050818103600083015261406881613b17565b9050919050565b6000602082019050818103600083015261408881613b57565b9050919050565b600060208201905081810360008301526140a881613bbd565b9050919050565b600060208201905081810360008301526140c881613bfd565b9050919050565b600060208201905081810360008301526140e881613c63565b9050919050565b6000602082019050818103600083015261410881613ca3565b9050919050565b60006020820190506141246000830184613ce3565b92915050565b600060208201905061413f6000830184613cf2565b92915050565b6000604051905081810181811067ffffffffffffffff8211171561416857600080fd5b8060405250919050565b600067ffffffffffffffff82111561418957600080fd5b601f19601f8301169050602081019050919050565b600081519050919050565b600081519050919050565b600081905092915050565b600082825260208201905092915050565b60006141db8261420f565b9050919050565b60008115159050919050565b60008190506141fc826142e4565b919050565b600061ffff82169050919050565b600073ffffffffffffffffffffffffffffffffffffffff82169050919050565b6000819050919050565b600060ff82169050919050565b60006142518261427c565b9050919050565b6000614263826141ee565b9050919050565b600061427582614201565b9050919050565b60006142878261428e565b9050919050565b60006142998261420f565b9050919050565b60005b838110156142be5780820151818401526020810190506142a3565b838111156142cd576000848401525b50505050565b6000601f19601f8301169050919050565b600381106142ee57fe5b50565b6142fa816141d0565b811461430557600080fd5b50565b614311816141e2565b811461431c57600080fd5b50565b6143288161422f565b811461433357600080fd5b5056fe45524332303a207472616e7366657220616d6f756e7420657863656564732062616c616e636545524332303a207472616e7366657220616d6f756e74206578636565647320616c6c6f77616e636545524332303a2064656372656173656420616c6c6f77616e63652062656c6f77207a65726fa365627a7a72315820a22ddbea8bdab8a349e9baa4a0368cde0830dcc8b3e1b7fd991f499f20ad09906c6578706572696d656e74616cf564736f6c63430005100040",
  "source": "pragma solidity ^0.5.0;\r\npragma experimental ABIEncoderV2;\r\n\r\ninterface IERC20 {\r\n    function totalSupply() external view returns (uint256);\r\n    function balanceOf(address account) external view returns (uint256);\r\n    function transfer(address recipient, uint256 amount) external returns (bool);\r\n    function allowance(address owner, address spender) external view returns (uint256);\r\n    function approve(address spender, uint256 amount) external returns (bool);\r\n    function transferFrom(address sender, address recipient, uint256 amount) external returns (bool);\r\n    event Transfer(address indexed from, address indexed to, uint256 value);\r\n    event Approval(address indexed owner, address indexed spender, uint256 value);\r\n}\r\n\r\ncontract Context {\r\n    constructor () internal { }\r\n\r\n    function _msgSender() internal view returns (address payable) {\r\n        return msg.sender;\r\n    }\r\n\r\n    function _msgData() internal view returns (bytes memory) {\r\n        this; \r\n        return msg.data;\r\n    }\r\n}\r\n\r\ncontract ERC20 is Context, IERC20 {\r\n    using SafeMath for uint256;\r\n\r\n    mapping (address => uint256) _balances;\r\n\r\n    mapping (address => mapping (address => uint256)) private _allowances;\r\n\r\n    uint256 _totalSupply;\r\n    function totalSupply() public view returns (uint256) {\r\n        return _totalSupply;\r\n    }\r\n    function balanceOf(address account) public view returns (uint256) {\r\n        return _balances[account];\r\n    }\r\n    function transfer(address recipient, uint256 amount) public returns (bool) {\r\n        _transfer(_msgSender(), recipient, amount);\r\n        return true;\r\n    }\r\n    function allowance(address owner, address spender) public view returns (uint256) {\r\n        return _allowances[owner][spender];\r\n    }\r\n    function approve(address spender, uint256 amount) public returns (bool) {\r\n        _approve(_msgSender(), spender, amount);\r\n        return true;\r\n    }\r\n    function transferFrom(address sender, address recipient, uint256 amount) public returns (bool) {\r\n        _transfer(sender, recipient, amount);\r\n        _approve(sender, _msgSender(), _allowances[sender][_msgSender()].sub(amount, \"ERC20: transfer amount exceeds allowance\"));\r\n        return true;\r\n    }\r\n    function increaseAllowance(address spender, uint256 addedValue) public returns (bool) {\r\n        _approve(_msgSender(), spender, _allowances[_msgSender()][spender].add(addedValue));\r\n        return true;\r\n    }\r\n    function decreaseAllowance(address spender, uint256 subtractedValue) public returns (bool) {\r\n        _approve(_msgSender(), spender, _allowances[_msgSender()][spender].sub(subtractedValue, \"ERC20: decreased allowance below zero\"));\r\n        return true;\r\n    }\r\n    function _transfer(address sender, address recipient, uint256 amount) internal {\r\n        require(sender != address(0), \"ERC20: transfer from the zero address\");\r\n        require(recipient != address(0), \"ERC20: transfer to the zero address\");\r\n\r\n        _balances[sender] = _balances[sender].sub(amount, \"ERC20: transfer amount exceeds balance\");\r\n        _balances[recipient] = _balances[recipient].add(amount);\r\n        emit Transfer(sender, recipient, amount);\r\n    }\r\n    function _mint(address account, uint256 amount) internal {\r\n        require(account != address(0), \"ERC20: mint to the zero address\");\r\n\r\n        _totalSupply = _totalSupply.add(amount);\r\n        _balances[account] = _balances[account].add(amount);\r\n        emit Transfer(address(0), account, amount);\r\n    }\r\n    function _burn(address account, uint256 amount) internal {\r\n        require(account != address(0), \"ERC20: burn from the zero address\");\r\n\r\n        _balances[account] = _balances[account].sub(amount, \"ERC20: burn amount exceeds balance\");\r\n        _totalSupply = _totalSupply.sub(amount);\r\n        emit Transfer(account, address(0), amount);\r\n    }\r\n    function _approve(address owner, address spender, uint256 amount) internal {\r\n        require(owner != address(0), \"ERC20: approve from the zero address\");\r\n        require(spender != address(0), \"ERC20: approve to the zero address\");\r\n\r\n        _allowances[owner][spender] = amount;\r\n        emit Approval(owner, spender, amount);\r\n    }\r\n    function _burnFrom(address account, uint256 amount) internal {\r\n        _burn(account, amount);\r\n        _approve(account, _msgSender(), _allowances[account][_msgSender()].sub(amount, \"ERC20: burn amount exceeds allowance\"));\r\n    }\r\n}\r\n\r\ncontract ERC20Detailed is IERC20 {\r\n    string private _name;\r\n    string private _symbol;\r\n    uint8 private _decimals;\r\n\r\n    constructor (string memory name, string memory symbol, uint8 decimals) public {\r\n        _name = name;\r\n        _symbol = symbol;\r\n        _decimals = decimals;\r\n    }\r\n    function name() public view returns (string memory) {\r\n        return _name;\r\n    }\r\n    function symbol() public view returns (string memory) {\r\n        return _symbol;\r\n    }\r\n    function decimals() public view returns (uint8) {\r\n        return _decimals;\r\n    }\r\n}\r\n\r\ncontract ReentrancyGuard {\r\n    uint256 private _guardCounter;\r\n\r\n    constructor () internal {\r\n        _guardCounter = 1;\r\n    }\r\n\r\n    modifier nonReentrant() {\r\n        _guardCounter += 1;\r\n        uint256 localCounter = _guardCounter;\r\n        _;\r\n        require(localCounter == _guardCounter, \"ReentrancyGuard: reentrant call\");\r\n    }\r\n}\r\n\r\ncontract Ownable is Context {\r\n    address private _owner;\r\n\r\n    event OwnershipTransferred(address indexed previousOwner, address indexed newOwner);\r\n    constructor () internal {\r\n        _owner = _msgSender();\r\n        emit OwnershipTransferred(address(0), _owner);\r\n    }\r\n    function owner() public view returns (address) {\r\n        return _owner;\r\n    }\r\n    modifier onlyOwner() {\r\n        require(isOwner(), \"Ownable: caller is not the owner\");\r\n        _;\r\n    }\r\n    function isOwner() public view returns (bool) {\r\n        return _msgSender() == _owner;\r\n    }\r\n    function renounceOwnership() public onlyOwner {\r\n        emit OwnershipTransferred(_owner, address(0));\r\n        _owner = address(0);\r\n    }\r\n    function transferOwnership(address newOwner) public onlyOwner {\r\n        _transferOwnership(newOwner);\r\n    }\r\n    function _transferOwnership(address newOwner) internal {\r\n        require(newOwner != address(0), \"Ownable: new owner is the zero address\");\r\n        emit OwnershipTransferred(_owner, newOwner);\r\n        _owner = newOwner;\r\n    }\r\n}\r\n\r\nlibrary SafeMath {\r\n    function add(uint256 a, uint256 b) internal pure returns (uint256) {\r\n        uint256 c = a + b;\r\n        require(c >= a, \"SafeMath: addition overflow\");\r\n\r\n        return c;\r\n    }\r\n    function sub(uint256 a, uint256 b) internal pure returns (uint256) {\r\n        return sub(a, b, \"SafeMath: subtraction overflow\");\r\n    }\r\n    function sub(uint256 a, uint256 b, string memory errorMessage) internal pure returns (uint256) {\r\n        require(b <= a, errorMessage);\r\n        uint256 c = a - b;\r\n\r\n        return c;\r\n    }\r\n    function mul(uint256 a, uint256 b) internal pure returns (uint256) {\r\n        if (a == 0) {\r\n            return 0;\r\n        }\r\n\r\n        uint256 c = a * b;\r\n        require(c / a == b, \"SafeMath: multiplication overflow\");\r\n\r\n        return c;\r\n    }\r\n    function div(uint256 a, uint256 b) internal pure returns (uint256) {\r\n        return div(a, b, \"SafeMath: division by zero\");\r\n    }\r\n    function div(uint256 a, uint256 b, string memory errorMessage) internal pure returns (uint256) {\r\n        // Solidity only automatically asserts when dividing by 0\r\n        require(b > 0, errorMessage);\r\n        uint256 c = a / b;\r\n\r\n        return c;\r\n    }\r\n    function mod(uint256 a, uint256 b) internal pure returns (uint256) {\r\n        return mod(a, b, \"SafeMath: modulo by zero\");\r\n    }\r\n    function mod(uint256 a, uint256 b, string memory errorMessage) internal pure returns (uint256) {\r\n        require(b != 0, errorMessage);\r\n        return a % b;\r\n    }\r\n}\r\n\r\nlibrary Address {\r\n    function isContract(address account) internal view returns (bool) {\r\n        bytes32 codehash;\r\n        bytes32 accountHash = 0xc5d2460186f7233c927e7db2dcc703c0e500b653ca82273b7bfad8045d85a470;\r\n\r\n        assembly { codehash := extcodehash(account) }\r\n        return (codehash != 0x0 && codehash != accountHash);\r\n    }\r\n    function toPayable(address account) internal pure returns (address payable) {\r\n        return address(uint160(account));\r\n    }\r\n    function sendValue(address payable recipient, uint256 amount) internal {\r\n        require(address(this).balance >= amount, \"Address: insufficient balance\");\r\n\r\n        (bool success, ) = recipient.call.value(amount)(\"\");\r\n        require(success, \"Address: unable to send value, recipient may have reverted\");\r\n    }\r\n}\r\n\r\nlibrary SafeERC20 {\r\n    using SafeMath for uint256;\r\n    using Address for address;\r\n\r\n    function safeTransfer(IERC20 token, address to, uint256 value) internal {\r\n        callOptionalReturn(token, abi.encodeWithSelector(token.transfer.selector, to, value));\r\n    }\r\n\r\n    function safeTransferFrom(IERC20 token, address from, address to, uint256 value) internal {\r\n        callOptionalReturn(token, abi.encodeWithSelector(token.transferFrom.selector, from, to, value));\r\n    }\r\n\r\n    function safeApprove(IERC20 token, address spender, uint256 value) internal {\r\n        require((value == 0) || (token.allowance(address(this), spender) == 0),\r\n            \"SafeERC20: approve from non-zero to non-zero allowance\"\r\n        );\r\n        callOptionalReturn(token, abi.encodeWithSelector(token.approve.selector, spender, value));\r\n    }\r\n\r\n    function safeIncreaseAllowance(IERC20 token, address spender, uint256 value) internal {\r\n        uint256 newAllowance = token.allowance(address(this), spender).add(value);\r\n        callOptionalReturn(token, abi.encodeWithSelector(token.approve.selector, spender, newAllowance));\r\n    }\r\n\r\n    function safeDecreaseAllowance(IERC20 token, address spender, uint256 value) internal {\r\n        uint256 newAllowance = token.allowance(address(this), spender).sub(value, \"SafeERC20: decreased allowance below zero\");\r\n        callOptionalReturn(token, abi.encodeWithSelector(token.approve.selector, spender, newAllowance));\r\n    }\r\n    function callOptionalReturn(IERC20 token, bytes memory data) private {\r\n        require(address(token).isContract(), \"SafeERC20: call to non-contract\");\r\n\r\n        (bool success, bytes memory returndata) = address(token).call(data);\r\n        require(success, \"SafeERC20: low-level call failed\");\r\n\r\n        if (returndata.length > 0) {\r\n            require(abi.decode(returndata, (bool)), \"SafeERC20: ERC20 operation did not succeed\");\r\n        }\r\n    }\r\n}\r\n\r\ninterface Fulcrum {\r\n    function mint(address receiver, uint256 amount) external payable returns (uint256 mintAmount);\r\n    function burn(address receiver, uint256 burnAmount) external returns (uint256 loanAmountPaid);\r\n    function assetBalanceOf(address _owner) external view returns (uint256 balance);\r\n}\r\n\r\ninterface ILendingPoolAddressesProvider {\r\n    function getLendingPool() external view returns (address);\r\n}\r\n\r\ninterface Aave {\r\n    function deposit(address _reserve, uint256 _amount, uint16 _referralCode) external;\r\n}\r\n\r\ninterface AToken {\r\n    function redeem(uint256 amount) external;\r\n}\r\n\r\ninterface IIEarnManager {\r\n    function recommend(address _token) external view returns (\r\n      string memory choice,\r\n      uint256 fapr,\r\n      uint256 aapr\r\n    );\r\n}\r\n\r\ncontract Structs {\r\n    struct Val {\r\n        uint256 value;\r\n    }\r\n\r\n    enum ActionType {\r\n        Deposit,   // supply tokens\r\n        Withdraw  // borrow tokens\r\n    }\r\n\r\n    enum AssetDenomination {\r\n        Wei // the amount is denominated in wei\r\n    }\r\n\r\n    enum AssetReference {\r\n        Delta // the amount is given as a delta from the current value\r\n    }\r\n\r\n    struct AssetAmount {\r\n        bool sign; // true if positive\r\n        AssetDenomination denomination;\r\n        AssetReference ref;\r\n        uint256 value;\r\n    }\r\n\r\n    struct ActionArgs {\r\n        ActionType actionType;\r\n        uint256 accountId;\r\n        AssetAmount amount;\r\n        uint256 primaryMarketId;\r\n        uint256 secondaryMarketId;\r\n        address otherAddress;\r\n        uint256 otherAccountId;\r\n        bytes data;\r\n    }\r\n\r\n    struct Info {\r\n        address owner;  // The address that owns the account\r\n        uint256 number; // A nonce that allows a single address to control many accounts\r\n    }\r\n\r\n    struct Wei {\r\n        bool sign; // true if positive\r\n        uint256 value;\r\n    }\r\n}\r\n\r\ninterface LendingPoolAddressesProvider {\r\n    function getLendingPool() external view returns (address);\r\n    function getLendingPoolCore() external view returns (address);\r\n}\r\n\r\ncontract xAAVE is ERC20, ERC20Detailed, ReentrancyGuard, Ownable, Structs {\r\n  using SafeERC20 for IERC20;\r\n  using Address for address;\r\n  using SafeMath for uint256;\r\n\r\n  uint256 public pool;\r\n  address public token;\r\n  address public fulcrum;\r\n  address public aave;\r\n  address public aaveToken;\r\n  address public apr;\r\n\r\n  enum Lender {\r\n      NONE,\r\n      AAVE,\r\n      FULCRUM\r\n  }\r\n\r\n  Lender public provider = Lender.NONE;\r\n\r\n  constructor () public ERC20Detailed(\"xAAVE\", \"xAAVE\", 6) {\r\n    token = address(0xdAC17F958D2ee523a2206206994597C13D831ec7);\r\n    apr = address(0x318135fbD0b40D48fCEF431CCdF6C7926450edFB);\r\n    aave = address(0x24a42fD28C976A61Df5D00D0599C34c4f90748c8);\r\n    fulcrum = address(0xF013406A0B1d544238083DF0B93ad0d2cBE0f65f);\r\n    aaveToken = address(0x71fc860F7D3A592A4a98740e39dB31d25db65ae8);\r\n    // approveToken();\r\n  }\r\n  function set_new_AAVE(address _new_AAVE) public onlyOwner {\r\n      aave = _new_AAVE;\r\n  }\r\n  function set_new_APR(address _new_APR) public onlyOwner {\r\n      apr = _new_APR;\r\n  }\r\n  function set_new_FULCRUM(address _new_FULCRUM) public onlyOwner {\r\n      fulcrum = _new_FULCRUM;\r\n  }\r\n  function set_new_ATOKEN(address _new_ATOKEN) public onlyOwner {\r\n      aaveToken = _new_ATOKEN;\r\n  }\r\n\r\n  function() external payable {\r\n\r\n  }\r\n\r\n  function recommend() public view returns (Lender) {\r\n    (, uint256 fapr, uint256 aapr) = IIEarnManager(apr).recommend(token);\r\n    uint256 max = 0;\r\n    if (fapr > max) {\r\n      max = fapr;\r\n    }\r\n    if (aapr > max) {\r\n      max = aapr;\r\n    }\r\n    Lender newProvider = Lender.NONE;\r\n    if (max == aapr) {\r\n      newProvider = Lender.AAVE;\r\n    }\r\n    if (max == fapr) {\r\n      newProvider = Lender.FULCRUM;\r\n    }\r\n    return newProvider;\r\n  }\r\n\r\n  function balance() public view returns (uint256) {\r\n    return IERC20(token).balanceOf(address(this));\r\n  }\r\n\r\n  function getAave() public view returns (address) {\r\n    return LendingPoolAddressesProvider(aave).getLendingPool();\r\n  }\r\n  function getAaveCore() public view returns (address) {\r\n    return LendingPoolAddressesProvider(aave).getLendingPoolCore();\r\n  }\r\n\r\n  function approveToken() public {\r\n      IERC20(token).safeApprove(getAaveCore(), uint(-1));\r\n      IERC20(token).safeApprove(fulcrum, uint(-1));\r\n  }\r\n\r\n  function balanceFulcrumInToken() public view returns (uint256) {\r\n    uint256 b = balanceFulcrum();\r\n    if (b > 0) {\r\n      b = Fulcrum(fulcrum).assetBalanceOf(address(this));\r\n    }\r\n    return b;\r\n  }\r\n  function balanceFulcrum() public view returns (uint256) {\r\n    return IERC20(fulcrum).balanceOf(address(this));\r\n  }\r\n  function balanceAave() public view returns (uint256) {\r\n    return IERC20(aaveToken).balanceOf(address(this));\r\n  }\r\n\r\n  function withdrawAll() internal {\r\n    uint256 amount = balanceFulcrum();\r\n    if (amount > 0) {\r\n      withdrawFulcrum(amount);\r\n    }\r\n    amount = balanceAave();\r\n    if (amount > 0) {\r\n      withdrawAave(amount);\r\n    }\r\n  }\r\n\r\n  function withdrawSome(uint256 _amount) internal {\r\n    if (provider == Lender.AAVE) {\r\n      require(balanceAave() >= _amount, \"insufficient funds\");\r\n      withdrawAave(_amount);\r\n    }\r\n    if (provider == Lender.FULCRUM) {\r\n      withdrawFulcrum(_amount);\r\n    }\r\n  }\r\n\r\n  function rebalance() public {\r\n    Lender newProvider = recommend();\r\n\r\n    if (newProvider != provider) {\r\n      withdrawAll();\r\n    }\r\n\r\n    if (balance() > 0) {\r\n      if (newProvider == Lender.FULCRUM) {\r\n        supplyFulcrum(balance());\r\n      }\r\n      if (newProvider == Lender.AAVE) {\r\n        supplyAave(balance());\r\n      }\r\n    }\r\n    provider = newProvider;\r\n  }\r\n\r\n  function supplyAave(uint amount) public {\r\n      Aave(getAave()).deposit(token, amount, 0);\r\n  }\r\n  function supplyFulcrum(uint amount) public {\r\n      require(Fulcrum(fulcrum).mint(address(this), amount) > 0, \"FULCRUM: supply failed\");\r\n  }\r\n  function withdrawAave(uint amount) internal {\r\n      AToken(aaveToken).redeem(amount);\r\n  }\r\n  function withdrawFulcrum(uint amount) internal {\r\n      require(Fulcrum(fulcrum).burn(address(this), amount) > 0, \"FULCRUM: withdraw failed\");\r\n  }\r\n\r\n  function invest(uint256 _amount)\r\n      external\r\n      nonReentrant\r\n  {\r\n      require(_amount > 0, \"deposit must be greater than 0\");\r\n      pool = calcPoolValueInToken();\r\n\r\n      IERC20(token).safeTransferFrom(msg.sender, address(this), _amount);\r\n\r\n      rebalance();\r\n\r\n      // Calculate pool shares\r\n      uint256 shares = 0;\r\n      if (pool == 0) {\r\n        shares = _amount;\r\n        pool = _amount;\r\n      } else {\r\n        shares = (_amount.mul(_totalSupply)).div(pool);\r\n      }\r\n      pool = calcPoolValueInToken();\r\n      _mint(msg.sender, shares);\r\n  }\r\n\r\n  // Invest self eth from external profits\r\n  function investSelf()\r\n      external\r\n      nonReentrant\r\n      onlyOwner\r\n  {\r\n      uint b = IERC20(token).balanceOf(address(this));\r\n      require(b > 0, \"deposit must be greater than 0\");\r\n      rebalance();\r\n      pool = calcPoolValueInToken();\r\n  }\r\n\r\n  function calcPoolValueInToken() public view returns (uint) {\r\n\r\n    return balanceFulcrumInToken()\r\n      .add(balanceAave())\r\n      .add(balance());\r\n  }\r\n\r\n  function getPricePerFullShare() public view returns (uint) {\r\n    uint _pool = calcPoolValueInToken();\r\n    return _pool.mul(1e18).div(_totalSupply);\r\n  }\r\n\r\n  // Redeem any invested tokens from the pool\r\n  function redeem(uint256 _shares)\r\n      external\r\n      nonReentrant\r\n  {\r\n      require(_shares > 0, \"withdraw must be greater than 0\");\r\n\r\n      uint256 ibalance = balanceOf(msg.sender);\r\n      require(_shares <= ibalance, \"insufficient balance\");\r\n\r\n      // Could have over value from cTokens\r\n      pool = calcPoolValueInToken();\r\n      // Calc eth to redeem before updating balances\r\n      uint256 r = (pool.mul(_shares)).div(_totalSupply);\r\n\r\n\r\n      _balances[msg.sender] = _balances[msg.sender].sub(_shares, \"redeem amount exceeds balance\");\r\n      _totalSupply = _totalSupply.sub(_shares);\r\n\r\n      emit Transfer(msg.sender, address(0), _shares);\r\n\r\n      // Check ETH balance\r\n      uint256 b = IERC20(token).balanceOf(address(this));\r\n      if (b < r) {\r\n        withdrawSome(r);\r\n      }\r\n\r\n      IERC20(token).safeTransfer(msg.sender, r);\r\n\r\n      rebalance();\r\n      pool = calcPoolValueInToken();\r\n\r\n  }\r\n}",
  "sourcePath": "E:/Task/blockchain/xendfinance/polygon-earn/contracts/XAAVE.sol",
  "compiler": {
    "name": "solc",
    "version": "0.5.16+commit.9c3226ce.Emscripten.clang"
  },
  "schemaVersion": "3.4.1",
  "updatedAt": "2021-07-12T15:23:46.252Z",
  "devdoc": {
    "methods": {}
  },
  "userdoc": {
    "methods": {}
  }
}