{
  "contractName": "xMATIC",
  "abi": [
    {
      "inputs": [],
      "payable": false,
      "stateMutability": "nonpayable",
      "type": "constructor"
    },
    {
      "anonymous": false,
      "inputs": [
        {
          "indexed": true,
          "internalType": "address",
          "name": "owner",
          "type": "address"
        },
        {
          "indexed": true,
          "internalType": "address",
          "name": "spender",
          "type": "address"
        },
        {
          "indexed": false,
          "internalType": "uint256",
          "name": "value",
          "type": "uint256"
        }
      ],
      "name": "Approval",
      "type": "event"
    },
    {
      "anonymous": false,
      "inputs": [
        {
          "indexed": true,
          "internalType": "address",
          "name": "previousOwner",
          "type": "address"
        },
        {
          "indexed": true,
          "internalType": "address",
          "name": "newOwner",
          "type": "address"
        }
      ],
      "name": "OwnershipTransferred",
      "type": "event"
    },
    {
      "anonymous": false,
      "inputs": [
        {
          "indexed": true,
          "internalType": "address",
          "name": "from",
          "type": "address"
        },
        {
          "indexed": true,
          "internalType": "address",
          "name": "to",
          "type": "address"
        },
        {
          "indexed": false,
          "internalType": "uint256",
          "name": "value",
          "type": "uint256"
        }
      ],
      "name": "Transfer",
      "type": "event"
    },
    {
      "payable": true,
      "stateMutability": "payable",
      "type": "fallback"
    },
    {
      "constant": true,
      "inputs": [],
      "name": "aave",
      "outputs": [
        {
          "internalType": "address",
          "name": "",
          "type": "address"
        }
      ],
      "payable": false,
      "stateMutability": "view",
      "type": "function"
    },
    {
      "constant": true,
      "inputs": [],
      "name": "aaveToken",
      "outputs": [
        {
          "internalType": "address",
          "name": "",
          "type": "address"
        }
      ],
      "payable": false,
      "stateMutability": "view",
      "type": "function"
    },
    {
      "constant": true,
      "inputs": [
        {
          "internalType": "address",
          "name": "owner",
          "type": "address"
        },
        {
          "internalType": "address",
          "name": "spender",
          "type": "address"
        }
      ],
      "name": "allowance",
      "outputs": [
        {
          "internalType": "uint256",
          "name": "",
          "type": "uint256"
        }
      ],
      "payable": false,
      "stateMutability": "view",
      "type": "function"
    },
    {
      "constant": false,
      "inputs": [
        {
          "internalType": "address",
          "name": "spender",
          "type": "address"
        },
        {
          "internalType": "uint256",
          "name": "amount",
          "type": "uint256"
        }
      ],
      "name": "approve",
      "outputs": [
        {
          "internalType": "bool",
          "name": "",
          "type": "bool"
        }
      ],
      "payable": false,
      "stateMutability": "nonpayable",
      "type": "function"
    },
    {
      "constant": true,
      "inputs": [],
      "name": "apr",
      "outputs": [
        {
          "internalType": "address",
          "name": "",
          "type": "address"
        }
      ],
      "payable": false,
      "stateMutability": "view",
      "type": "function"
    },
    {
      "constant": true,
      "inputs": [
        {
          "internalType": "address",
          "name": "account",
          "type": "address"
        }
      ],
      "name": "balanceOf",
      "outputs": [
        {
          "internalType": "uint256",
          "name": "",
          "type": "uint256"
        }
      ],
      "payable": false,
      "stateMutability": "view",
      "type": "function"
    },
    {
      "constant": true,
      "inputs": [],
      "name": "dToken",
      "outputs": [
        {
          "internalType": "uint256",
          "name": "",
          "type": "uint256"
        }
      ],
      "payable": false,
      "stateMutability": "view",
      "type": "function"
    },
    {
      "constant": true,
      "inputs": [],
      "name": "decimals",
      "outputs": [
        {
          "internalType": "uint8",
          "name": "",
          "type": "uint8"
        }
      ],
      "payable": false,
      "stateMutability": "view",
      "type": "function"
    },
    {
      "constant": false,
      "inputs": [
        {
          "internalType": "address",
          "name": "spender",
          "type": "address"
        },
        {
          "internalType": "uint256",
          "name": "subtractedValue",
          "type": "uint256"
        }
      ],
      "name": "decreaseAllowance",
      "outputs": [
        {
          "internalType": "bool",
          "name": "",
          "type": "bool"
        }
      ],
      "payable": false,
      "stateMutability": "nonpayable",
      "type": "function"
    },
    {
      "constant": true,
      "inputs": [],
      "name": "fulcrum",
      "outputs": [
        {
          "internalType": "address",
          "name": "",
          "type": "address"
        }
      ],
      "payable": false,
      "stateMutability": "view",
      "type": "function"
    },
    {
      "constant": false,
      "inputs": [
        {
          "internalType": "address",
          "name": "spender",
          "type": "address"
        },
        {
          "internalType": "uint256",
          "name": "addedValue",
          "type": "uint256"
        }
      ],
      "name": "increaseAllowance",
      "outputs": [
        {
          "internalType": "bool",
          "name": "",
          "type": "bool"
        }
      ],
      "payable": false,
      "stateMutability": "nonpayable",
      "type": "function"
    },
    {
      "constant": true,
      "inputs": [],
      "name": "isOwner",
      "outputs": [
        {
          "internalType": "bool",
          "name": "",
          "type": "bool"
        }
      ],
      "payable": false,
      "stateMutability": "view",
      "type": "function"
    },
    {
      "constant": true,
      "inputs": [],
      "name": "name",
      "outputs": [
        {
          "internalType": "string",
          "name": "",
          "type": "string"
        }
      ],
      "payable": false,
      "stateMutability": "view",
      "type": "function"
    },
    {
      "constant": true,
      "inputs": [],
      "name": "owner",
      "outputs": [
        {
          "internalType": "address",
          "name": "",
          "type": "address"
        }
      ],
      "payable": false,
      "stateMutability": "view",
      "type": "function"
    },
    {
      "constant": true,
      "inputs": [],
      "name": "pool",
      "outputs": [
        {
          "internalType": "uint256",
          "name": "",
          "type": "uint256"
        }
      ],
      "payable": false,
      "stateMutability": "view",
      "type": "function"
    },
    {
      "constant": true,
      "inputs": [],
      "name": "provider",
      "outputs": [
        {
          "internalType": "enum xMATIC.Lender",
          "name": "",
          "type": "uint8"
        }
      ],
      "payable": false,
      "stateMutability": "view",
      "type": "function"
    },
    {
      "constant": false,
      "inputs": [],
      "name": "renounceOwnership",
      "outputs": [],
      "payable": false,
      "stateMutability": "nonpayable",
      "type": "function"
    },
    {
      "constant": true,
      "inputs": [],
      "name": "symbol",
      "outputs": [
        {
          "internalType": "string",
          "name": "",
          "type": "string"
        }
      ],
      "payable": false,
      "stateMutability": "view",
      "type": "function"
    },
    {
      "constant": true,
      "inputs": [],
      "name": "token",
      "outputs": [
        {
          "internalType": "address",
          "name": "",
          "type": "address"
        }
      ],
      "payable": false,
      "stateMutability": "view",
      "type": "function"
    },
    {
      "constant": true,
      "inputs": [],
      "name": "torque",
      "outputs": [
        {
          "internalType": "address",
          "name": "",
          "type": "address"
        }
      ],
      "payable": false,
      "stateMutability": "view",
      "type": "function"
    },
    {
      "constant": true,
      "inputs": [],
      "name": "totalSupply",
      "outputs": [
        {
          "internalType": "uint256",
          "name": "",
          "type": "uint256"
        }
      ],
      "payable": false,
      "stateMutability": "view",
      "type": "function"
    },
    {
      "constant": false,
      "inputs": [
        {
          "internalType": "address",
          "name": "recipient",
          "type": "address"
        },
        {
          "internalType": "uint256",
          "name": "amount",
          "type": "uint256"
        }
      ],
      "name": "transfer",
      "outputs": [
        {
          "internalType": "bool",
          "name": "",
          "type": "bool"
        }
      ],
      "payable": false,
      "stateMutability": "nonpayable",
      "type": "function"
    },
    {
      "constant": false,
      "inputs": [
        {
          "internalType": "address",
          "name": "sender",
          "type": "address"
        },
        {
          "internalType": "address",
          "name": "recipient",
          "type": "address"
        },
        {
          "internalType": "uint256",
          "name": "amount",
          "type": "uint256"
        }
      ],
      "name": "transferFrom",
      "outputs": [
        {
          "internalType": "bool",
          "name": "",
          "type": "bool"
        }
      ],
      "payable": false,
      "stateMutability": "nonpayable",
      "type": "function"
    },
    {
      "constant": false,
      "inputs": [
        {
          "internalType": "address",
          "name": "newOwner",
          "type": "address"
        }
      ],
      "name": "transferOwnership",
      "outputs": [],
      "payable": false,
      "stateMutability": "nonpayable",
      "type": "function"
    },
    {
      "constant": false,
      "inputs": [
        {
          "internalType": "address",
          "name": "_new_AAVE",
          "type": "address"
        }
      ],
      "name": "set_new_AAVE",
      "outputs": [],
      "payable": false,
      "stateMutability": "nonpayable",
      "type": "function"
    },
    {
      "constant": false,
      "inputs": [
        {
          "internalType": "address",
          "name": "_new_APR",
          "type": "address"
        }
      ],
      "name": "set_new_APR",
      "outputs": [],
      "payable": false,
      "stateMutability": "nonpayable",
      "type": "function"
    },
    {
      "constant": false,
      "inputs": [
        {
          "internalType": "address",
          "name": "_new_FULCRUM",
          "type": "address"
        }
      ],
      "name": "set_new_FULCRUM",
      "outputs": [],
      "payable": false,
      "stateMutability": "nonpayable",
      "type": "function"
    },
    {
      "constant": false,
      "inputs": [
        {
          "internalType": "address",
          "name": "_new_ATOKEN",
          "type": "address"
        }
      ],
      "name": "set_new_ATOKEN",
      "outputs": [],
      "payable": false,
      "stateMutability": "nonpayable",
      "type": "function"
    },
    {
      "constant": false,
      "inputs": [
        {
          "internalType": "address",
          "name": "_new_TORQUE",
          "type": "address"
        }
      ],
      "name": "set_new_TORQUE",
      "outputs": [],
      "payable": false,
      "stateMutability": "nonpayable",
      "type": "function"
    },
    {
      "constant": false,
      "inputs": [
        {
          "internalType": "uint256",
          "name": "_new_DTOKEN",
          "type": "uint256"
        }
      ],
      "name": "set_new_DTOKEN",
      "outputs": [],
      "payable": false,
      "stateMutability": "nonpayable",
      "type": "function"
    },
    {
      "constant": true,
      "inputs": [],
      "name": "recommend",
      "outputs": [
        {
          "internalType": "enum xMATIC.Lender",
          "name": "",
          "type": "uint8"
        }
      ],
      "payable": false,
      "stateMutability": "view",
      "type": "function"
    },
    {
      "constant": true,
      "inputs": [],
      "name": "balance",
      "outputs": [
        {
          "internalType": "uint256",
          "name": "",
          "type": "uint256"
        }
      ],
      "payable": false,
      "stateMutability": "view",
      "type": "function"
    },
    {
      "constant": true,
      "inputs": [],
      "name": "getAave",
      "outputs": [
        {
          "internalType": "address",
          "name": "",
          "type": "address"
        }
      ],
      "payable": false,
      "stateMutability": "view",
      "type": "function"
    },
    {
      "constant": true,
      "inputs": [],
      "name": "getAaveCore",
      "outputs": [
        {
          "internalType": "address",
          "name": "",
          "type": "address"
        }
      ],
      "payable": false,
      "stateMutability": "view",
      "type": "function"
    },
    {
      "constant": false,
      "inputs": [],
      "name": "approveToken",
      "outputs": [],
      "payable": false,
      "stateMutability": "nonpayable",
      "type": "function"
    },
    {
      "constant": true,
      "inputs": [],
      "name": "balanceTorque",
      "outputs": [
        {
          "internalType": "uint256",
          "name": "",
          "type": "uint256"
        }
      ],
      "payable": false,
      "stateMutability": "view",
      "type": "function"
    },
    {
      "constant": true,
      "inputs": [],
      "name": "balanceTorqueInToken",
      "outputs": [
        {
          "internalType": "uint256",
          "name": "",
          "type": "uint256"
        }
      ],
      "payable": false,
      "stateMutability": "view",
      "type": "function"
    },
    {
      "constant": true,
      "inputs": [],
      "name": "balanceFulcrumInToken",
      "outputs": [
        {
          "internalType": "uint256",
          "name": "",
          "type": "uint256"
        }
      ],
      "payable": false,
      "stateMutability": "view",
      "type": "function"
    },
    {
      "constant": true,
      "inputs": [],
      "name": "balanceFulcrum",
      "outputs": [
        {
          "internalType": "uint256",
          "name": "",
          "type": "uint256"
        }
      ],
      "payable": false,
      "stateMutability": "view",
      "type": "function"
    },
    {
      "constant": true,
      "inputs": [],
      "name": "balanceAave",
      "outputs": [
        {
          "internalType": "uint256",
          "name": "",
          "type": "uint256"
        }
      ],
      "payable": false,
      "stateMutability": "view",
      "type": "function"
    },
    {
      "constant": false,
      "inputs": [],
      "name": "rebalance",
      "outputs": [],
      "payable": false,
      "stateMutability": "nonpayable",
      "type": "function"
    },
    {
      "constant": false,
      "inputs": [
        {
          "internalType": "uint256",
          "name": "amount",
          "type": "uint256"
        }
      ],
      "name": "supplyAave",
      "outputs": [],
      "payable": false,
      "stateMutability": "nonpayable",
      "type": "function"
    },
    {
      "constant": false,
      "inputs": [
        {
          "internalType": "uint256",
          "name": "amount",
          "type": "uint256"
        }
      ],
      "name": "supplyFulcrum",
      "outputs": [],
      "payable": false,
      "stateMutability": "nonpayable",
      "type": "function"
    },
    {
      "constant": false,
      "inputs": [
        {
          "internalType": "uint256",
          "name": "amount",
          "type": "uint256"
        }
      ],
      "name": "supplyTorque",
      "outputs": [],
      "payable": false,
      "stateMutability": "nonpayable",
      "type": "function"
    },
    {
      "constant": false,
      "inputs": [
        {
          "internalType": "uint256",
          "name": "_amount",
          "type": "uint256"
        }
      ],
      "name": "invest",
      "outputs": [],
      "payable": false,
      "stateMutability": "nonpayable",
      "type": "function"
    },
    {
      "constant": false,
      "inputs": [],
      "name": "investSelf",
      "outputs": [],
      "payable": false,
      "stateMutability": "nonpayable",
      "type": "function"
    },
    {
      "constant": true,
      "inputs": [],
      "name": "calcPoolValueInToken",
      "outputs": [
        {
          "internalType": "uint256",
          "name": "",
          "type": "uint256"
        }
      ],
      "payable": false,
      "stateMutability": "view",
      "type": "function"
    },
    {
      "constant": true,
      "inputs": [],
      "name": "getPricePerFullShare",
      "outputs": [
        {
          "internalType": "uint256",
          "name": "",
          "type": "uint256"
        }
      ],
      "payable": false,
      "stateMutability": "view",
      "type": "function"
    },
    {
      "constant": false,
      "inputs": [
        {
          "internalType": "uint256",
          "name": "_shares",
          "type": "uint256"
        }
      ],
      "name": "redeem",
      "outputs": [],
      "payable": false,
      "stateMutability": "nonpayable",
      "type": "function"
    },
    {
      "constant": false,
      "inputs": [
        {
          "internalType": "contract IERC20",
          "name": "_TokenAddress",
          "type": "address"
        }
      ],
      "name": "inCaseTokenGetsStuck",
      "outputs": [],
      "payable": false,
      "stateMutability": "nonpayable",
      "type": "function"
    },
    {
      "constant": false,
      "inputs": [],
      "name": "inCaseETHGetsStuck",
      "outputs": [],
      "payable": false,
      "stateMutability": "nonpayable",
      "type": "function"
    }
  ],
  "bytecode": "0x60806040526000600f60146101000a81548160ff021916908360038111156200002457fe5b02179055503480156200003657600080fd5b506040518060400160405280600681526020017f784d4154494300000000000000000000000000000000000000000000000000008152506040518060400160405280600681526020017f784d41544943000000000000000000000000000000000000000000000000000081525060068260039080519060200190620000bd929190620003de565b508160049080519060200190620000d6929190620003de565b5080600560006101000a81548160ff021916908360ff16021790555050505060016006819055506200010d620003d660201b60201c565b600760006101000a81548173ffffffffffffffffffffffffffffffffffffffff021916908373ffffffffffffffffffffffffffffffffffffffff160217905550600760009054906101000a900473ffffffffffffffffffffffffffffffffffffffff1673ffffffffffffffffffffffffffffffffffffffff16600073ffffffffffffffffffffffffffffffffffffffff167f8be0079c531659141344cd1fd0a4f28419497f9722a3daafe3b4186f6b6457e060405160405180910390a373dac17f958d2ee523a2206206994597c13d831ec7600960006101000a81548173ffffffffffffffffffffffffffffffffffffffff021916908373ffffffffffffffffffffffffffffffffffffffff16021790555073318135fbd0b40d48fcef431ccdf6c7926450edfb600f60006101000a81548173ffffffffffffffffffffffffffffffffffffffff021916908373ffffffffffffffffffffffffffffffffffffffff1602179055507324a42fd28c976a61df5d00d0599c34c4f90748c8600b60006101000a81548173ffffffffffffffffffffffffffffffffffffffff021916908373ffffffffffffffffffffffffffffffffffffffff16021790555073f013406a0b1d544238083df0b93ad0d2cbe0f65f600a60006101000a81548173ffffffffffffffffffffffffffffffffffffffff021916908373ffffffffffffffffffffffffffffffffffffffff1602179055507371fc860f7d3a592a4a98740e39db31d25db65ae8600d60006101000a81548173ffffffffffffffffffffffffffffffffffffffff021916908373ffffffffffffffffffffffffffffffffffffffff1602179055507339aa39c021dfbae8fac545936693ac917d5e7563600c60006101000a81548173ffffffffffffffffffffffffffffffffffffffff021916908373ffffffffffffffffffffffffffffffffffffffff1602179055506000600e819055506200048d565b600033905090565b828054600181600116156101000203166002900490600052602060002090601f016020900481019282601f106200042157805160ff191683800117855562000452565b8280016001018555821562000452579182015b828111156200045157825182559160200191906001019062000434565b5b50905062000461919062000465565b5090565b6200048a91905b80821115620004865760008160009055506001016200046c565b5090565b90565b615067806200049d6000396000f3fe6080604052600436106102e45760003560e01c8063819faf7b11610190578063b27bb661116100dc578063dd62ed3e11610095578063f60a15ed1161006f578063f60a15ed14610adf578063f7c1ec7714610af6578063f82ce27d14610b21578063fc0c546a14610b4c576102e4565b8063dd62ed3e14610a4e578063f2fde38b14610a8b578063f5a41dea14610ab4576102e4565b8063b27bb66114610952578063b69ef8a81461097b578063bbf31644146109a6578063cf8ca426146109cf578063d9d7858a146109fa578063db006a7514610a25576102e4565b80639ff011b911610149578063a457c2d711610123578063a457c2d714610884578063a46120c3146108c1578063a9059cbb146108ec578063a9de245b14610929576102e4565b80639ff011b914610805578063a160176d1461082e578063a29b6c1214610859576102e4565b8063819faf7b14610717578063831ac5a6146107425780638da5cb5b1461076d5780638f32d59b1461079857806395d89b41146107c357806399b71d5c146107ee576102e4565b80633990ab4f1161024f57806370a082311161020857806377c7b8fc116101e257806377c7b8fc146106835780637d7c2a1c146106ae5780638124955c146106c5578063812adb06146106ee576102e4565b806370a08231146106045780637137ef9914610641578063715018a61461066c576102e4565b80633990ab4f1461051c57806346357473146105335780634f72bb531461055c57806357ded9c91461058557806358782c21146105b057806365aab749146105db576102e4565b806318160ddd116102a157806318160ddd146103fa57806323b872dd146104255780632afcf480146104625780632e8d6e181461048b578063313ce567146104b457806339509351146104df576102e4565b806306a3fe59146102e657806306fdde0314610311578063085d48831461033c578063095ea7b3146103675780630eb2a267146103a457806316f0115b146103cf575b005b3480156102f257600080fd5b506102fb610b77565b604051610308919061490a565b60405180910390f35b34801561031d57600080fd5b50610326610b9d565b6040516103339190614a5f565b60405180910390f35b34801561034857600080fd5b50610351610c3f565b60405161035e9190614a44565b60405180910390f35b34801561037357600080fd5b5061038e60048036036103899190810190613fa6565b610c52565b60405161039b9190614a29565b60405180910390f35b3480156103b057600080fd5b506103b9610c70565b6040516103c69190614d61565b60405180910390f35b3480156103db57600080fd5b506103e4610d22565b6040516103f19190614d61565b60405180910390f35b34801561040657600080fd5b5061040f610d28565b60405161041c9190614d61565b60405180910390f35b34801561043157600080fd5b5061044c60048036036104479190810190613f57565b610d32565b6040516104599190614a29565b60405180910390f35b34801561046e57600080fd5b50610489600480360361048491908101906140af565b610e0b565b005b34801561049757600080fd5b506104b260048036036104ad919081019061400b565b610f77565b005b3480156104c057600080fd5b506104c96110dd565b6040516104d69190614d7c565b60405180910390f35b3480156104eb57600080fd5b5061050660048036036105019190810190613fa6565b6110f4565b6040516105139190614a29565b60405180910390f35b34801561052857600080fd5b506105316111a7565b005b34801561053f57600080fd5b5061055a60048036036105559190810190613ec9565b611356565b005b34801561056857600080fd5b50610583600480360361057e91908101906140af565b6113e1565b005b34801561059157600080fd5b5061059a6114d3565b6040516105a7919061490a565b60405180910390f35b3480156105bc57600080fd5b506105c56114f9565b6040516105d2919061490a565b60405180910390f35b3480156105e757600080fd5b5061060260048036036105fd91908101906140af565b61151f565b005b34801561061057600080fd5b5061062b60048036036106269190810190613ec9565b6115bb565b6040516106389190614d61565b60405180910390f35b34801561064d57600080fd5b50610656611603565b6040516106639190614d61565b60405180910390f35b34801561067857600080fd5b5061068161165d565b005b34801561068f57600080fd5b50610698611765565b6040516106a59190614d61565b60405180910390f35b3480156106ba57600080fd5b506106c36117a7565b005b3480156106d157600080fd5b506106ec60048036036106e791908101906140af565b6118ae565b005b3480156106fa57600080fd5b5061071560048036036107109190810190613ec9565b6119a2565b005b34801561072357600080fd5b5061072c611a2d565b604051610739919061490a565b60405180910390f35b34801561074e57600080fd5b50610757611a53565b6040516107649190614d61565b60405180910390f35b34801561077957600080fd5b50610782611b05565b60405161078f919061490a565b60405180910390f35b3480156107a457600080fd5b506107ad611b2f565b6040516107ba9190614a29565b60405180910390f35b3480156107cf57600080fd5b506107d8611b8e565b6040516107e59190614a5f565b60405180910390f35b3480156107fa57600080fd5b50610803611c30565b005b34801561081157600080fd5b5061082c600480360361082791908101906140af565b611dc4565b005b34801561083a57600080fd5b50610843611e15565b6040516108509190614a44565b60405180910390f35b34801561086557600080fd5b5061086e611f54565b60405161087b919061490a565b60405180910390f35b34801561089057600080fd5b506108ab60048036036108a69190810190613fa6565b611f7a565b6040516108b89190614a29565b60405180910390f35b3480156108cd57600080fd5b506108d6612047565b6040516108e39190614d61565b60405180910390f35b3480156108f857600080fd5b50610913600480360361090e9190810190613fa6565b612133565b6040516109209190614a29565b60405180910390f35b34801561093557600080fd5b50610950600480360361094b9190810190613ec9565b612151565b005b34801561095e57600080fd5b5061097960048036036109749190810190613ec9565b6121dc565b005b34801561098757600080fd5b50610990612267565b60405161099d9190614d61565b60405180910390f35b3480156109b257600080fd5b506109cd60048036036109c89190810190613ec9565b612319565b005b3480156109db57600080fd5b506109e46123a4565b6040516109f19190614d61565b60405180910390f35b348015610a0657600080fd5b50610a0f612456565b604051610a1c9190614d61565b60405180910390f35b348015610a3157600080fd5b50610a4c6004803603610a4791908101906140af565b61245c565b005b348015610a5a57600080fd5b50610a756004803603610a709190810190613f1b565b6127fc565b604051610a829190614d61565b60405180910390f35b348015610a9757600080fd5b50610ab26004803603610aad9190810190613ec9565b612883565b005b348015610ac057600080fd5b50610ac96128d6565b604051610ad69190614d61565b60405180910390f35b348015610aeb57600080fd5b50610af46129a1565b005b348015610b0257600080fd5b50610b0b612a97565b604051610b18919061490a565b60405180910390f35b348015610b2d57600080fd5b50610b36612b3e565b604051610b43919061490a565b60405180910390f35b348015610b5857600080fd5b50610b61612be5565b604051610b6e919061490a565b60405180910390f35b600d60009054906101000a900473ffffffffffffffffffffffffffffffffffffffff1681565b606060038054600181600116156101000203166002900480601f016020809104026020016040519081016040528092919081815260200182805460018160011615610100020316600290048015610c355780601f10610c0a57610100808354040283529160200191610c35565b820191906000526020600020905b815481529060010190602001808311610c1857829003601f168201915b5050505050905090565b600f60149054906101000a900460ff1681565b6000610c66610c5f612c0b565b8484612c13565b6001905092915050565b6000600a60009054906101000a900473ffffffffffffffffffffffffffffffffffffffff1673ffffffffffffffffffffffffffffffffffffffff166370a08231306040518263ffffffff1660e01b8152600401610ccd9190614925565b60206040518083038186803b158015610ce557600080fd5b505afa158015610cf9573d6000803e3d6000fd5b505050506040513d601f19601f82011682018060405250610d1d91908101906140d8565b905090565b60085481565b6000600254905090565b6000610d3f848484612dde565b610e0084610d4b612c0b565b610dfb85604051806060016040528060288152602001614fd860289139600160008b73ffffffffffffffffffffffffffffffffffffffff1673ffffffffffffffffffffffffffffffffffffffff1681526020019081526020016000206000610db1612c0b565b73ffffffffffffffffffffffffffffffffffffffff1673ffffffffffffffffffffffffffffffffffffffff168152602001908152602001600020546130689092919063ffffffff16565b612c13565b600190509392505050565b60016006600082825401925050819055506000600654905060008211610e66576040517f08c379a0000000000000000000000000000000000000000000000000000000008152600401610e5d90614c61565b60405180910390fd5b610e6e611603565b600881905550610ec3333084600960009054906101000a900473ffffffffffffffffffffffffffffffffffffffff1673ffffffffffffffffffffffffffffffffffffffff166130c3909392919063ffffffff16565b610ecb6117a7565b600080905060006008541415610eea5782905082600881905550610f16565b610f13600854610f056002548661316590919063ffffffff16565b6131d590919063ffffffff16565b90505b610f1e611603565b600881905550610f2e338261321f565b506006548114610f73576040517f08c379a0000000000000000000000000000000000000000000000000000000008152600401610f6a90614cc1565b60405180910390fd5b5050565b610f7f611b2f565b610fbe576040517f08c379a0000000000000000000000000000000000000000000000000000000008152600401610fb590614ba1565b60405180910390fd5b60008173ffffffffffffffffffffffffffffffffffffffff166370a08231306040518263ffffffff1660e01b8152600401610ff99190614925565b60206040518083038186803b15801561101157600080fd5b505afa158015611025573d6000803e3d6000fd5b505050506040513d601f19601f8201168201806040525061104991908101906140d8565b90508173ffffffffffffffffffffffffffffffffffffffff1663a9059cbb33836040518363ffffffff1660e01b8152600401611086929190614940565b602060405180830381600087803b1580156110a057600080fd5b505af11580156110b4573d6000803e3d6000fd5b505050506040513d601f19601f820116820180604052506110d89190810190613fe2565b505050565b6000600560009054906101000a900460ff16905090565b600061119d611101612c0b565b846111988560016000611112612c0b565b73ffffffffffffffffffffffffffffffffffffffff1673ffffffffffffffffffffffffffffffffffffffff16815260200190815260200160002060008973ffffffffffffffffffffffffffffffffffffffff1673ffffffffffffffffffffffffffffffffffffffff168152602001908152602001600020546133a790919063ffffffff16565b612c13565b6001905092915050565b6001600660008282540192505081905550600060065490506111c7611b2f565b611206576040517f08c379a00000000000000000000000000000000000000000000000000000000081526004016111fd90614ba1565b60405180910390fd5b6000600960009054906101000a900473ffffffffffffffffffffffffffffffffffffffff1673ffffffffffffffffffffffffffffffffffffffff166370a08231306040518263ffffffff1660e01b81526004016112639190614925565b60206040518083038186803b15801561127b57600080fd5b505afa15801561128f573d6000803e3d6000fd5b505050506040513d601f19601f820116820180604052506112b391908101906140d8565b9050600081116112f8576040517f08c379a00000000000000000000000000000000000000000000000000000000081526004016112ef90614c61565b60405180910390fd5b6113006117a7565b611308611603565b600881905550506006548114611353576040517f08c379a000000000000000000000000000000000000000000000000000000000815260040161134a90614cc1565b60405180910390fd5b50565b61135e611b2f565b61139d576040517f08c379a000000000000000000000000000000000000000000000000000000000815260040161139490614ba1565b60405180910390fd5b80600f60006101000a81548173ffffffffffffffffffffffffffffffffffffffff021916908373ffffffffffffffffffffffffffffffffffffffff16021790555050565b6000600c60009054906101000a900473ffffffffffffffffffffffffffffffffffffffff1673ffffffffffffffffffffffffffffffffffffffff1663a0712d68836040518263ffffffff1660e01b815260040161143e9190614d61565b602060405180830381600087803b15801561145857600080fd5b505af115801561146c573d6000803e3d6000fd5b505050506040513d601f19601f8201168201806040525061149091908101906140d8565b146114d0576040517f08c379a00000000000000000000000000000000000000000000000000000000081526004016114c790614d01565b60405180910390fd5b50565b600f60009054906101000a900473ffffffffffffffffffffffffffffffffffffffff1681565b600a60009054906101000a900473ffffffffffffffffffffffffffffffffffffffff1681565b611527612a97565b73ffffffffffffffffffffffffffffffffffffffff1663d2d0e066600960009054906101000a900473ffffffffffffffffffffffffffffffffffffffff168360006040518463ffffffff1660e01b8152600401611586939291906149f2565b600060405180830381600087803b1580156115a057600080fd5b505af11580156115b4573d6000803e3d6000fd5b5050505050565b60008060008373ffffffffffffffffffffffffffffffffffffffff1673ffffffffffffffffffffffffffffffffffffffff168152602001908152602001600020549050919050565b6000611658611610612267565b61164a61161b6123a4565b61163c6116266128d6565b61162e612047565b6133a790919063ffffffff16565b6133a790919063ffffffff16565b6133a790919063ffffffff16565b905090565b611665611b2f565b6116a4576040517f08c379a000000000000000000000000000000000000000000000000000000000815260040161169b90614ba1565b60405180910390fd5b600073ffffffffffffffffffffffffffffffffffffffff16600760009054906101000a900473ffffffffffffffffffffffffffffffffffffffff1673ffffffffffffffffffffffffffffffffffffffff167f8be0079c531659141344cd1fd0a4f28419497f9722a3daafe3b4186f6b6457e060405160405180910390a36000600760006101000a81548173ffffffffffffffffffffffffffffffffffffffff021916908373ffffffffffffffffffffffffffffffffffffffff160217905550565b600080611770611603565b90506117a1600254611793670de0b6b3a76400008461316590919063ffffffff16565b6131d590919063ffffffff16565b91505090565b60006117b1611e15565b9050600f60149054906101000a900460ff1660038111156117ce57fe5b8160038111156117da57fe5b146117e8576117e76133fc565b5b60006117f2612267565b11156118885760038081111561180457fe5b81600381111561181057fe5b141561182757611826611821612267565b6118ae565b5b6001600381111561183457fe5b81600381111561184057fe5b141561185757611856611851612267565b6113e1565b5b6002600381111561186457fe5b81600381111561187057fe5b141561188757611886611881612267565b61151f565b5b5b80600f60146101000a81548160ff021916908360038111156118a657fe5b021790555050565b6000600a60009054906101000a900473ffffffffffffffffffffffffffffffffffffffff1673ffffffffffffffffffffffffffffffffffffffff166340c10f1930846040518363ffffffff1660e01b815260040161190d929190614940565b602060405180830381600087803b15801561192757600080fd5b505af115801561193b573d6000803e3d6000fd5b505050506040513d601f19601f8201168201806040525061195f91908101906140d8565b1161199f576040517f08c379a000000000000000000000000000000000000000000000000000000000815260040161199690614c81565b60405180910390fd5b50565b6119aa611b2f565b6119e9576040517f08c379a00000000000000000000000000000000000000000000000000000000081526004016119e090614ba1565b60405180910390fd5b80600b60006101000a81548173ffffffffffffffffffffffffffffffffffffffff021916908373ffffffffffffffffffffffffffffffffffffffff16021790555050565b600b60009054906101000a900473ffffffffffffffffffffffffffffffffffffffff1681565b6000600c60009054906101000a900473ffffffffffffffffffffffffffffffffffffffff1673ffffffffffffffffffffffffffffffffffffffff166370a08231306040518263ffffffff1660e01b8152600401611ab09190614925565b60206040518083038186803b158015611ac857600080fd5b505afa158015611adc573d6000803e3d6000fd5b505050506040513d601f19601f82011682018060405250611b0091908101906140d8565b905090565b6000600760009054906101000a900473ffffffffffffffffffffffffffffffffffffffff16905090565b6000600760009054906101000a900473ffffffffffffffffffffffffffffffffffffffff1673ffffffffffffffffffffffffffffffffffffffff16611b72612c0b565b73ffffffffffffffffffffffffffffffffffffffff1614905090565b606060048054600181600116156101000203166002900480601f016020809104026020016040519081016040528092919081815260200182805460018160011615610100020316600290048015611c265780601f10611bfb57610100808354040283529160200191611c26565b820191906000526020600020905b815481529060010190602001808311611c0957829003601f168201915b5050505050905090565b611cbf600c60009054906101000a900473ffffffffffffffffffffffffffffffffffffffff167fffffffffffffffffffffffffffffffffffffffffffffffffffffffffffffffff600960009054906101000a900473ffffffffffffffffffffffffffffffffffffffff1673ffffffffffffffffffffffffffffffffffffffff166134589092919063ffffffff16565b611d33611cca612b3e565b7fffffffffffffffffffffffffffffffffffffffffffffffffffffffffffffffff600960009054906101000a900473ffffffffffffffffffffffffffffffffffffffff1673ffffffffffffffffffffffffffffffffffffffff166134589092919063ffffffff16565b611dc2600a60009054906101000a900473ffffffffffffffffffffffffffffffffffffffff167fffffffffffffffffffffffffffffffffffffffffffffffffffffffffffffffff600960009054906101000a900473ffffffffffffffffffffffffffffffffffffffff1673ffffffffffffffffffffffffffffffffffffffff166134589092919063ffffffff16565b565b611dcc611b2f565b611e0b576040517f08c379a0000000000000000000000000000000000000000000000000000000008152600401611e0290614ba1565b60405180910390fd5b80600e8190555050565b600080600080600f60009054906101000a900473ffffffffffffffffffffffffffffffffffffffff1673ffffffffffffffffffffffffffffffffffffffff1663d88be3c0600960009054906101000a900473ffffffffffffffffffffffffffffffffffffffff166040518263ffffffff1660e01b8152600401611e98919061490a565b60006040518083038186803b158015611eb057600080fd5b505afa158015611ec4573d6000803e3d6000fd5b505050506040513d6000823e3d601f19601f82011682018060405250611eed9190810190614034565b93509350935050600080905080841115611f05578390505b80831115611f11578290505b80821115611f1d578190505b600080905082821415611f2f57600190505b83821415611f3c57600290505b84821415611f4957600390505b809550505050505090565b600c60009054906101000a900473ffffffffffffffffffffffffffffffffffffffff1681565b600061203d611f87612c0b565b84612038856040518060600160405280602581526020016150006025913960016000611fb1612c0b565b73ffffffffffffffffffffffffffffffffffffffff1673ffffffffffffffffffffffffffffffffffffffff16815260200190815260200160002060008a73ffffffffffffffffffffffffffffffffffffffff1673ffffffffffffffffffffffffffffffffffffffff168152602001908152602001600020546130689092919063ffffffff16565b612c13565b6001905092915050565b600080612052611a53565b9050600081111561212c57612129670de0b6b3a764000061211b600c60009054906101000a900473ffffffffffffffffffffffffffffffffffffffff1673ffffffffffffffffffffffffffffffffffffffff1663182df0f56040518163ffffffff1660e01b815260040160206040518083038186803b1580156120d457600080fd5b505afa1580156120e8573d6000803e3d6000fd5b505050506040513d601f19601f8201168201806040525061210c91908101906140d8565b8461316590919063ffffffff16565b6131d590919063ffffffff16565b90505b8091505090565b6000612147612140612c0b565b8484612dde565b6001905092915050565b612159611b2f565b612198576040517f08c379a000000000000000000000000000000000000000000000000000000000815260040161218f90614ba1565b60405180910390fd5b80600d60006101000a81548173ffffffffffffffffffffffffffffffffffffffff021916908373ffffffffffffffffffffffffffffffffffffffff16021790555050565b6121e4611b2f565b612223576040517f08c379a000000000000000000000000000000000000000000000000000000000815260040161221a90614ba1565b60405180910390fd5b80600c60006101000a81548173ffffffffffffffffffffffffffffffffffffffff021916908373ffffffffffffffffffffffffffffffffffffffff16021790555050565b6000600960009054906101000a900473ffffffffffffffffffffffffffffffffffffffff1673ffffffffffffffffffffffffffffffffffffffff166370a08231306040518263ffffffff1660e01b81526004016122c49190614925565b60206040518083038186803b1580156122dc57600080fd5b505afa1580156122f0573d6000803e3d6000fd5b505050506040513d601f19601f8201168201806040525061231491908101906140d8565b905090565b612321611b2f565b612360576040517f08c379a000000000000000000000000000000000000000000000000000000000815260040161235790614ba1565b60405180910390fd5b80600a60006101000a81548173ffffffffffffffffffffffffffffffffffffffff021916908373ffffffffffffffffffffffffffffffffffffffff16021790555050565b6000600d60009054906101000a900473ffffffffffffffffffffffffffffffffffffffff1673ffffffffffffffffffffffffffffffffffffffff166370a08231306040518263ffffffff1660e01b81526004016124019190614925565b60206040518083038186803b15801561241957600080fd5b505afa15801561242d573d6000803e3d6000fd5b505050506040513d601f19601f8201168201806040525061245191908101906140d8565b905090565b600e5481565b600160066000828254019250508190555060006006549050600082116124b7576040517f08c379a00000000000000000000000000000000000000000000000000000000081526004016124ae90614be1565b60405180910390fd5b60006124c2336115bb565b905080831115612507576040517f08c379a00000000000000000000000000000000000000000000000000000000081526004016124fe90614bc1565b60405180910390fd5b61250f611603565b60088190555060006125406002546125328660085461316590919063ffffffff16565b6131d590919063ffffffff16565b90506125ca846040518060400160405280601d81526020017f72656465656d20616d6f756e7420657863656564732062616c616e63650000008152506000803373ffffffffffffffffffffffffffffffffffffffff1673ffffffffffffffffffffffffffffffffffffffff168152602001908152602001600020546130689092919063ffffffff16565b6000803373ffffffffffffffffffffffffffffffffffffffff1673ffffffffffffffffffffffffffffffffffffffff16815260200190815260200160002081905550612621846002546135cf90919063ffffffff16565b600281905550600073ffffffffffffffffffffffffffffffffffffffff163373ffffffffffffffffffffffffffffffffffffffff167fddf252ad1be2c89b69c2b068fc378daa952ba7f163c4a11628f55a4df523b3ef866040516126859190614d61565b60405180910390a36000600960009054906101000a900473ffffffffffffffffffffffffffffffffffffffff1673ffffffffffffffffffffffffffffffffffffffff166370a08231306040518263ffffffff1660e01b81526004016126ea9190614925565b60206040518083038186803b15801561270257600080fd5b505afa158015612716573d6000803e3d6000fd5b505050506040513d601f19601f8201168201806040525061273a91908101906140d8565b90508181101561274e5761274d82613619565b5b61279b3383600960009054906101000a900473ffffffffffffffffffffffffffffffffffffffff1673ffffffffffffffffffffffffffffffffffffffff166137949092919063ffffffff16565b6127a36117a7565b6127ab611603565b60088190555050505060065481146127f8576040517f08c379a00000000000000000000000000000000000000000000000000000000081526004016127ef90614cc1565b60405180910390fd5b5050565b6000600160008473ffffffffffffffffffffffffffffffffffffffff1673ffffffffffffffffffffffffffffffffffffffff16815260200190815260200160002060008373ffffffffffffffffffffffffffffffffffffffff1673ffffffffffffffffffffffffffffffffffffffff16815260200190815260200160002054905092915050565b61288b611b2f565b6128ca576040517f08c379a00000000000000000000000000000000000000000000000000000000081526004016128c190614ba1565b60405180910390fd5b6128d381613833565b50565b6000806128e1610c70565b9050600081111561299a57600a60009054906101000a900473ffffffffffffffffffffffffffffffffffffffff1673ffffffffffffffffffffffffffffffffffffffff166306b3efd6306040518263ffffffff1660e01b81526004016129479190614925565b60206040518083038186803b15801561295f57600080fd5b505afa158015612973573d6000803e3d6000fd5b505050506040513d601f19601f8201168201806040525061299791908101906140d8565b90505b8091505090565b6129a9611b2f565b6129e8576040517f08c379a00000000000000000000000000000000000000000000000000000000081526004016129df90614ba1565b60405180910390fd5b60003373ffffffffffffffffffffffffffffffffffffffff1647604051612a0e906148f5565b60006040518083038185875af1925050503d8060008114612a4b576040519150601f19603f3d011682016040523d82523d6000602084013e612a50565b606091505b5050905080612a94576040517f08c379a0000000000000000000000000000000000000000000000000000000008152600401612a8b90614b41565b60405180910390fd5b50565b6000600b60009054906101000a900473ffffffffffffffffffffffffffffffffffffffff1673ffffffffffffffffffffffffffffffffffffffff16630261bf8b6040518163ffffffff1660e01b815260040160206040518083038186803b158015612b0157600080fd5b505afa158015612b15573d6000803e3d6000fd5b505050506040513d601f19601f82011682018060405250612b399190810190613ef2565b905090565b6000600b60009054906101000a900473ffffffffffffffffffffffffffffffffffffffff1673ffffffffffffffffffffffffffffffffffffffff1663ed6ff7606040518163ffffffff1660e01b815260040160206040518083038186803b158015612ba857600080fd5b505afa158015612bbc573d6000803e3d6000fd5b505050506040513d601f19601f82011682018060405250612be09190810190613ef2565b905090565b600960009054906101000a900473ffffffffffffffffffffffffffffffffffffffff1681565b600033905090565b600073ffffffffffffffffffffffffffffffffffffffff168373ffffffffffffffffffffffffffffffffffffffff161415612c83576040517f08c379a0000000000000000000000000000000000000000000000000000000008152600401612c7a90614c41565b60405180910390fd5b600073ffffffffffffffffffffffffffffffffffffffff168273ffffffffffffffffffffffffffffffffffffffff161415612cf3576040517f08c379a0000000000000000000000000000000000000000000000000000000008152600401612cea90614ac1565b60405180910390fd5b80600160008573ffffffffffffffffffffffffffffffffffffffff1673ffffffffffffffffffffffffffffffffffffffff16815260200190815260200160002060008473ffffffffffffffffffffffffffffffffffffffff1673ffffffffffffffffffffffffffffffffffffffff168152602001908152602001600020819055508173ffffffffffffffffffffffffffffffffffffffff168373ffffffffffffffffffffffffffffffffffffffff167f8c5be1e5ebec7d5bd14f71427d1e84f3dd0314c0f7b2291e5b200ac8c7c3b92583604051612dd19190614d61565b60405180910390a3505050565b600073ffffffffffffffffffffffffffffffffffffffff168373ffffffffffffffffffffffffffffffffffffffff161415612e4e576040517f08c379a0000000000000000000000000000000000000000000000000000000008152600401612e4590614c01565b60405180910390fd5b600073ffffffffffffffffffffffffffffffffffffffff168273ffffffffffffffffffffffffffffffffffffffff161415612ebe576040517f08c379a0000000000000000000000000000000000000000000000000000000008152600401612eb590614a81565b60405180910390fd5b612f2981604051806060016040528060268152602001614fb2602691396000808773ffffffffffffffffffffffffffffffffffffffff1673ffffffffffffffffffffffffffffffffffffffff168152602001908152602001600020546130689092919063ffffffff16565b6000808573ffffffffffffffffffffffffffffffffffffffff1673ffffffffffffffffffffffffffffffffffffffff16815260200190815260200160002081905550612fbc816000808573ffffffffffffffffffffffffffffffffffffffff1673ffffffffffffffffffffffffffffffffffffffff168152602001908152602001600020546133a790919063ffffffff16565b6000808473ffffffffffffffffffffffffffffffffffffffff1673ffffffffffffffffffffffffffffffffffffffff168152602001908152602001600020819055508173ffffffffffffffffffffffffffffffffffffffff168373ffffffffffffffffffffffffffffffffffffffff167fddf252ad1be2c89b69c2b068fc378daa952ba7f163c4a11628f55a4df523b3ef8360405161305b9190614d61565b60405180910390a3505050565b60008383111582906130b0576040517f08c379a00000000000000000000000000000000000000000000000000000000081526004016130a79190614a5f565b60405180910390fd5b5060008385039050809150509392505050565b61315f848573ffffffffffffffffffffffffffffffffffffffff166323b872dd905060e01b8585856040516024016130fd93929190614992565b604051602081830303815290604052907bffffffffffffffffffffffffffffffffffffffffffffffffffffffff19166020820180517bffffffffffffffffffffffffffffffffffffffffffffffffffffffff8381831617835250505050613963565b50505050565b60008083141561317857600090506131cf565b600082840290508284828161318957fe5b04146131ca576040517f08c379a00000000000000000000000000000000000000000000000000000000081526004016131c190614b61565b60405180910390fd5b809150505b92915050565b600061321783836040518060400160405280601a81526020017f536166654d6174683a206469766973696f6e206279207a65726f000000000000815250613ad5565b905092915050565b600073ffffffffffffffffffffffffffffffffffffffff168273ffffffffffffffffffffffffffffffffffffffff16141561328f576040517f08c379a000000000000000000000000000000000000000000000000000000000815260040161328690614d41565b60405180910390fd5b6132a4816002546133a790919063ffffffff16565b6002819055506132fb816000808573ffffffffffffffffffffffffffffffffffffffff1673ffffffffffffffffffffffffffffffffffffffff168152602001908152602001600020546133a790919063ffffffff16565b6000808473ffffffffffffffffffffffffffffffffffffffff1673ffffffffffffffffffffffffffffffffffffffff168152602001908152602001600020819055508173ffffffffffffffffffffffffffffffffffffffff16600073ffffffffffffffffffffffffffffffffffffffff167fddf252ad1be2c89b69c2b068fc378daa952ba7f163c4a11628f55a4df523b3ef8360405161339b9190614d61565b60405180910390a35050565b6000808284019050838110156133f2576040517f08c379a00000000000000000000000000000000000000000000000000000000081526004016133e990614ae1565b60405180910390fd5b8091505092915050565b6000613406611a53565b9050600081111561341b5761341a81613b36565b5b613423610c70565b905060008111156134385761343781613c28565b5b6134406123a4565b905060008111156134555761345481613d1c565b5b50565b60008114806134f1575060008373ffffffffffffffffffffffffffffffffffffffff1663dd62ed3e30856040518363ffffffff1660e01b815260040161349f929190614969565b60206040518083038186803b1580156134b757600080fd5b505afa1580156134cb573d6000803e3d6000fd5b505050506040513d601f19601f820116820180604052506134ef91908101906140d8565b145b613530576040517f08c379a000000000000000000000000000000000000000000000000000000000815260040161352790614ce1565b60405180910390fd5b6135ca838473ffffffffffffffffffffffffffffffffffffffff1663095ea7b3905060e01b84846040516024016135689291906149c9565b604051602081830303815290604052907bffffffffffffffffffffffffffffffffffffffffffffffffffffffff19166020820180517bffffffffffffffffffffffffffffffffffffffffffffffffffffffff8381831617835250505050613963565b505050565b600061361183836040518060400160405280601e81526020017f536166654d6174683a207375627472616374696f6e206f766572666c6f770000815250613068565b905092915050565b6001600381111561362657fe5b600f60149054906101000a900460ff16600381111561364157fe5b14156136d8576000613651611a53565b9050600061365d612047565b9050828110156136a2576040517f08c379a000000000000000000000000000000000000000000000000000000000815260040161369990614c21565b60405180910390fd5b60006136c9826136bb868661316590919063ffffffff16565b6131d590919063ffffffff16565b90506136d481613b36565b5050505b600260038111156136e557fe5b600f60149054906101000a900460ff16600381111561370057fe5b141561375a578061370f6123a4565b1015613750576040517f08c379a000000000000000000000000000000000000000000000000000000000815260040161374790614c21565b60405180910390fd5b61375981613d1c565b5b60038081111561376657fe5b600f60149054906101000a900460ff16600381111561378157fe5b14156137915761379081613c28565b5b50565b61382e838473ffffffffffffffffffffffffffffffffffffffff1663a9059cbb905060e01b84846040516024016137cc9291906149c9565b604051602081830303815290604052907bffffffffffffffffffffffffffffffffffffffffffffffffffffffff19166020820180517bffffffffffffffffffffffffffffffffffffffffffffffffffffffff8381831617835250505050613963565b505050565b600073ffffffffffffffffffffffffffffffffffffffff168173ffffffffffffffffffffffffffffffffffffffff1614156138a3576040517f08c379a000000000000000000000000000000000000000000000000000000000815260040161389a90614aa1565b60405180910390fd5b8073ffffffffffffffffffffffffffffffffffffffff16600760009054906101000a900473ffffffffffffffffffffffffffffffffffffffff1673ffffffffffffffffffffffffffffffffffffffff167f8be0079c531659141344cd1fd0a4f28419497f9722a3daafe3b4186f6b6457e060405160405180910390a380600760006101000a81548173ffffffffffffffffffffffffffffffffffffffff021916908373ffffffffffffffffffffffffffffffffffffffff16021790555050565b6139828273ffffffffffffffffffffffffffffffffffffffff16613dac565b6139c1576040517f08c379a00000000000000000000000000000000000000000000000000000000081526004016139b890614d21565b60405180910390fd5b600060608373ffffffffffffffffffffffffffffffffffffffff16836040516139ea91906148de565b6000604051808303816000865af19150503d8060008114613a27576040519150601f19603f3d011682016040523d82523d6000602084013e613a2c565b606091505b509150915081613a71576040517f08c379a0000000000000000000000000000000000000000000000000000000008152600401613a6890614b21565b60405180910390fd5b600081511115613acf5780806020019051613a8f9190810190613fe2565b613ace576040517f08c379a0000000000000000000000000000000000000000000000000000000008152600401613ac590614ca1565b60405180910390fd5b5b50505050565b60008083118290613b1c576040517f08c379a0000000000000000000000000000000000000000000000000000000008152600401613b139190614a5f565b60405180910390fd5b506000838581613b2857fe5b049050809150509392505050565b6000600c60009054906101000a900473ffffffffffffffffffffffffffffffffffffffff1673ffffffffffffffffffffffffffffffffffffffff1663db006a75836040518263ffffffff1660e01b8152600401613b939190614d61565b602060405180830381600087803b158015613bad57600080fd5b505af1158015613bc1573d6000803e3d6000fd5b505050506040513d601f19601f82011682018060405250613be591908101906140d8565b14613c25576040517f08c379a0000000000000000000000000000000000000000000000000000000008152600401613c1c90614b01565b60405180910390fd5b50565b6000600a60009054906101000a900473ffffffffffffffffffffffffffffffffffffffff1673ffffffffffffffffffffffffffffffffffffffff16639dc29fac30846040518363ffffffff1660e01b8152600401613c87929190614940565b602060405180830381600087803b158015613ca157600080fd5b505af1158015613cb5573d6000803e3d6000fd5b505050506040513d601f19601f82011682018060405250613cd991908101906140d8565b11613d19576040517f08c379a0000000000000000000000000000000000000000000000000000000008152600401613d1090614b81565b60405180910390fd5b50565b600d60009054906101000a900473ffffffffffffffffffffffffffffffffffffffff1673ffffffffffffffffffffffffffffffffffffffff1663db006a75826040518263ffffffff1660e01b8152600401613d779190614d61565b600060405180830381600087803b158015613d9157600080fd5b505af1158015613da5573d6000803e3d6000fd5b5050505050565b60008060007fc5d2460186f7233c927e7db2dcc703c0e500b653ca82273b7bfad8045d85a47060001b9050833f91506000801b8214158015613dee5750808214155b92505050919050565b600081359050613e0681614f55565b92915050565b600081519050613e1b81614f55565b92915050565b600081519050613e3081614f6c565b92915050565b600081359050613e4581614f83565b92915050565b600082601f830112613e5c57600080fd5b8151613e6f613e6a82614dc4565b614d97565b91508082526020830160208301858383011115613e8b57600080fd5b613e96838284614f04565b50505092915050565b600081359050613eae81614f9a565b92915050565b600081519050613ec381614f9a565b92915050565b600060208284031215613edb57600080fd5b6000613ee984828501613df7565b91505092915050565b600060208284031215613f0457600080fd5b6000613f1284828501613e0c565b91505092915050565b60008060408385031215613f2e57600080fd5b6000613f3c85828601613df7565b9250506020613f4d85828601613df7565b9150509250929050565b600080600060608486031215613f6c57600080fd5b6000613f7a86828701613df7565b9350506020613f8b86828701613df7565b9250506040613f9c86828701613e9f565b9150509250925092565b60008060408385031215613fb957600080fd5b6000613fc785828601613df7565b9250506020613fd885828601613e9f565b9150509250929050565b600060208284031215613ff457600080fd5b600061400284828501613e21565b91505092915050565b60006020828403121561401d57600080fd5b600061402b84828501613e36565b91505092915050565b6000806000806080858703121561404a57600080fd5b600085015167ffffffffffffffff81111561406457600080fd5b61407087828801613e4b565b945050602061408187828801613eb4565b935050604061409287828801613eb4565b92505060606140a387828801613eb4565b91505092959194509250565b6000602082840312156140c157600080fd5b60006140cf84828501613e9f565b91505092915050565b6000602082840312156140ea57600080fd5b60006140f884828501613eb4565b91505092915050565b61410a81614eaa565b82525050565b61411981614e22565b82525050565b61412881614e34565b82525050565b600061413982614df0565b6141438185614e06565b9350614153818560208601614f04565b80840191505092915050565b61416881614ebc565b82525050565b61417781614ece565b82525050565b600061418882614dfb565b6141928185614e11565b93506141a2818560208601614f04565b6141ab81614f37565b840191505092915050565b60006141c3602383614e11565b91507f45524332303a207472616e7366657220746f20746865207a65726f206164647260008301527f65737300000000000000000000000000000000000000000000000000000000006020830152604082019050919050565b6000614229602683614e11565b91507f4f776e61626c653a206e6577206f776e657220697320746865207a65726f206160008301527f64647265737300000000000000000000000000000000000000000000000000006020830152604082019050919050565b600061428f602283614e11565b91507f45524332303a20617070726f766520746f20746865207a65726f20616464726560008301527f73730000000000000000000000000000000000000000000000000000000000006020830152604082019050919050565b60006142f5601b83614e11565b91507f536166654d6174683a206164646974696f6e206f766572666c6f7700000000006000830152602082019050919050565b6000614335601783614e11565b91507f544f525155453a207769746864726177206661696c65640000000000000000006000830152602082019050919050565b6000614375602083614e11565b91507f5361666545524332303a206c6f772d6c6576656c2063616c6c206661696c65646000830152602082019050919050565b60006143b5601683614e11565b91507f7472616e73666572206f6620455448206661696c6564000000000000000000006000830152602082019050919050565b60006143f5602183614e11565b91507f536166654d6174683a206d756c7469706c69636174696f6e206f766572666c6f60008301527f77000000000000000000000000000000000000000000000000000000000000006020830152604082019050919050565b600061445b601883614e11565b91507f46554c4352554d3a207769746864726177206661696c656400000000000000006000830152602082019050919050565b600061449b602083614e11565b91507f4f776e61626c653a2063616c6c6572206973206e6f7420746865206f776e65726000830152602082019050919050565b60006144db601483614e11565b91507f696e73756666696369656e742062616c616e63650000000000000000000000006000830152602082019050919050565b600061451b601f83614e11565b91507f7769746864726177206d7573742062652067726561746572207468616e2030006000830152602082019050919050565b600061455b602583614e11565b91507f45524332303a207472616e736665722066726f6d20746865207a65726f20616460008301527f64726573730000000000000000000000000000000000000000000000000000006020830152604082019050919050565b60006145c1600083614e06565b9150600082019050919050565b60006145db601283614e11565b91507f696e73756666696369656e742066756e647300000000000000000000000000006000830152602082019050919050565b600061461b602483614e11565b91507f45524332303a20617070726f76652066726f6d20746865207a65726f2061646460008301527f72657373000000000000000000000000000000000000000000000000000000006020830152604082019050919050565b6000614681601e83614e11565b91507f6465706f736974206d7573742062652067726561746572207468616e203000006000830152602082019050919050565b60006146c1601683614e11565b91507f46554c4352554d3a20737570706c79206661696c6564000000000000000000006000830152602082019050919050565b6000614701602a83614e11565b91507f5361666545524332303a204552433230206f7065726174696f6e20646964206e60008301527f6f742073756363656564000000000000000000000000000000000000000000006020830152604082019050919050565b6000614767601f83614e11565b91507f5265656e7472616e637947756172643a207265656e7472616e742063616c6c006000830152602082019050919050565b60006147a7603683614e11565b91507f5361666545524332303a20617070726f76652066726f6d206e6f6e2d7a65726f60008301527f20746f206e6f6e2d7a65726f20616c6c6f77616e6365000000000000000000006020830152604082019050919050565b600061480d601583614e11565b91507f544f525155453a20737570706c79206661696c656400000000000000000000006000830152602082019050919050565b600061484d601f83614e11565b91507f5361666545524332303a2063616c6c20746f206e6f6e2d636f6e7472616374006000830152602082019050919050565b600061488d601f83614e11565b91507f45524332303a206d696e7420746f20746865207a65726f2061646472657373006000830152602082019050919050565b6148c981614e93565b82525050565b6148d881614e9d565b82525050565b60006148ea828461412e565b915081905092915050565b6000614900826145b4565b9150819050919050565b600060208201905061491f6000830184614110565b92915050565b600060208201905061493a6000830184614101565b92915050565b60006040820190506149556000830185614101565b61496260208301846148c0565b9392505050565b600060408201905061497e6000830185614110565b61498b6020830184614110565b9392505050565b60006060820190506149a76000830186614110565b6149b46020830185614110565b6149c160408301846148c0565b949350505050565b60006040820190506149de6000830185614110565b6149eb60208301846148c0565b9392505050565b6000606082019050614a076000830186614110565b614a1460208301856148c0565b614a21604083018461416e565b949350505050565b6000602082019050614a3e600083018461411f565b92915050565b6000602082019050614a59600083018461415f565b92915050565b60006020820190508181036000830152614a79818461417d565b905092915050565b60006020820190508181036000830152614a9a816141b6565b9050919050565b60006020820190508181036000830152614aba8161421c565b9050919050565b60006020820190508181036000830152614ada81614282565b9050919050565b60006020820190508181036000830152614afa816142e8565b9050919050565b60006020820190508181036000830152614b1a81614328565b9050919050565b60006020820190508181036000830152614b3a81614368565b9050919050565b60006020820190508181036000830152614b5a816143a8565b9050919050565b60006020820190508181036000830152614b7a816143e8565b9050919050565b60006020820190508181036000830152614b9a8161444e565b9050919050565b60006020820190508181036000830152614bba8161448e565b9050919050565b60006020820190508181036000830152614bda816144ce565b9050919050565b60006020820190508181036000830152614bfa8161450e565b9050919050565b60006020820190508181036000830152614c1a8161454e565b9050919050565b60006020820190508181036000830152614c3a816145ce565b9050919050565b60006020820190508181036000830152614c5a8161460e565b9050919050565b60006020820190508181036000830152614c7a81614674565b9050919050565b60006020820190508181036000830152614c9a816146b4565b9050919050565b60006020820190508181036000830152614cba816146f4565b9050919050565b60006020820190508181036000830152614cda8161475a565b9050919050565b60006020820190508181036000830152614cfa8161479a565b9050919050565b60006020820190508181036000830152614d1a81614800565b9050919050565b60006020820190508181036000830152614d3a81614840565b9050919050565b60006020820190508181036000830152614d5a81614880565b9050919050565b6000602082019050614d7660008301846148c0565b92915050565b6000602082019050614d9160008301846148cf565b92915050565b6000604051905081810181811067ffffffffffffffff82111715614dba57600080fd5b8060405250919050565b600067ffffffffffffffff821115614ddb57600080fd5b601f19601f8301169050602081019050919050565b600081519050919050565b600081519050919050565b600081905092915050565b600082825260208201905092915050565b6000614e2d82614e73565b9050919050565b60008115159050919050565b6000614e4b82614e22565b9050919050565b6000819050614e6082614f48565b919050565b600061ffff82169050919050565b600073ffffffffffffffffffffffffffffffffffffffff82169050919050565b6000819050919050565b600060ff82169050919050565b6000614eb582614ee0565b9050919050565b6000614ec782614e52565b9050919050565b6000614ed982614e65565b9050919050565b6000614eeb82614ef2565b9050919050565b6000614efd82614e73565b9050919050565b60005b83811015614f22578082015181840152602081019050614f07565b83811115614f31576000848401525b50505050565b6000601f19601f8301169050919050565b60048110614f5257fe5b50565b614f5e81614e22565b8114614f6957600080fd5b50565b614f7581614e34565b8114614f8057600080fd5b50565b614f8c81614e40565b8114614f9757600080fd5b50565b614fa381614e93565b8114614fae57600080fd5b5056fe45524332303a207472616e7366657220616d6f756e7420657863656564732062616c616e636545524332303a207472616e7366657220616d6f756e74206578636565647320616c6c6f77616e636545524332303a2064656372656173656420616c6c6f77616e63652062656c6f77207a65726fa365627a7a72315820ed73ed7e62a99e47ae08ec500ccb26d019c903fa2930be84c6f0c667140852876c6578706572696d656e74616cf564736f6c63430005110040",
  "source": "pragma solidity ^0.5.0;\r\npragma experimental ABIEncoderV2;\r\n\r\ninterface IERC20 {\r\n    function totalSupply() external view returns (uint256);\r\n    function balanceOf(address account) external view returns (uint256);\r\n    function transfer(address recipient, uint256 amount) external returns (bool);\r\n    function allowance(address owner, address spender) external view returns (uint256);\r\n    function approve(address spender, uint256 amount) external returns (bool);\r\n    function transferFrom(address sender, address recipient, uint256 amount) external returns (bool);\r\n    event Transfer(address indexed from, address indexed to, uint256 value);\r\n    event Approval(address indexed owner, address indexed spender, uint256 value);\r\n}\r\n\r\ncontract Context {\r\n    constructor () internal { }\r\n\r\n    function _msgSender() internal view returns (address payable) {\r\n        return msg.sender;\r\n    }\r\n\r\n    function _msgData() internal view returns (bytes memory) {\r\n        this; \r\n        return msg.data;\r\n    }\r\n}\r\n\r\ncontract ERC20 is Context, IERC20 {\r\n    using SafeMath for uint256;\r\n\r\n    mapping (address => uint256) _balances;\r\n\r\n    mapping (address => mapping (address => uint256)) private _allowances;\r\n\r\n    uint256 _totalSupply;\r\n    function totalSupply() public view returns (uint256) {\r\n        return _totalSupply;\r\n    }\r\n    function balanceOf(address account) public view returns (uint256) {\r\n        return _balances[account];\r\n    }\r\n    function transfer(address recipient, uint256 amount) public returns (bool) {\r\n        _transfer(_msgSender(), recipient, amount);\r\n        return true;\r\n    }\r\n    function allowance(address owner, address spender) public view returns (uint256) {\r\n        return _allowances[owner][spender];\r\n    }\r\n    function approve(address spender, uint256 amount) public returns (bool) {\r\n        _approve(_msgSender(), spender, amount);\r\n        return true;\r\n    }\r\n    function transferFrom(address sender, address recipient, uint256 amount) public returns (bool) {\r\n        _transfer(sender, recipient, amount);\r\n        _approve(sender, _msgSender(), _allowances[sender][_msgSender()].sub(amount, \"ERC20: transfer amount exceeds allowance\"));\r\n        return true;\r\n    }\r\n    function increaseAllowance(address spender, uint256 addedValue) public returns (bool) {\r\n        _approve(_msgSender(), spender, _allowances[_msgSender()][spender].add(addedValue));\r\n        return true;\r\n    }\r\n    function decreaseAllowance(address spender, uint256 subtractedValue) public returns (bool) {\r\n        _approve(_msgSender(), spender, _allowances[_msgSender()][spender].sub(subtractedValue, \"ERC20: decreased allowance below zero\"));\r\n        return true;\r\n    }\r\n    function _transfer(address sender, address recipient, uint256 amount) internal {\r\n        require(sender != address(0), \"ERC20: transfer from the zero address\");\r\n        require(recipient != address(0), \"ERC20: transfer to the zero address\");\r\n\r\n        _balances[sender] = _balances[sender].sub(amount, \"ERC20: transfer amount exceeds balance\");\r\n        _balances[recipient] = _balances[recipient].add(amount);\r\n        emit Transfer(sender, recipient, amount);\r\n    }\r\n    function _mint(address account, uint256 amount) internal {\r\n        require(account != address(0), \"ERC20: mint to the zero address\");\r\n\r\n        _totalSupply = _totalSupply.add(amount);\r\n        _balances[account] = _balances[account].add(amount);\r\n        emit Transfer(address(0), account, amount);\r\n    }\r\n    function _burn(address account, uint256 amount) internal {\r\n        require(account != address(0), \"ERC20: burn from the zero address\");\r\n\r\n        _balances[account] = _balances[account].sub(amount, \"ERC20: burn amount exceeds balance\");\r\n        _totalSupply = _totalSupply.sub(amount);\r\n        emit Transfer(account, address(0), amount);\r\n    }\r\n    function _approve(address owner, address spender, uint256 amount) internal {\r\n        require(owner != address(0), \"ERC20: approve from the zero address\");\r\n        require(spender != address(0), \"ERC20: approve to the zero address\");\r\n\r\n        _allowances[owner][spender] = amount;\r\n        emit Approval(owner, spender, amount);\r\n    }\r\n    function _burnFrom(address account, uint256 amount) internal {\r\n        _burn(account, amount);\r\n        _approve(account, _msgSender(), _allowances[account][_msgSender()].sub(amount, \"ERC20: burn amount exceeds allowance\"));\r\n    }\r\n}\r\n\r\ncontract ERC20Detailed is IERC20 {\r\n    string private _name;\r\n    string private _symbol;\r\n    uint8 private _decimals;\r\n\r\n    constructor (string memory name, string memory symbol, uint8 decimals) public {\r\n        _name = name;\r\n        _symbol = symbol;\r\n        _decimals = decimals;\r\n    }\r\n    function name() public view returns (string memory) {\r\n        return _name;\r\n    }\r\n    function symbol() public view returns (string memory) {\r\n        return _symbol;\r\n    }\r\n    function decimals() public view returns (uint8) {\r\n        return _decimals;\r\n    }\r\n}\r\n\r\ncontract ReentrancyGuard {\r\n    uint256 private _guardCounter;\r\n\r\n    constructor () internal {\r\n        _guardCounter = 1;\r\n    }\r\n\r\n    modifier nonReentrant() {\r\n        _guardCounter += 1;\r\n        uint256 localCounter = _guardCounter;\r\n        _;\r\n        require(localCounter == _guardCounter, \"ReentrancyGuard: reentrant call\");\r\n    }\r\n}\r\n\r\ncontract Ownable is Context {\r\n    address private _owner;\r\n\r\n    event OwnershipTransferred(address indexed previousOwner, address indexed newOwner);\r\n    constructor () internal {\r\n        _owner = _msgSender();\r\n        emit OwnershipTransferred(address(0), _owner);\r\n    }\r\n    function owner() public view returns (address) {\r\n        return _owner;\r\n    }\r\n    modifier onlyOwner() {\r\n        require(isOwner(), \"Ownable: caller is not the owner\");\r\n        _;\r\n    }\r\n    function isOwner() public view returns (bool) {\r\n        return _msgSender() == _owner;\r\n    }\r\n    function renounceOwnership() public onlyOwner {\r\n        emit OwnershipTransferred(_owner, address(0));\r\n        _owner = address(0);\r\n    }\r\n    function transferOwnership(address newOwner) public onlyOwner {\r\n        _transferOwnership(newOwner);\r\n    }\r\n    function _transferOwnership(address newOwner) internal {\r\n        require(newOwner != address(0), \"Ownable: new owner is the zero address\");\r\n        emit OwnershipTransferred(_owner, newOwner);\r\n        _owner = newOwner;\r\n    }\r\n}\r\n\r\nlibrary SafeMath {\r\n    function add(uint256 a, uint256 b) internal pure returns (uint256) {\r\n        uint256 c = a + b;\r\n        require(c >= a, \"SafeMath: addition overflow\");\r\n\r\n        return c;\r\n    }\r\n    function sub(uint256 a, uint256 b) internal pure returns (uint256) {\r\n        return sub(a, b, \"SafeMath: subtraction overflow\");\r\n    }\r\n    function sub(uint256 a, uint256 b, string memory errorMessage) internal pure returns (uint256) {\r\n        require(b <= a, errorMessage);\r\n        uint256 c = a - b;\r\n\r\n        return c;\r\n    }\r\n    function mul(uint256 a, uint256 b) internal pure returns (uint256) {\r\n        if (a == 0) {\r\n            return 0;\r\n        }\r\n\r\n        uint256 c = a * b;\r\n        require(c / a == b, \"SafeMath: multiplication overflow\");\r\n\r\n        return c;\r\n    }\r\n    function div(uint256 a, uint256 b) internal pure returns (uint256) {\r\n        return div(a, b, \"SafeMath: division by zero\");\r\n    }\r\n    function div(uint256 a, uint256 b, string memory errorMessage) internal pure returns (uint256) {\r\n        // Solidity only automatically asserts when dividing by 0\r\n        require(b > 0, errorMessage);\r\n        uint256 c = a / b;\r\n\r\n        return c;\r\n    }\r\n    function mod(uint256 a, uint256 b) internal pure returns (uint256) {\r\n        return mod(a, b, \"SafeMath: modulo by zero\");\r\n    }\r\n    function mod(uint256 a, uint256 b, string memory errorMessage) internal pure returns (uint256) {\r\n        require(b != 0, errorMessage);\r\n        return a % b;\r\n    }\r\n}\r\n\r\nlibrary Address {\r\n    function isContract(address account) internal view returns (bool) {\r\n        bytes32 codehash;\r\n        bytes32 accountHash = 0xc5d2460186f7233c927e7db2dcc703c0e500b653ca82273b7bfad8045d85a470;\r\n\r\n        assembly { codehash := extcodehash(account) }\r\n        return (codehash != 0x0 && codehash != accountHash);\r\n    }\r\n    function toPayable(address account) internal pure returns (address payable) {\r\n        return address(uint160(account));\r\n    }\r\n    function sendValue(address payable recipient, uint256 amount) internal {\r\n        require(address(this).balance >= amount, \"Address: insufficient balance\");\r\n\r\n        (bool success, ) = recipient.call.value(amount)(\"\");\r\n        require(success, \"Address: unable to send value, recipient may have reverted\");\r\n    }\r\n}\r\n\r\nlibrary SafeERC20 {\r\n    using SafeMath for uint256;\r\n    using Address for address;\r\n\r\n    function safeTransfer(IERC20 token, address to, uint256 value) internal {\r\n        callOptionalReturn(token, abi.encodeWithSelector(token.transfer.selector, to, value));\r\n    }\r\n\r\n    function safeTransferFrom(IERC20 token, address from, address to, uint256 value) internal {\r\n        callOptionalReturn(token, abi.encodeWithSelector(token.transferFrom.selector, from, to, value));\r\n    }\r\n\r\n    function safeApprove(IERC20 token, address spender, uint256 value) internal {\r\n        require((value == 0) || (token.allowance(address(this), spender) == 0),\r\n            \"SafeERC20: approve from non-zero to non-zero allowance\"\r\n        );\r\n        callOptionalReturn(token, abi.encodeWithSelector(token.approve.selector, spender, value));\r\n    }\r\n\r\n    function safeIncreaseAllowance(IERC20 token, address spender, uint256 value) internal {\r\n        uint256 newAllowance = token.allowance(address(this), spender).add(value);\r\n        callOptionalReturn(token, abi.encodeWithSelector(token.approve.selector, spender, newAllowance));\r\n    }\r\n\r\n    function safeDecreaseAllowance(IERC20 token, address spender, uint256 value) internal {\r\n        uint256 newAllowance = token.allowance(address(this), spender).sub(value, \"SafeERC20: decreased allowance below zero\");\r\n        callOptionalReturn(token, abi.encodeWithSelector(token.approve.selector, spender, newAllowance));\r\n    }\r\n    function callOptionalReturn(IERC20 token, bytes memory data) private {\r\n        require(address(token).isContract(), \"SafeERC20: call to non-contract\");\r\n\r\n        (bool success, bytes memory returndata) = address(token).call(data);\r\n        require(success, \"SafeERC20: low-level call failed\");\r\n\r\n        if (returndata.length > 0) {\r\n            require(abi.decode(returndata, (bool)), \"SafeERC20: ERC20 operation did not succeed\");\r\n        }\r\n    }\r\n}\r\n\r\ninterface Torque {\r\n    function mint ( uint256 mintAmount ) external returns ( uint256 );\r\n    function redeem(uint256 redeemTokens) external returns (uint256);\r\n    function exchangeRateStored() external view returns (uint);\r\n}\r\n\r\ninterface Fulcrum {\r\n    function mint(address receiver, uint256 amount) external payable returns (uint256 mintAmount);\r\n    function burn(address receiver, uint256 burnAmount) external returns (uint256 loanAmountPaid);\r\n    function assetBalanceOf(address _owner) external view returns (uint256 balance);\r\n}\r\n\r\ninterface ILendingPoolAddressesProvider {\r\n    function getLendingPool() external view returns (address);\r\n}\r\n\r\ninterface Aave {\r\n    function deposit(address _reserve, uint256 _amount, uint16 _referralCode) external;\r\n}\r\n\r\ninterface AToken {\r\n    function redeem(uint256 amount) external;\r\n}\r\n\r\ninterface IIEarnManager {\r\n    function recommend(address _token) external view returns (\r\n      string memory choice,\r\n      uint256 iapr,\r\n      uint256 aapr,\r\n      uint256 tapr\r\n    );\r\n}\r\n\r\ncontract Structs {\r\n    struct Val {\r\n        uint256 value;\r\n    }\r\n\r\n    enum ActionType {\r\n        Deposit,   // supply tokens\r\n        Withdraw  // borrow tokens\r\n    }\r\n\r\n    enum AssetDenomination {\r\n        Wei // the amount is denominated in wei\r\n    }\r\n\r\n    enum AssetReference {\r\n        Delta // the amount is given as a delta from the current value\r\n    }\r\n\r\n    struct AssetAmount {\r\n        bool sign; // true if positive\r\n        AssetDenomination denomination;\r\n        AssetReference ref;\r\n        uint256 value;\r\n    }\r\n\r\n    struct ActionArgs {\r\n        ActionType actionType;\r\n        uint256 accountId;\r\n        AssetAmount amount;\r\n        uint256 primaryMarketId;\r\n        uint256 secondaryMarketId;\r\n        address otherAddress;\r\n        uint256 otherAccountId;\r\n        bytes data;\r\n    }\r\n\r\n    struct Info {\r\n        address owner;  // The address that owns the account\r\n        uint256 number; // A nonce that allows a single address to control many accounts\r\n    }\r\n\r\n    struct Wei {\r\n        bool sign; // true if positive\r\n        uint256 value;\r\n    }\r\n}\r\n\r\ninterface LendingPoolAddressesProvider {\r\n    function getLendingPool() external view returns (address);\r\n    function getLendingPoolCore() external view returns (address);\r\n}\r\n\r\ncontract xMATIC is ERC20, ERC20Detailed, ReentrancyGuard, Ownable, Structs {\r\n  using SafeERC20 for IERC20;\r\n  using Address for address;\r\n  using SafeMath for uint256;\r\n\r\n  uint256 public pool;\r\n  address public token;\r\n  address public fulcrum;\r\n  address public aave;\r\n  address public torque;\r\n  address public aaveToken;\r\n  uint256 public dToken;\r\n  address public apr;\r\n\r\n  enum Lender {\r\n      NONE,\r\n      TORQUE,\r\n      AAVE,\r\n      FULCRUM\r\n  }\r\n\r\n  Lender public provider = Lender.NONE;\r\n\r\n  constructor () public ERC20Detailed(\"xMATIC\", \"xMATIC\", 6) {\r\n    token = address(0xdAC17F958D2ee523a2206206994597C13D831ec7);\r\n    apr = address(0x318135fbD0b40D48fCEF431CCdF6C7926450edFB);\r\n    aave = address(0x24a42fD28C976A61Df5D00D0599C34c4f90748c8);\r\n    fulcrum = address(0xF013406A0B1d544238083DF0B93ad0d2cBE0f65f);\r\n    aaveToken = address(0x71fc860F7D3A592A4a98740e39dB31d25db65ae8);\r\n    torque = address(0x39AA39c021dfbaE8faC545936693aC917d5E7563);\r\n    dToken = 0;\r\n    // approveToken();\r\n  }\r\n  function set_new_AAVE(address _new_AAVE) public onlyOwner {\r\n      aave = _new_AAVE;\r\n  }\r\n  function set_new_APR(address _new_APR) public onlyOwner {\r\n      apr = _new_APR;\r\n  }\r\n  function set_new_FULCRUM(address _new_FULCRUM) public onlyOwner {\r\n      fulcrum = _new_FULCRUM;\r\n  }\r\n  function set_new_ATOKEN(address _new_ATOKEN) public onlyOwner {\r\n      aaveToken = _new_ATOKEN;\r\n  }\r\n  function set_new_TORQUE(address _new_TORQUE) public onlyOwner {\r\n      torque = _new_TORQUE;\r\n  }\r\n  function set_new_DTOKEN(uint256 _new_DTOKEN) public onlyOwner {\r\n      dToken = _new_DTOKEN;\r\n  }\r\n\r\n  function() external payable {\r\n\r\n  }\r\n\r\n  function recommend() public view returns (Lender) {\r\n    (,uint256 iapr,uint256 aapr,uint256 tapr) = IIEarnManager(apr).recommend(token);\r\n    uint256 max = 0;\r\n    if (iapr > max) {\r\n      max = iapr;\r\n    }\r\n    if (aapr > max) {\r\n      max = aapr;\r\n    }\r\n    if (tapr > max) {\r\n      max = tapr;\r\n    }\r\n\r\n    Lender newProvider = Lender.NONE;\r\n    if (max == tapr) {\r\n      newProvider = Lender.TORQUE;\r\n    }\r\n    if (max == aapr) {\r\n      newProvider = Lender.AAVE;\r\n    }\r\n    if (max == iapr) {\r\n      newProvider = Lender.FULCRUM;\r\n    }\r\n    return newProvider;\r\n  }\r\n\r\n  function balance() public view returns (uint256) {\r\n    return IERC20(token).balanceOf(address(this));\r\n  }\r\n\r\n  function getAave() public view returns (address) {\r\n    return LendingPoolAddressesProvider(aave).getLendingPool();\r\n  }\r\n  function getAaveCore() public view returns (address) {\r\n    return LendingPoolAddressesProvider(aave).getLendingPoolCore();\r\n  }\r\n\r\n  function approveToken() public {\r\n      IERC20(token).safeApprove(torque, uint(-1)); //also add to constructor\r\n      IERC20(token).safeApprove(getAaveCore(), uint(-1));\r\n      IERC20(token).safeApprove(fulcrum, uint(-1));\r\n  }\r\n\r\n  function balanceTorque() public view returns (uint256) {\r\n      return IERC20(torque).balanceOf(address(this));\r\n  }\r\n  function balanceTorqueInToken() public view returns (uint256) {\r\n    // Mantisa 1e18 to decimals\r\n    uint256 b = balanceTorque();\r\n    if (b > 0) {\r\n      b = b.mul(Torque(torque).exchangeRateStored()).div(1e18);\r\n    }\r\n    return b;\r\n  }\r\n  function balanceFulcrumInToken() public view returns (uint256) {\r\n    uint256 b = balanceFulcrum();\r\n    if (b > 0) {\r\n      b = Fulcrum(fulcrum).assetBalanceOf(address(this));\r\n    }\r\n    return b;\r\n  }\r\n  function balanceFulcrum() public view returns (uint256) {\r\n    return IERC20(fulcrum).balanceOf(address(this));\r\n  }\r\n  function balanceAave() public view returns (uint256) {\r\n    return IERC20(aaveToken).balanceOf(address(this));\r\n  }\r\n\r\n  function withdrawAll() internal {\r\n    uint256 amount = balanceTorque();\r\n    if (amount > 0) {\r\n      withdrawTorque(amount);\r\n    }\r\n    amount = balanceFulcrum();\r\n    if (amount > 0) {\r\n      withdrawFulcrum(amount);\r\n    }\r\n    amount = balanceAave();\r\n    if (amount > 0) {\r\n      withdrawAave(amount);\r\n    }\r\n  }\r\n\r\n  function withdrawSome(uint256 _amount) internal {\r\n    if (provider == Lender.TORQUE) {\r\n      uint256 b = balanceTorque();\r\n      uint256 bT = balanceTorqueInToken();\r\n      require(bT >= _amount, \"insufficient funds\");\r\n      uint256 amount = b.mul(_amount).div(bT);\r\n      withdrawTorque(amount);\r\n    }\r\n    if (provider == Lender.AAVE) {\r\n      require(balanceAave() >= _amount, \"insufficient funds\");\r\n      withdrawAave(_amount);\r\n    }\r\n    if (provider == Lender.FULCRUM) {\r\n      withdrawFulcrum(_amount);\r\n    }\r\n  }\r\n\r\n  function rebalance() public {\r\n    Lender newProvider = recommend();\r\n\r\n    if (newProvider != provider) {\r\n      withdrawAll();\r\n    }\r\n\r\n    if (balance() > 0) {\r\n      if (newProvider == Lender.FULCRUM) {\r\n        supplyFulcrum(balance());\r\n      }\r\n      if (newProvider == Lender.TORQUE) {\r\n        supplyTorque(balance());\r\n      }\r\n      if (newProvider == Lender.AAVE) {\r\n        supplyAave(balance());\r\n      }\r\n    }\r\n    provider = newProvider;\r\n  }\r\n\r\n  function supplyAave(uint amount) public {\r\n      Aave(getAave()).deposit(token, amount, 0);\r\n  }\r\n  function supplyFulcrum(uint amount) public {\r\n      require(Fulcrum(fulcrum).mint(address(this), amount) > 0, \"FULCRUM: supply failed\");\r\n  }\r\n  function supplyTorque(uint amount) public {\r\n      require(Torque(torque).mint(amount) == 0, \"TORQUE: supply failed\");\r\n  }\r\n  function withdrawAave(uint amount) internal {\r\n      AToken(aaveToken).redeem(amount);\r\n  }\r\n  function withdrawFulcrum(uint amount) internal {\r\n      require(Fulcrum(fulcrum).burn(address(this), amount) > 0, \"FULCRUM: withdraw failed\");\r\n  }\r\n  function withdrawTorque(uint amount) internal {\r\n      require(Torque(torque).redeem(amount) == 0, \"TORQUE: withdraw failed\");\r\n  }\r\n\r\n  function invest(uint256 _amount)\r\n      external\r\n      nonReentrant\r\n  {\r\n      require(_amount > 0, \"deposit must be greater than 0\");\r\n      pool = calcPoolValueInToken();\r\n\r\n      IERC20(token).safeTransferFrom(msg.sender, address(this), _amount);\r\n\r\n      rebalance();\r\n\r\n      // Calculate pool shares\r\n      uint256 shares = 0;\r\n      if (pool == 0) {\r\n        shares = _amount;\r\n        pool = _amount;\r\n      } else {\r\n        shares = (_amount.mul(_totalSupply)).div(pool);\r\n      }\r\n      pool = calcPoolValueInToken();\r\n      _mint(msg.sender, shares);\r\n  }\r\n\r\n  // Invest self eth from external profits\r\n  function investSelf()\r\n      external\r\n      nonReentrant\r\n      onlyOwner\r\n  {\r\n      uint b = IERC20(token).balanceOf(address(this));\r\n      require(b > 0, \"deposit must be greater than 0\");\r\n      rebalance();\r\n      pool = calcPoolValueInToken();\r\n  }\r\n\r\n  function calcPoolValueInToken() public view returns (uint) {\r\n\r\n    return balanceTorqueInToken()\r\n      .add(balanceFulcrumInToken())\r\n      .add(balanceAave())\r\n      .add(balance());\r\n  }\r\n\r\n  function getPricePerFullShare() public view returns (uint) {\r\n    uint _pool = calcPoolValueInToken();\r\n    return _pool.mul(1e18).div(_totalSupply);\r\n  }\r\n\r\n  // Redeem any invested tokens from the pool\r\n  function redeem(uint256 _shares)\r\n      external\r\n      nonReentrant\r\n  {\r\n      require(_shares > 0, \"withdraw must be greater than 0\");\r\n\r\n      uint256 ibalance = balanceOf(msg.sender);\r\n      require(_shares <= ibalance, \"insufficient balance\");\r\n\r\n      // Could have over value from cTokens\r\n      pool = calcPoolValueInToken();\r\n      // Calc eth to redeem before updating balances\r\n      uint256 r = (pool.mul(_shares)).div(_totalSupply);\r\n\r\n\r\n      _balances[msg.sender] = _balances[msg.sender].sub(_shares, \"redeem amount exceeds balance\");\r\n      _totalSupply = _totalSupply.sub(_shares);\r\n\r\n      emit Transfer(msg.sender, address(0), _shares);\r\n\r\n      // Check ETH balance\r\n      uint256 b = IERC20(token).balanceOf(address(this));\r\n      if (b < r) {\r\n        withdrawSome(r);\r\n      }\r\n\r\n      IERC20(token).safeTransfer(msg.sender, r);\r\n\r\n      rebalance();\r\n      pool = calcPoolValueInToken();\r\n\r\n  }\r\n  // incase of half-way error\r\n  function inCaseTokenGetsStuck(IERC20 _TokenAddress) onlyOwner public {\r\n      uint qty = _TokenAddress.balanceOf(address(this));\r\n      _TokenAddress.transfer(msg.sender, qty);\r\n  }\r\n  // incase of half-way error\r\n  function inCaseETHGetsStuck() onlyOwner public{\r\n      (bool result, ) = msg.sender.call.value(address(this).balance)(\"\");\r\n      require(result, \"transfer of ETH failed\");\r\n  }\r\n}",
  "sourcePath": "E:/Task/blockchain/xendfinance/polygon-earn/contracts/XMATIC.sol",
  "compiler": {
    "name": "solc",
    "version": "0.5.17+commit.d19bba13.Emscripten.clang"
  },
  "schemaVersion": "3.4.1",
  "updatedAt": "2021-06-23T15:58:40.031Z",
  "devdoc": {
    "methods": {}
  },
  "userdoc": {
    "methods": {}
  }
}