{
  "contractName": "xUSDT",
  "abi": [
    {
      "inputs": [],
      "payable": false,
      "stateMutability": "nonpayable",
      "type": "constructor"
    },
    {
      "anonymous": false,
      "inputs": [
        {
          "indexed": true,
          "internalType": "address",
          "name": "owner",
          "type": "address"
        },
        {
          "indexed": true,
          "internalType": "address",
          "name": "spender",
          "type": "address"
        },
        {
          "indexed": false,
          "internalType": "uint256",
          "name": "value",
          "type": "uint256"
        }
      ],
      "name": "Approval",
      "type": "event"
    },
    {
      "anonymous": false,
      "inputs": [
        {
          "indexed": true,
          "internalType": "address",
          "name": "previousOwner",
          "type": "address"
        },
        {
          "indexed": true,
          "internalType": "address",
          "name": "newOwner",
          "type": "address"
        }
      ],
      "name": "OwnershipTransferred",
      "type": "event"
    },
    {
      "anonymous": false,
      "inputs": [
        {
          "indexed": true,
          "internalType": "address",
          "name": "from",
          "type": "address"
        },
        {
          "indexed": true,
          "internalType": "address",
          "name": "to",
          "type": "address"
        },
        {
          "indexed": false,
          "internalType": "uint256",
          "name": "value",
          "type": "uint256"
        }
      ],
      "name": "Transfer",
      "type": "event"
    },
    {
      "payable": true,
      "stateMutability": "payable",
      "type": "fallback"
    },
    {
      "constant": true,
      "inputs": [],
      "name": "aave",
      "outputs": [
        {
          "internalType": "address",
          "name": "",
          "type": "address"
        }
      ],
      "payable": false,
      "stateMutability": "view",
      "type": "function"
    },
    {
      "constant": true,
      "inputs": [],
      "name": "aaveToken",
      "outputs": [
        {
          "internalType": "address",
          "name": "",
          "type": "address"
        }
      ],
      "payable": false,
      "stateMutability": "view",
      "type": "function"
    },
    {
      "constant": true,
      "inputs": [
        {
          "internalType": "address",
          "name": "owner",
          "type": "address"
        },
        {
          "internalType": "address",
          "name": "spender",
          "type": "address"
        }
      ],
      "name": "allowance",
      "outputs": [
        {
          "internalType": "uint256",
          "name": "",
          "type": "uint256"
        }
      ],
      "payable": false,
      "stateMutability": "view",
      "type": "function"
    },
    {
      "constant": false,
      "inputs": [
        {
          "internalType": "address",
          "name": "spender",
          "type": "address"
        },
        {
          "internalType": "uint256",
          "name": "amount",
          "type": "uint256"
        }
      ],
      "name": "approve",
      "outputs": [
        {
          "internalType": "bool",
          "name": "",
          "type": "bool"
        }
      ],
      "payable": false,
      "stateMutability": "nonpayable",
      "type": "function"
    },
    {
      "constant": true,
      "inputs": [],
      "name": "apr",
      "outputs": [
        {
          "internalType": "address",
          "name": "",
          "type": "address"
        }
      ],
      "payable": false,
      "stateMutability": "view",
      "type": "function"
    },
    {
      "constant": true,
      "inputs": [
        {
          "internalType": "address",
          "name": "account",
          "type": "address"
        }
      ],
      "name": "balanceOf",
      "outputs": [
        {
          "internalType": "uint256",
          "name": "",
          "type": "uint256"
        }
      ],
      "payable": false,
      "stateMutability": "view",
      "type": "function"
    },
    {
      "constant": true,
      "inputs": [],
      "name": "decimals",
      "outputs": [
        {
          "internalType": "uint8",
          "name": "",
          "type": "uint8"
        }
      ],
      "payable": false,
      "stateMutability": "view",
      "type": "function"
    },
    {
      "constant": false,
      "inputs": [
        {
          "internalType": "address",
          "name": "spender",
          "type": "address"
        },
        {
          "internalType": "uint256",
          "name": "subtractedValue",
          "type": "uint256"
        }
      ],
      "name": "decreaseAllowance",
      "outputs": [
        {
          "internalType": "bool",
          "name": "",
          "type": "bool"
        }
      ],
      "payable": false,
      "stateMutability": "nonpayable",
      "type": "function"
    },
    {
      "constant": true,
      "inputs": [],
      "name": "fulcrum",
      "outputs": [
        {
          "internalType": "address",
          "name": "",
          "type": "address"
        }
      ],
      "payable": false,
      "stateMutability": "view",
      "type": "function"
    },
    {
      "constant": false,
      "inputs": [
        {
          "internalType": "address",
          "name": "spender",
          "type": "address"
        },
        {
          "internalType": "uint256",
          "name": "addedValue",
          "type": "uint256"
        }
      ],
      "name": "increaseAllowance",
      "outputs": [
        {
          "internalType": "bool",
          "name": "",
          "type": "bool"
        }
      ],
      "payable": false,
      "stateMutability": "nonpayable",
      "type": "function"
    },
    {
      "constant": true,
      "inputs": [],
      "name": "isOwner",
      "outputs": [
        {
          "internalType": "bool",
          "name": "",
          "type": "bool"
        }
      ],
      "payable": false,
      "stateMutability": "view",
      "type": "function"
    },
    {
      "constant": true,
      "inputs": [],
      "name": "name",
      "outputs": [
        {
          "internalType": "string",
          "name": "",
          "type": "string"
        }
      ],
      "payable": false,
      "stateMutability": "view",
      "type": "function"
    },
    {
      "constant": true,
      "inputs": [],
      "name": "owner",
      "outputs": [
        {
          "internalType": "address",
          "name": "",
          "type": "address"
        }
      ],
      "payable": false,
      "stateMutability": "view",
      "type": "function"
    },
    {
      "constant": true,
      "inputs": [],
      "name": "pool",
      "outputs": [
        {
          "internalType": "uint256",
          "name": "",
          "type": "uint256"
        }
      ],
      "payable": false,
      "stateMutability": "view",
      "type": "function"
    },
    {
      "constant": true,
      "inputs": [],
      "name": "provider",
      "outputs": [
        {
          "internalType": "enum xUSDT.Lender",
          "name": "",
          "type": "uint8"
        }
      ],
      "payable": false,
      "stateMutability": "view",
      "type": "function"
    },
    {
      "constant": false,
      "inputs": [],
      "name": "renounceOwnership",
      "outputs": [],
      "payable": false,
      "stateMutability": "nonpayable",
      "type": "function"
    },
    {
      "constant": true,
      "inputs": [],
      "name": "symbol",
      "outputs": [
        {
          "internalType": "string",
          "name": "",
          "type": "string"
        }
      ],
      "payable": false,
      "stateMutability": "view",
      "type": "function"
    },
    {
      "constant": true,
      "inputs": [],
      "name": "token",
      "outputs": [
        {
          "internalType": "address",
          "name": "",
          "type": "address"
        }
      ],
      "payable": false,
      "stateMutability": "view",
      "type": "function"
    },
    {
      "constant": true,
      "inputs": [],
      "name": "totalSupply",
      "outputs": [
        {
          "internalType": "uint256",
          "name": "",
          "type": "uint256"
        }
      ],
      "payable": false,
      "stateMutability": "view",
      "type": "function"
    },
    {
      "constant": false,
      "inputs": [
        {
          "internalType": "address",
          "name": "recipient",
          "type": "address"
        },
        {
          "internalType": "uint256",
          "name": "amount",
          "type": "uint256"
        }
      ],
      "name": "transfer",
      "outputs": [
        {
          "internalType": "bool",
          "name": "",
          "type": "bool"
        }
      ],
      "payable": false,
      "stateMutability": "nonpayable",
      "type": "function"
    },
    {
      "constant": false,
      "inputs": [
        {
          "internalType": "address",
          "name": "sender",
          "type": "address"
        },
        {
          "internalType": "address",
          "name": "recipient",
          "type": "address"
        },
        {
          "internalType": "uint256",
          "name": "amount",
          "type": "uint256"
        }
      ],
      "name": "transferFrom",
      "outputs": [
        {
          "internalType": "bool",
          "name": "",
          "type": "bool"
        }
      ],
      "payable": false,
      "stateMutability": "nonpayable",
      "type": "function"
    },
    {
      "constant": false,
      "inputs": [
        {
          "internalType": "address",
          "name": "newOwner",
          "type": "address"
        }
      ],
      "name": "transferOwnership",
      "outputs": [],
      "payable": false,
      "stateMutability": "nonpayable",
      "type": "function"
    },
    {
      "constant": false,
      "inputs": [
        {
          "internalType": "address",
          "name": "_new_APR",
          "type": "address"
        }
      ],
      "name": "set_new_APR",
      "outputs": [],
      "payable": false,
      "stateMutability": "nonpayable",
      "type": "function"
    },
    {
      "constant": false,
      "inputs": [
        {
          "internalType": "address",
          "name": "_new_FULCRUM",
          "type": "address"
        }
      ],
      "name": "set_new_FULCRUM",
      "outputs": [],
      "payable": false,
      "stateMutability": "nonpayable",
      "type": "function"
    },
    {
      "constant": false,
      "inputs": [
        {
          "internalType": "uint256",
          "name": "_amount",
          "type": "uint256"
        }
      ],
      "name": "deposit",
      "outputs": [],
      "payable": false,
      "stateMutability": "nonpayable",
      "type": "function"
    },
    {
      "constant": false,
      "inputs": [
        {
          "internalType": "uint256",
          "name": "_shares",
          "type": "uint256"
        }
      ],
      "name": "withdraw",
      "outputs": [],
      "payable": false,
      "stateMutability": "nonpayable",
      "type": "function"
    },
    {
      "constant": true,
      "inputs": [],
      "name": "recommend",
      "outputs": [
        {
          "internalType": "enum xUSDT.Lender",
          "name": "",
          "type": "uint8"
        }
      ],
      "payable": false,
      "stateMutability": "view",
      "type": "function"
    },
    {
      "constant": true,
      "inputs": [],
      "name": "getAave",
      "outputs": [
        {
          "internalType": "address",
          "name": "",
          "type": "address"
        }
      ],
      "payable": false,
      "stateMutability": "view",
      "type": "function"
    },
    {
      "constant": true,
      "inputs": [],
      "name": "getAaveCore",
      "outputs": [
        {
          "internalType": "address",
          "name": "",
          "type": "address"
        }
      ],
      "payable": false,
      "stateMutability": "view",
      "type": "function"
    },
    {
      "constant": false,
      "inputs": [],
      "name": "approveToken",
      "outputs": [],
      "payable": false,
      "stateMutability": "nonpayable",
      "type": "function"
    },
    {
      "constant": true,
      "inputs": [],
      "name": "balance",
      "outputs": [
        {
          "internalType": "uint256",
          "name": "",
          "type": "uint256"
        }
      ],
      "payable": false,
      "stateMutability": "view",
      "type": "function"
    },
    {
      "constant": true,
      "inputs": [],
      "name": "balanceFulcrumInToken",
      "outputs": [
        {
          "internalType": "uint256",
          "name": "",
          "type": "uint256"
        }
      ],
      "payable": false,
      "stateMutability": "view",
      "type": "function"
    },
    {
      "constant": true,
      "inputs": [],
      "name": "balanceFulcrum",
      "outputs": [
        {
          "internalType": "uint256",
          "name": "",
          "type": "uint256"
        }
      ],
      "payable": false,
      "stateMutability": "view",
      "type": "function"
    },
    {
      "constant": true,
      "inputs": [],
      "name": "balanceAave",
      "outputs": [
        {
          "internalType": "uint256",
          "name": "",
          "type": "uint256"
        }
      ],
      "payable": false,
      "stateMutability": "view",
      "type": "function"
    },
    {
      "constant": false,
      "inputs": [],
      "name": "rebalance",
      "outputs": [],
      "payable": false,
      "stateMutability": "nonpayable",
      "type": "function"
    },
    {
      "constant": false,
      "inputs": [
        {
          "internalType": "uint256",
          "name": "amount",
          "type": "uint256"
        }
      ],
      "name": "supplyAave",
      "outputs": [],
      "payable": false,
      "stateMutability": "nonpayable",
      "type": "function"
    },
    {
      "constant": false,
      "inputs": [
        {
          "internalType": "uint256",
          "name": "amount",
          "type": "uint256"
        }
      ],
      "name": "supplyFulcrum",
      "outputs": [],
      "payable": false,
      "stateMutability": "nonpayable",
      "type": "function"
    },
    {
      "constant": true,
      "inputs": [],
      "name": "calcPoolValueInToken",
      "outputs": [
        {
          "internalType": "uint256",
          "name": "",
          "type": "uint256"
        }
      ],
      "payable": false,
      "stateMutability": "view",
      "type": "function"
    },
    {
      "constant": true,
      "inputs": [],
      "name": "getPricePerFullShare",
      "outputs": [
        {
          "internalType": "uint256",
          "name": "",
          "type": "uint256"
        }
      ],
      "payable": false,
      "stateMutability": "view",
      "type": "function"
    }
  ],
  "bytecode": "0x60806040526000600d60146101000a81548160ff021916908360028111156200002457fe5b02179055503480156200003657600080fd5b506040518060400160405280600981526020017f78656e64205553445400000000000000000000000000000000000000000000008152506040518060400160405280600581526020017f785553445400000000000000000000000000000000000000000000000000000081525060068260039080519060200190620000bd929190620008bd565b508160049080519060200190620000d6929190620008bd565b5080600560006101000a81548160ff021916908360ff16021790555050505060016006819055506200010d6200038960201b60201c565b600760006101000a81548173ffffffffffffffffffffffffffffffffffffffff021916908373ffffffffffffffffffffffffffffffffffffffff160217905550600760009054906101000a900473ffffffffffffffffffffffffffffffffffffffff1673ffffffffffffffffffffffffffffffffffffffff16600073ffffffffffffffffffffffffffffffffffffffff167f8be0079c531659141344cd1fd0a4f28419497f9722a3daafe3b4186f6b6457e060405160405180910390a373dac17f958d2ee523a2206206994597c13d831ec7600960006101000a81548173ffffffffffffffffffffffffffffffffffffffff021916908373ffffffffffffffffffffffffffffffffffffffff16021790555073dd6d648c991f7d47454354f4ef326b04025a48a8600d60006101000a81548173ffffffffffffffffffffffffffffffffffffffff021916908373ffffffffffffffffffffffffffffffffffffffff1602179055507324a42fd28c976a61df5d00d0599c34c4f90748c8600b60006101000a81548173ffffffffffffffffffffffffffffffffffffffff021916908373ffffffffffffffffffffffffffffffffffffffff16021790555073f013406a0b1d544238083df0b93ad0d2cbe0f65f600a60006101000a81548173ffffffffffffffffffffffffffffffffffffffff021916908373ffffffffffffffffffffffffffffffffffffffff1602179055507371fc860f7d3a592a4a98740e39db31d25db65ae8600c60006101000a81548173ffffffffffffffffffffffffffffffffffffffff021916908373ffffffffffffffffffffffffffffffffffffffff160217905550620003836200039160201b60201c565b62000dd2565b600033905090565b62000414620003a5620004ac60201b60201c565b7fffffffffffffffffffffffffffffffffffffffffffffffffffffffffffffffff600960009054906101000a900473ffffffffffffffffffffffffffffffffffffffff1673ffffffffffffffffffffffffffffffffffffffff166200055760201b620027d1179092919060201c565b620004aa600a60009054906101000a900473ffffffffffffffffffffffffffffffffffffffff167fffffffffffffffffffffffffffffffffffffffffffffffffffffffffffffffff600960009054906101000a900473ffffffffffffffffffffffffffffffffffffffff1673ffffffffffffffffffffffffffffffffffffffff166200055760201b620027d1179092919060201c565b565b6000600b60009054906101000a900473ffffffffffffffffffffffffffffffffffffffff1673ffffffffffffffffffffffffffffffffffffffff1663ed6ff7606040518163ffffffff1660e01b815260040160206040518083038186803b1580156200051757600080fd5b505afa1580156200052c573d6000803e3d6000fd5b505050506040513d601f19601f82011682018060405250620005529190810190620009b1565b905090565b6000811480620005f7575060008373ffffffffffffffffffffffffffffffffffffffff1663dd62ed3e30856040518363ffffffff1660e01b8152600401620005a192919062000bfb565b60206040518083038186803b158015620005ba57600080fd5b505afa158015620005cf573d6000803e3d6000fd5b505050506040513d601f19601f82011682018060405250620005f5919081019062000a09565b145b62000639576040517f08c379a0000000000000000000000000000000000000000000000000000000008152600401620006309062000c99565b60405180910390fd5b620006dd838473ffffffffffffffffffffffffffffffffffffffff1663095ea7b3905060e01b84846040516024016200067492919062000c28565b604051602081830303815290604052907bffffffffffffffffffffffffffffffffffffffffffffffffffffffff19166020820180517bffffffffffffffffffffffffffffffffffffffffffffffffffffffff8381831617835250505050620006e260201b60201c565b505050565b6200070e8273ffffffffffffffffffffffffffffffffffffffff166200087160201b620033801760201c565b62000750576040517f08c379a0000000000000000000000000000000000000000000000000000000008152600401620007479062000cbb565b60405180910390fd5b600060608373ffffffffffffffffffffffffffffffffffffffff16836040516200077b919062000be2565b6000604051808303816000865af19150503d8060008114620007ba576040519150601f19603f3d011682016040523d82523d6000602084013e620007bf565b606091505b50915091508162000807576040517f08c379a0000000000000000000000000000000000000000000000000000000008152600401620007fe9062000c55565b60405180910390fd5b6000815111156200086b5780806020019051620008289190810190620009dd565b6200086a576040517f08c379a0000000000000000000000000000000000000000000000000000000008152600401620008619062000c77565b60405180910390fd5b5b50505050565b60008060007fc5d2460186f7233c927e7db2dcc703c0e500b653ca82273b7bfad8045d85a47060001b9050833f91506000801b8214158015620008b45750808214155b92505050919050565b828054600181600116156101000203166002900490600052602060002090601f016020900481019282601f106200090057805160ff191683800117855562000931565b8280016001018555821562000931579182015b828111156200093057825182559160200191906001019062000913565b5b50905062000940919062000944565b5090565b6200096991905b80821115620009655760008160009055506001016200094b565b5090565b90565b6000815190506200097d8162000d84565b92915050565b600081519050620009948162000d9e565b92915050565b600081519050620009ab8162000db8565b92915050565b600060208284031215620009c457600080fd5b6000620009d4848285016200096c565b91505092915050565b600060208284031215620009f057600080fd5b600062000a008482850162000983565b91505092915050565b60006020828403121562000a1c57600080fd5b600062000a2c848285016200099a565b91505092915050565b62000a408162000d04565b82525050565b600062000a538262000cdd565b62000a5f818562000ce8565b935062000a7181856020860162000d4e565b80840191505092915050565b600062000a8c60208362000cf3565b91507f5361666545524332303a206c6f772d6c6576656c2063616c6c206661696c65646000830152602082019050919050565b600062000ace602a8362000cf3565b91507f5361666545524332303a204552433230206f7065726174696f6e20646964206e60008301527f6f742073756363656564000000000000000000000000000000000000000000006020830152604082019050919050565b600062000b3660368362000cf3565b91507f5361666545524332303a20617070726f76652066726f6d206e6f6e2d7a65726f60008301527f20746f206e6f6e2d7a65726f20616c6c6f77616e6365000000000000000000006020830152604082019050919050565b600062000b9e601f8362000cf3565b91507f5361666545524332303a2063616c6c20746f206e6f6e2d636f6e7472616374006000830152602082019050919050565b62000bdc8162000d44565b82525050565b600062000bf0828462000a46565b915081905092915050565b600060408201905062000c12600083018562000a35565b62000c21602083018462000a35565b9392505050565b600060408201905062000c3f600083018562000a35565b62000c4e602083018462000bd1565b9392505050565b6000602082019050818103600083015262000c708162000a7d565b9050919050565b6000602082019050818103600083015262000c928162000abf565b9050919050565b6000602082019050818103600083015262000cb48162000b27565b9050919050565b6000602082019050818103600083015262000cd68162000b8f565b9050919050565b600081519050919050565b600081905092915050565b600082825260208201905092915050565b600062000d118262000d24565b9050919050565b60008115159050919050565b600073ffffffffffffffffffffffffffffffffffffffff82169050919050565b6000819050919050565b60005b8381101562000d6e57808201518184015260208101905062000d51565b8381111562000d7e576000848401525b50505050565b62000d8f8162000d04565b811462000d9b57600080fd5b50565b62000da98162000d18565b811462000db557600080fd5b50565b62000dc38162000d44565b811462000dcf57600080fd5b50565b6144718062000de26000396000f3fe6080604052600436106102305760003560e01c80637d7c2a1c1161012e578063b69ef8a8116100ab578063f2fde38b1161006f578063f2fde38b1461081e578063f5a41dea14610847578063f7c1ec7714610872578063f82ce27d1461089d578063fc0c546a146108c857610230565b8063b69ef8a814610739578063b6b55f2514610764578063bbf316441461078d578063cf8ca426146107b6578063dd62ed3e146107e157610230565b806395d89b41116100f257806395d89b411461065257806399b71d5c1461067d578063a160176d14610694578063a457c2d7146106bf578063a9059cbb146106fc57610230565b80637d7c2a1c146105915780638124955c146105a8578063819faf7b146105d15780638da5cb5b146105fc5780638f32d59b1461062757610230565b8063313ce567116101bc57806365aab7491161018057806365aab749146104be57806370a08231146104e75780637137ef9914610524578063715018a61461054f57806377c7b8fc1461056657610230565b8063313ce567146103d75780633950935114610402578063463574731461043f57806357ded9c91461046857806358782c211461049357610230565b80630eb2a267116102035780630eb2a267146102f057806316f0115b1461031b57806318160ddd1461034657806323b872dd146103715780632e1a7d4d146103ae57610230565b806306a3fe591461023257806306fdde031461025d578063085d488314610288578063095ea7b3146102b3575b005b34801561023e57600080fd5b506102476108f3565b6040516102549190613d9d565b60405180910390f35b34801561026957600080fd5b50610272610919565b60405161027f9190613ef2565b60405180910390f35b34801561029457600080fd5b5061029d6109bb565b6040516102aa9190613ed7565b60405180910390f35b3480156102bf57600080fd5b506102da60048036036102d59190810190613565565b6109ce565b6040516102e79190613ebc565b60405180910390f35b3480156102fc57600080fd5b506103056109ec565b6040516103129190614194565b60405180910390f35b34801561032757600080fd5b50610330610a9e565b60405161033d9190614194565b60405180910390f35b34801561035257600080fd5b5061035b610aa4565b6040516103689190614194565b60405180910390f35b34801561037d57600080fd5b5061039860048036036103939190810190613516565b610aae565b6040516103a59190613ebc565b60405180910390f35b3480156103ba57600080fd5b506103d560048036036103d09190810190613631565b610b87565b005b3480156103e357600080fd5b506103ec610f31565b6040516103f991906141af565b60405180910390f35b34801561040e57600080fd5b5061042960048036036104249190810190613565565b610f48565b6040516104369190613ebc565b60405180910390f35b34801561044b57600080fd5b5061046660048036036104619190810190613488565b610ffb565b005b34801561047457600080fd5b5061047d611086565b60405161048a9190613d9d565b60405180910390f35b34801561049f57600080fd5b506104a86110ac565b6040516104b59190613d9d565b60405180910390f35b3480156104ca57600080fd5b506104e560048036036104e09190810190613631565b6110d2565b005b3480156104f357600080fd5b5061050e60048036036105099190810190613488565b61116e565b60405161051b9190614194565b60405180910390f35b34801561053057600080fd5b506105396111b6565b6040516105469190614194565b60405180910390f35b34801561055b57600080fd5b506105646111f7565b005b34801561057257600080fd5b5061057b6112ff565b6040516105889190614194565b60405180910390f35b34801561059d57600080fd5b506105a6611341565b005b3480156105b457600080fd5b506105cf60048036036105ca9190810190613631565b61141d565b005b3480156105dd57600080fd5b506105e6611511565b6040516105f39190613d9d565b60405180910390f35b34801561060857600080fd5b50610611611537565b60405161061e9190613d9d565b60405180910390f35b34801561063357600080fd5b5061063c611561565b6040516106499190613ebc565b60405180910390f35b34801561065e57600080fd5b506106676115c0565b6040516106749190613ef2565b60405180910390f35b34801561068957600080fd5b50610692611662565b005b3480156106a057600080fd5b506106a9611767565b6040516106b69190613ed7565b60405180910390f35b3480156106cb57600080fd5b506106e660048036036106e19190810190613565565b61188e565b6040516106f39190613ebc565b60405180910390f35b34801561070857600080fd5b50610723600480360361071e9190810190613565565b61195b565b6040516107309190613ebc565b60405180910390f35b34801561074557600080fd5b5061074e611979565b60405161075b9190614194565b60405180910390f35b34801561077057600080fd5b5061078b60048036036107869190810190613631565b611a2b565b005b34801561079957600080fd5b506107b460048036036107af9190810190613488565b611b8f565b005b3480156107c257600080fd5b506107cb611c1a565b6040516107d89190614194565b60405180910390f35b3480156107ed57600080fd5b50610808600480360361080391908101906134da565b611ccc565b6040516108159190614194565b60405180910390f35b34801561082a57600080fd5b5061084560048036036108409190810190613488565b611d53565b005b34801561085357600080fd5b5061085c611da6565b6040516108699190614194565b60405180910390f35b34801561087e57600080fd5b50610887611e71565b6040516108949190613d9d565b60405180910390f35b3480156108a957600080fd5b506108b2611f18565b6040516108bf9190613d9d565b60405180910390f35b3480156108d457600080fd5b506108dd611fbf565b6040516108ea9190613d9d565b60405180910390f35b600c60009054906101000a900473ffffffffffffffffffffffffffffffffffffffff1681565b606060038054600181600116156101000203166002900480601f0160208091040260200160405190810160405280929190818152602001828054600181600116156101000203166002900480156109b15780601f10610986576101008083540402835291602001916109b1565b820191906000526020600020905b81548152906001019060200180831161099457829003601f168201915b5050505050905090565b600d60149054906101000a900460ff1681565b60006109e26109db611fe5565b8484611fed565b6001905092915050565b6000600a60009054906101000a900473ffffffffffffffffffffffffffffffffffffffff1673ffffffffffffffffffffffffffffffffffffffff166370a08231306040518263ffffffff1660e01b8152600401610a499190613db8565b60206040518083038186803b158015610a6157600080fd5b505afa158015610a75573d6000803e3d6000fd5b505050506040513d601f19601f82011682018060405250610a99919081019061365a565b905090565b60085481565b6000600254905090565b6000610abb8484846121b8565b610b7c84610ac7611fe5565b610b77856040518060600160405280602881526020016143e260289139600160008b73ffffffffffffffffffffffffffffffffffffffff1673ffffffffffffffffffffffffffffffffffffffff1681526020019081526020016000206000610b2d611fe5565b73ffffffffffffffffffffffffffffffffffffffff1673ffffffffffffffffffffffffffffffffffffffff168152602001908152602001600020546124429092919063ffffffff16565b611fed565b600190509392505050565b60016006600082825401925050819055506000600654905060008211610be2576040517f08c379a0000000000000000000000000000000000000000000000000000000008152600401610bd990614034565b60405180910390fd5b6000610bed3361116e565b905080831115610c32576040517f08c379a0000000000000000000000000000000000000000000000000000000008152600401610c2990614014565b60405180910390fd5b610c3a61249d565b6008819055506000610c6b600254610c5d866008546124de90919063ffffffff16565b61254e90919063ffffffff16565b9050610cf5846040518060400160405280601d81526020017f72656465656d20616d6f756e7420657863656564732062616c616e63650000008152506000803373ffffffffffffffffffffffffffffffffffffffff1673ffffffffffffffffffffffffffffffffffffffff168152602001908152602001600020546124429092919063ffffffff16565b6000803373ffffffffffffffffffffffffffffffffffffffff1673ffffffffffffffffffffffffffffffffffffffff16815260200190815260200160002081905550610d4c8460025461259890919063ffffffff16565b600281905550600073ffffffffffffffffffffffffffffffffffffffff163373ffffffffffffffffffffffffffffffffffffffff167fddf252ad1be2c89b69c2b068fc378daa952ba7f163c4a11628f55a4df523b3ef86604051610db09190614194565b60405180910390a36000600960009054906101000a900473ffffffffffffffffffffffffffffffffffffffff1673ffffffffffffffffffffffffffffffffffffffff166370a08231306040518263ffffffff1660e01b8152600401610e159190613db8565b60206040518083038186803b158015610e2d57600080fd5b505afa158015610e41573d6000803e3d6000fd5b505050506040513d601f19601f82011682018060405250610e65919081019061365a565b905081811015610e8b57610e8a610e85828461259890919063ffffffff16565b6125e2565b5b610ed83383600960009054906101000a900473ffffffffffffffffffffffffffffffffffffffff1673ffffffffffffffffffffffffffffffffffffffff1661269e9092919063ffffffff16565b610ee061249d565b6008819055505050506006548114610f2d576040517f08c379a0000000000000000000000000000000000000000000000000000000008152600401610f2490614114565b60405180910390fd5b5050565b6000600560009054906101000a900460ff16905090565b6000610ff1610f55611fe5565b84610fec8560016000610f66611fe5565b73ffffffffffffffffffffffffffffffffffffffff1673ffffffffffffffffffffffffffffffffffffffff16815260200190815260200160002060008973ffffffffffffffffffffffffffffffffffffffff1673ffffffffffffffffffffffffffffffffffffffff1681526020019081526020016000205461273d90919063ffffffff16565b611fed565b6001905092915050565b611003611561565b611042576040517f08c379a000000000000000000000000000000000000000000000000000000000815260040161103990613ff4565b60405180910390fd5b80600d60006101000a81548173ffffffffffffffffffffffffffffffffffffffff021916908373ffffffffffffffffffffffffffffffffffffffff16021790555050565b600d60009054906101000a900473ffffffffffffffffffffffffffffffffffffffff1681565b600a60009054906101000a900473ffffffffffffffffffffffffffffffffffffffff1681565b6110da611e71565b73ffffffffffffffffffffffffffffffffffffffff1663d2d0e066600960009054906101000a900473ffffffffffffffffffffffffffffffffffffffff168360006040518463ffffffff1660e01b815260040161113993929190613e85565b600060405180830381600087803b15801561115357600080fd5b505af1158015611167573d6000803e3d6000fd5b5050505050565b60008060008373ffffffffffffffffffffffffffffffffffffffff1673ffffffffffffffffffffffffffffffffffffffff168152602001908152602001600020549050919050565b60006111f26111c3611979565b6111e46111ce611c1a565b6111d6611da6565b61273d90919063ffffffff16565b61273d90919063ffffffff16565b905090565b6111ff611561565b61123e576040517f08c379a000000000000000000000000000000000000000000000000000000000815260040161123590613ff4565b60405180910390fd5b600073ffffffffffffffffffffffffffffffffffffffff16600760009054906101000a900473ffffffffffffffffffffffffffffffffffffffff1673ffffffffffffffffffffffffffffffffffffffff167f8be0079c531659141344cd1fd0a4f28419497f9722a3daafe3b4186f6b6457e060405160405180910390a36000600760006101000a81548173ffffffffffffffffffffffffffffffffffffffff021916908373ffffffffffffffffffffffffffffffffffffffff160217905550565b60008061130a6111b6565b905061133b60025461132d670de0b6b3a7640000846124de90919063ffffffff16565b61254e90919063ffffffff16565b91505090565b600061134b611767565b9050600d60149054906101000a900460ff16600281111561136857fe5b81600281111561137457fe5b1461138257611381612792565b5b600061138c611979565b11156113f75760028081111561139e57fe5b8160028111156113aa57fe5b14156113c5576113c06113bb611979565b61141d565b6113f6565b600160028111156113d257fe5b8160028111156113de57fe5b14156113f5576113f46113ef611979565b6110d2565b5b5b5b80600d60146101000a81548160ff0219169083600281111561141557fe5b021790555050565b6000600a60009054906101000a900473ffffffffffffffffffffffffffffffffffffffff1673ffffffffffffffffffffffffffffffffffffffff166340c10f1930846040518363ffffffff1660e01b815260040161147c929190613dd3565b602060405180830381600087803b15801561149657600080fd5b505af11580156114aa573d6000803e3d6000fd5b505050506040513d601f19601f820116820180604052506114ce919081019061365a565b1161150e576040517f08c379a0000000000000000000000000000000000000000000000000000000008152600401611505906140d4565b60405180910390fd5b50565b600b60009054906101000a900473ffffffffffffffffffffffffffffffffffffffff1681565b6000600760009054906101000a900473ffffffffffffffffffffffffffffffffffffffff16905090565b6000600760009054906101000a900473ffffffffffffffffffffffffffffffffffffffff1673ffffffffffffffffffffffffffffffffffffffff166115a4611fe5565b73ffffffffffffffffffffffffffffffffffffffff1614905090565b606060048054600181600116156101000203166002900480601f0160208091040260200160405190810160405280929190818152602001828054600181600116156101000203166002900480156116585780601f1061162d57610100808354040283529160200191611658565b820191906000526020600020905b81548152906001019060200180831161163b57829003601f168201915b5050505050905090565b6116d661166d611f18565b7fffffffffffffffffffffffffffffffffffffffffffffffffffffffffffffffff600960009054906101000a900473ffffffffffffffffffffffffffffffffffffffff1673ffffffffffffffffffffffffffffffffffffffff166127d19092919063ffffffff16565b611765600a60009054906101000a900473ffffffffffffffffffffffffffffffffffffffff167fffffffffffffffffffffffffffffffffffffffffffffffffffffffffffffffff600960009054906101000a900473ffffffffffffffffffffffffffffffffffffffff1673ffffffffffffffffffffffffffffffffffffffff166127d19092919063ffffffff16565b565b6000806000600d60009054906101000a900473ffffffffffffffffffffffffffffffffffffffff1673ffffffffffffffffffffffffffffffffffffffff1663d88be3c0600960009054906101000a900473ffffffffffffffffffffffffffffffffffffffff166040518263ffffffff1660e01b81526004016117e99190613d9d565b60006040518083038186803b15801561180157600080fd5b505afa158015611815573d6000803e3d6000fd5b505050506040513d6000823e3d601f19601f8201168201806040525061183e91908101906135ca565b9250925050600080905080831115611854578290505b80821115611860578190505b6000809050828214156118765760019050611884565b8382141561188357600290505b5b8094505050505090565b600061195161189b611fe5565b8461194c8560405180606001604052806025815260200161440a60259139600160006118c5611fe5565b73ffffffffffffffffffffffffffffffffffffffff1673ffffffffffffffffffffffffffffffffffffffff16815260200190815260200160002060008a73ffffffffffffffffffffffffffffffffffffffff1673ffffffffffffffffffffffffffffffffffffffff168152602001908152602001600020546124429092919063ffffffff16565b611fed565b6001905092915050565b600061196f611968611fe5565b84846121b8565b6001905092915050565b6000600960009054906101000a900473ffffffffffffffffffffffffffffffffffffffff1673ffffffffffffffffffffffffffffffffffffffff166370a08231306040518263ffffffff1660e01b81526004016119d69190613db8565b60206040518083038186803b1580156119ee57600080fd5b505afa158015611a02573d6000803e3d6000fd5b505050506040513d601f19601f82011682018060405250611a26919081019061365a565b905090565b60016006600082825401925050819055506000600654905060008211611a86576040517f08c379a0000000000000000000000000000000000000000000000000000000008152600401611a7d906140b4565b60405180910390fd5b611a8e61249d565b600881905550611ae3333084600960009054906101000a900473ffffffffffffffffffffffffffffffffffffffff1673ffffffffffffffffffffffffffffffffffffffff16612948909392919063ffffffff16565b600080905060006008541415611b025782905082600881905550611b2e565b611b2b600854611b1d600254866124de90919063ffffffff16565b61254e90919063ffffffff16565b90505b611b3661249d565b600881905550611b4633826129ea565b506006548114611b8b576040517f08c379a0000000000000000000000000000000000000000000000000000000008152600401611b8290614114565b60405180910390fd5b5050565b611b97611561565b611bd6576040517f08c379a0000000000000000000000000000000000000000000000000000000008152600401611bcd90613ff4565b60405180910390fd5b80600a60006101000a81548173ffffffffffffffffffffffffffffffffffffffff021916908373ffffffffffffffffffffffffffffffffffffffff16021790555050565b6000600c60009054906101000a900473ffffffffffffffffffffffffffffffffffffffff1673ffffffffffffffffffffffffffffffffffffffff166370a08231306040518263ffffffff1660e01b8152600401611c779190613db8565b60206040518083038186803b158015611c8f57600080fd5b505afa158015611ca3573d6000803e3d6000fd5b505050506040513d601f19601f82011682018060405250611cc7919081019061365a565b905090565b6000600160008473ffffffffffffffffffffffffffffffffffffffff1673ffffffffffffffffffffffffffffffffffffffff16815260200190815260200160002060008373ffffffffffffffffffffffffffffffffffffffff1673ffffffffffffffffffffffffffffffffffffffff16815260200190815260200160002054905092915050565b611d5b611561565b611d9a576040517f08c379a0000000000000000000000000000000000000000000000000000000008152600401611d9190613ff4565b60405180910390fd5b611da381612b72565b50565b600080611db16109ec565b90506000811115611e6a57600a60009054906101000a900473ffffffffffffffffffffffffffffffffffffffff1673ffffffffffffffffffffffffffffffffffffffff166306b3efd6306040518263ffffffff1660e01b8152600401611e179190613db8565b60206040518083038186803b158015611e2f57600080fd5b505afa158015611e43573d6000803e3d6000fd5b505050506040513d601f19601f82011682018060405250611e67919081019061365a565b90505b8091505090565b6000600b60009054906101000a900473ffffffffffffffffffffffffffffffffffffffff1673ffffffffffffffffffffffffffffffffffffffff16630261bf8b6040518163ffffffff1660e01b815260040160206040518083038186803b158015611edb57600080fd5b505afa158015611eef573d6000803e3d6000fd5b505050506040513d601f19601f82011682018060405250611f1391908101906134b1565b905090565b6000600b60009054906101000a900473ffffffffffffffffffffffffffffffffffffffff1673ffffffffffffffffffffffffffffffffffffffff1663ed6ff7606040518163ffffffff1660e01b815260040160206040518083038186803b158015611f8257600080fd5b505afa158015611f96573d6000803e3d6000fd5b505050506040513d601f19601f82011682018060405250611fba91908101906134b1565b905090565b600960009054906101000a900473ffffffffffffffffffffffffffffffffffffffff1681565b600033905090565b600073ffffffffffffffffffffffffffffffffffffffff168373ffffffffffffffffffffffffffffffffffffffff16141561205d576040517f08c379a000000000000000000000000000000000000000000000000000000000815260040161205490614094565b60405180910390fd5b600073ffffffffffffffffffffffffffffffffffffffff168273ffffffffffffffffffffffffffffffffffffffff1614156120cd576040517f08c379a00000000000000000000000000000000000000000000000000000000081526004016120c490613f54565b60405180910390fd5b80600160008573ffffffffffffffffffffffffffffffffffffffff1673ffffffffffffffffffffffffffffffffffffffff16815260200190815260200160002060008473ffffffffffffffffffffffffffffffffffffffff1673ffffffffffffffffffffffffffffffffffffffff168152602001908152602001600020819055508173ffffffffffffffffffffffffffffffffffffffff168373ffffffffffffffffffffffffffffffffffffffff167f8c5be1e5ebec7d5bd14f71427d1e84f3dd0314c0f7b2291e5b200ac8c7c3b925836040516121ab9190614194565b60405180910390a3505050565b600073ffffffffffffffffffffffffffffffffffffffff168373ffffffffffffffffffffffffffffffffffffffff161415612228576040517f08c379a000000000000000000000000000000000000000000000000000000000815260040161221f90614054565b60405180910390fd5b600073ffffffffffffffffffffffffffffffffffffffff168273ffffffffffffffffffffffffffffffffffffffff161415612298576040517f08c379a000000000000000000000000000000000000000000000000000000000815260040161228f90613f14565b60405180910390fd5b612303816040518060600160405280602681526020016143bc602691396000808773ffffffffffffffffffffffffffffffffffffffff1673ffffffffffffffffffffffffffffffffffffffff168152602001908152602001600020546124429092919063ffffffff16565b6000808573ffffffffffffffffffffffffffffffffffffffff1673ffffffffffffffffffffffffffffffffffffffff16815260200190815260200160002081905550612396816000808573ffffffffffffffffffffffffffffffffffffffff1673ffffffffffffffffffffffffffffffffffffffff1681526020019081526020016000205461273d90919063ffffffff16565b6000808473ffffffffffffffffffffffffffffffffffffffff1673ffffffffffffffffffffffffffffffffffffffff168152602001908152602001600020819055508173ffffffffffffffffffffffffffffffffffffffff168373ffffffffffffffffffffffffffffffffffffffff167fddf252ad1be2c89b69c2b068fc378daa952ba7f163c4a11628f55a4df523b3ef836040516124359190614194565b60405180910390a3505050565b600083831115829061248a576040517f08c379a00000000000000000000000000000000000000000000000000000000081526004016124819190613ef2565b60405180910390fd5b5060008385039050809150509392505050565b60006124d96124aa612ca2565b6124cb6124b5612d54565b6124bd612e06565b61273d90919063ffffffff16565b61273d90919063ffffffff16565b905090565b6000808314156124f15760009050612548565b600082840290508284828161250257fe5b0414612543576040517f08c379a000000000000000000000000000000000000000000000000000000000815260040161253a90613fb4565b60405180910390fd5b809150505b92915050565b600061259083836040518060400160405280601a81526020017f536166654d6174683a206469766973696f6e206279207a65726f000000000000815250612ed1565b905092915050565b60006125da83836040518060400160405280601e81526020017f536166654d6174683a207375627472616374696f6e206f766572666c6f770000815250612442565b905092915050565b600160028111156125ef57fe5b600d60149054906101000a900460ff16600281111561260a57fe5b14156126645780612619611c1a565b101561265a576040517f08c379a000000000000000000000000000000000000000000000000000000000815260040161265190614074565b60405180910390fd5b61266381612f32565b5b60028081111561267057fe5b600d60149054906101000a900460ff16600281111561268b57fe5b141561269b5761269a81612fc2565b5b50565b612738838473ffffffffffffffffffffffffffffffffffffffff1663a9059cbb905060e01b84846040516024016126d6929190613e5c565b604051602081830303815290604052907bffffffffffffffffffffffffffffffffffffffffffffffffffffffff19166020820180517bffffffffffffffffffffffffffffffffffffffffffffffffffffffff8381831617835250505050613068565b505050565b600080828401905083811015612788576040517f08c379a000000000000000000000000000000000000000000000000000000000815260040161277f90613f74565b60405180910390fd5b8091505092915050565b600061279c6131da565b905060008111156127b1576127b08161328c565b5b6127b9612d54565b905060008111156127ce576127cd81612f32565b5b50565b600081148061286a575060008373ffffffffffffffffffffffffffffffffffffffff1663dd62ed3e30856040518363ffffffff1660e01b8152600401612818929190613dfc565b60206040518083038186803b15801561283057600080fd5b505afa158015612844573d6000803e3d6000fd5b505050506040513d601f19601f82011682018060405250612868919081019061365a565b145b6128a9576040517f08c379a00000000000000000000000000000000000000000000000000000000081526004016128a090614134565b60405180910390fd5b612943838473ffffffffffffffffffffffffffffffffffffffff1663095ea7b3905060e01b84846040516024016128e1929190613e5c565b604051602081830303815290604052907bffffffffffffffffffffffffffffffffffffffffffffffffffffffff19166020820180517bffffffffffffffffffffffffffffffffffffffffffffffffffffffff8381831617835250505050613068565b505050565b6129e4848573ffffffffffffffffffffffffffffffffffffffff166323b872dd905060e01b85858560405160240161298293929190613e25565b604051602081830303815290604052907bffffffffffffffffffffffffffffffffffffffffffffffffffffffff19166020820180517bffffffffffffffffffffffffffffffffffffffffffffffffffffffff8381831617835250505050613068565b50505050565b600073ffffffffffffffffffffffffffffffffffffffff168273ffffffffffffffffffffffffffffffffffffffff161415612a5a576040517f08c379a0000000000000000000000000000000000000000000000000000000008152600401612a5190614174565b60405180910390fd5b612a6f8160025461273d90919063ffffffff16565b600281905550612ac6816000808573ffffffffffffffffffffffffffffffffffffffff1673ffffffffffffffffffffffffffffffffffffffff1681526020019081526020016000205461273d90919063ffffffff16565b6000808473ffffffffffffffffffffffffffffffffffffffff1673ffffffffffffffffffffffffffffffffffffffff168152602001908152602001600020819055508173ffffffffffffffffffffffffffffffffffffffff16600073ffffffffffffffffffffffffffffffffffffffff167fddf252ad1be2c89b69c2b068fc378daa952ba7f163c4a11628f55a4df523b3ef83604051612b669190614194565b60405180910390a35050565b600073ffffffffffffffffffffffffffffffffffffffff168173ffffffffffffffffffffffffffffffffffffffff161415612be2576040517f08c379a0000000000000000000000000000000000000000000000000000000008152600401612bd990613f34565b60405180910390fd5b8073ffffffffffffffffffffffffffffffffffffffff16600760009054906101000a900473ffffffffffffffffffffffffffffffffffffffff1673ffffffffffffffffffffffffffffffffffffffff167f8be0079c531659141344cd1fd0a4f28419497f9722a3daafe3b4186f6b6457e060405160405180910390a380600760006101000a81548173ffffffffffffffffffffffffffffffffffffffff021916908373ffffffffffffffffffffffffffffffffffffffff16021790555050565b6000600960009054906101000a900473ffffffffffffffffffffffffffffffffffffffff1673ffffffffffffffffffffffffffffffffffffffff166370a08231306040518263ffffffff1660e01b8152600401612cff9190613db8565b60206040518083038186803b158015612d1757600080fd5b505afa158015612d2b573d6000803e3d6000fd5b505050506040513d601f19601f82011682018060405250612d4f919081019061365a565b905090565b6000600c60009054906101000a900473ffffffffffffffffffffffffffffffffffffffff1673ffffffffffffffffffffffffffffffffffffffff166370a08231306040518263ffffffff1660e01b8152600401612db19190613db8565b60206040518083038186803b158015612dc957600080fd5b505afa158015612ddd573d6000803e3d6000fd5b505050506040513d601f19601f82011682018060405250612e01919081019061365a565b905090565b600080612e116109ec565b90506000811115612eca57600a60009054906101000a900473ffffffffffffffffffffffffffffffffffffffff1673ffffffffffffffffffffffffffffffffffffffff166306b3efd6306040518263ffffffff1660e01b8152600401612e779190613db8565b60206040518083038186803b158015612e8f57600080fd5b505afa158015612ea3573d6000803e3d6000fd5b505050506040513d601f19601f82011682018060405250612ec7919081019061365a565b90505b8091505090565b60008083118290612f18576040517f08c379a0000000000000000000000000000000000000000000000000000000008152600401612f0f9190613ef2565b60405180910390fd5b506000838581612f2457fe5b049050809150509392505050565b600c60009054906101000a900473ffffffffffffffffffffffffffffffffffffffff1673ffffffffffffffffffffffffffffffffffffffff1663db006a75826040518263ffffffff1660e01b8152600401612f8d9190614194565b600060405180830381600087803b158015612fa757600080fd5b505af1158015612fbb573d6000803e3d6000fd5b5050505050565b6000612fcc6109ec565b90506000612fd8611da6565b90508281101561301d576040517f08c379a000000000000000000000000000000000000000000000000000000000815260040161301490614074565b60405180910390fd5b600061305760016130498461303b88886124de90919063ffffffff16565b61254e90919063ffffffff16565b61273d90919063ffffffff16565b90506130628161328c565b50505050565b6130878273ffffffffffffffffffffffffffffffffffffffff16613380565b6130c6576040517f08c379a00000000000000000000000000000000000000000000000000000000081526004016130bd90614154565b60405180910390fd5b600060608373ffffffffffffffffffffffffffffffffffffffff16836040516130ef9190613d86565b6000604051808303816000865af19150503d806000811461312c576040519150601f19603f3d011682016040523d82523d6000602084013e613131565b606091505b509150915081613176576040517f08c379a000000000000000000000000000000000000000000000000000000000815260040161316d90613f94565b60405180910390fd5b6000815111156131d4578080602001905161319491908101906135a1565b6131d3576040517f08c379a00000000000000000000000000000000000000000000000000000000081526004016131ca906140f4565b60405180910390fd5b5b50505050565b6000600a60009054906101000a900473ffffffffffffffffffffffffffffffffffffffff1673ffffffffffffffffffffffffffffffffffffffff166370a08231306040518263ffffffff1660e01b81526004016132379190613db8565b60206040518083038186803b15801561324f57600080fd5b505afa158015613263573d6000803e3d6000fd5b505050506040513d601f19601f82011682018060405250613287919081019061365a565b905090565b6000600a60009054906101000a900473ffffffffffffffffffffffffffffffffffffffff1673ffffffffffffffffffffffffffffffffffffffff16639dc29fac30846040518363ffffffff1660e01b81526004016132eb929190613dd3565b602060405180830381600087803b15801561330557600080fd5b505af1158015613319573d6000803e3d6000fd5b505050506040513d601f19601f8201168201806040525061333d919081019061365a565b1161337d576040517f08c379a000000000000000000000000000000000000000000000000000000000815260040161337490613fd4565b60405180910390fd5b50565b60008060007fc5d2460186f7233c927e7db2dcc703c0e500b653ca82273b7bfad8045d85a47060001b9050833f91506000801b82141580156133c25750808214155b92505050919050565b6000813590506133da81614376565b92915050565b6000815190506133ef81614376565b92915050565b6000815190506134048161438d565b92915050565b600082601f83011261341b57600080fd5b815161342e613429826141f7565b6141ca565b9150808252602083016020830185838301111561344a57600080fd5b613455838284614325565b50505092915050565b60008135905061346d816143a4565b92915050565b600081519050613482816143a4565b92915050565b60006020828403121561349a57600080fd5b60006134a8848285016133cb565b91505092915050565b6000602082840312156134c357600080fd5b60006134d1848285016133e0565b91505092915050565b600080604083850312156134ed57600080fd5b60006134fb858286016133cb565b925050602061350c858286016133cb565b9150509250929050565b60008060006060848603121561352b57600080fd5b6000613539868287016133cb565b935050602061354a868287016133cb565b925050604061355b8682870161345e565b9150509250925092565b6000806040838503121561357857600080fd5b6000613586858286016133cb565b92505060206135978582860161345e565b9150509250929050565b6000602082840312156135b357600080fd5b60006135c1848285016133f5565b91505092915050565b6000806000606084860312156135df57600080fd5b600084015167ffffffffffffffff8111156135f957600080fd5b6136058682870161340a565b935050602061361686828701613473565b925050604061362786828701613473565b9150509250925092565b60006020828403121561364357600080fd5b60006136518482850161345e565b91505092915050565b60006020828403121561366c57600080fd5b600061367a84828501613473565b91505092915050565b61368c816142cb565b82525050565b61369b81614255565b82525050565b6136aa81614267565b82525050565b60006136bb82614223565b6136c58185614239565b93506136d5818560208601614325565b80840191505092915050565b6136ea816142dd565b82525050565b6136f9816142ef565b82525050565b600061370a8261422e565b6137148185614244565b9350613724818560208601614325565b61372d81614358565b840191505092915050565b6000613745602383614244565b91507f45524332303a207472616e7366657220746f20746865207a65726f206164647260008301527f65737300000000000000000000000000000000000000000000000000000000006020830152604082019050919050565b60006137ab602683614244565b91507f4f776e61626c653a206e6577206f776e657220697320746865207a65726f206160008301527f64647265737300000000000000000000000000000000000000000000000000006020830152604082019050919050565b6000613811602283614244565b91507f45524332303a20617070726f766520746f20746865207a65726f20616464726560008301527f73730000000000000000000000000000000000000000000000000000000000006020830152604082019050919050565b6000613877601b83614244565b91507f536166654d6174683a206164646974696f6e206f766572666c6f7700000000006000830152602082019050919050565b60006138b7602083614244565b91507f5361666545524332303a206c6f772d6c6576656c2063616c6c206661696c65646000830152602082019050919050565b60006138f7602183614244565b91507f536166654d6174683a206d756c7469706c69636174696f6e206f766572666c6f60008301527f77000000000000000000000000000000000000000000000000000000000000006020830152604082019050919050565b600061395d601883614244565b91507f46554c4352554d3a207769746864726177206661696c656400000000000000006000830152602082019050919050565b600061399d602083614244565b91507f4f776e61626c653a2063616c6c6572206973206e6f7420746865206f776e65726000830152602082019050919050565b60006139dd601483614244565b91507f696e73756666696369656e742062616c616e63650000000000000000000000006000830152602082019050919050565b6000613a1d601f83614244565b91507f7769746864726177206d7573742062652067726561746572207468616e2030006000830152602082019050919050565b6000613a5d602583614244565b91507f45524332303a207472616e736665722066726f6d20746865207a65726f20616460008301527f64726573730000000000000000000000000000000000000000000000000000006020830152604082019050919050565b6000613ac3601283614244565b91507f696e73756666696369656e742066756e647300000000000000000000000000006000830152602082019050919050565b6000613b03602483614244565b91507f45524332303a20617070726f76652066726f6d20746865207a65726f2061646460008301527f72657373000000000000000000000000000000000000000000000000000000006020830152604082019050919050565b6000613b69601e83614244565b91507f6465706f736974206d7573742062652067726561746572207468616e203000006000830152602082019050919050565b6000613ba9601683614244565b91507f46554c4352554d3a20737570706c79206661696c6564000000000000000000006000830152602082019050919050565b6000613be9602a83614244565b91507f5361666545524332303a204552433230206f7065726174696f6e20646964206e60008301527f6f742073756363656564000000000000000000000000000000000000000000006020830152604082019050919050565b6000613c4f601f83614244565b91507f5265656e7472616e637947756172643a207265656e7472616e742063616c6c006000830152602082019050919050565b6000613c8f603683614244565b91507f5361666545524332303a20617070726f76652066726f6d206e6f6e2d7a65726f60008301527f20746f206e6f6e2d7a65726f20616c6c6f77616e6365000000000000000000006020830152604082019050919050565b6000613cf5601f83614244565b91507f5361666545524332303a2063616c6c20746f206e6f6e2d636f6e7472616374006000830152602082019050919050565b6000613d35601f83614244565b91507f45524332303a206d696e7420746f20746865207a65726f2061646472657373006000830152602082019050919050565b613d71816142b4565b82525050565b613d80816142be565b82525050565b6000613d9282846136b0565b915081905092915050565b6000602082019050613db26000830184613692565b92915050565b6000602082019050613dcd6000830184613683565b92915050565b6000604082019050613de86000830185613683565b613df56020830184613d68565b9392505050565b6000604082019050613e116000830185613692565b613e1e6020830184613692565b9392505050565b6000606082019050613e3a6000830186613692565b613e476020830185613692565b613e546040830184613d68565b949350505050565b6000604082019050613e716000830185613692565b613e7e6020830184613d68565b9392505050565b6000606082019050613e9a6000830186613692565b613ea76020830185613d68565b613eb460408301846136f0565b949350505050565b6000602082019050613ed160008301846136a1565b92915050565b6000602082019050613eec60008301846136e1565b92915050565b60006020820190508181036000830152613f0c81846136ff565b905092915050565b60006020820190508181036000830152613f2d81613738565b9050919050565b60006020820190508181036000830152613f4d8161379e565b9050919050565b60006020820190508181036000830152613f6d81613804565b9050919050565b60006020820190508181036000830152613f8d8161386a565b9050919050565b60006020820190508181036000830152613fad816138aa565b9050919050565b60006020820190508181036000830152613fcd816138ea565b9050919050565b60006020820190508181036000830152613fed81613950565b9050919050565b6000602082019050818103600083015261400d81613990565b9050919050565b6000602082019050818103600083015261402d816139d0565b9050919050565b6000602082019050818103600083015261404d81613a10565b9050919050565b6000602082019050818103600083015261406d81613a50565b9050919050565b6000602082019050818103600083015261408d81613ab6565b9050919050565b600060208201905081810360008301526140ad81613af6565b9050919050565b600060208201905081810360008301526140cd81613b5c565b9050919050565b600060208201905081810360008301526140ed81613b9c565b9050919050565b6000602082019050818103600083015261410d81613bdc565b9050919050565b6000602082019050818103600083015261412d81613c42565b9050919050565b6000602082019050818103600083015261414d81613c82565b9050919050565b6000602082019050818103600083015261416d81613ce8565b9050919050565b6000602082019050818103600083015261418d81613d28565b9050919050565b60006020820190506141a96000830184613d68565b92915050565b60006020820190506141c46000830184613d77565b92915050565b6000604051905081810181811067ffffffffffffffff821117156141ed57600080fd5b8060405250919050565b600067ffffffffffffffff82111561420e57600080fd5b601f19601f8301169050602081019050919050565b600081519050919050565b600081519050919050565b600081905092915050565b600082825260208201905092915050565b600061426082614294565b9050919050565b60008115159050919050565b600081905061428182614369565b919050565b600061ffff82169050919050565b600073ffffffffffffffffffffffffffffffffffffffff82169050919050565b6000819050919050565b600060ff82169050919050565b60006142d682614301565b9050919050565b60006142e882614273565b9050919050565b60006142fa82614286565b9050919050565b600061430c82614313565b9050919050565b600061431e82614294565b9050919050565b60005b83811015614343578082015181840152602081019050614328565b83811115614352576000848401525b50505050565b6000601f19601f8301169050919050565b6003811061437357fe5b50565b61437f81614255565b811461438a57600080fd5b50565b61439681614267565b81146143a157600080fd5b50565b6143ad816142b4565b81146143b857600080fd5b5056fe45524332303a207472616e7366657220616d6f756e7420657863656564732062616c616e636545524332303a207472616e7366657220616d6f756e74206578636565647320616c6c6f77616e636545524332303a2064656372656173656420616c6c6f77616e63652062656c6f77207a65726fa365627a7a72315820d558c646e625c54200b4d0873a8b809829007f71af5058eb734914a6a3d780616c6578706572696d656e74616cf564736f6c63430005100040",
  "source": "pragma solidity ^0.5.0;\r\npragma experimental ABIEncoderV2;\r\n\r\ninterface IERC20 {\r\n    function totalSupply() external view returns (uint256);\r\n    function balanceOf(address account) external view returns (uint256);\r\n    function transfer(address recipient, uint256 amount) external returns (bool);\r\n    function allowance(address owner, address spender) external view returns (uint256);\r\n    function approve(address spender, uint256 amount) external returns (bool);\r\n    function transferFrom(address sender, address recipient, uint256 amount) external returns (bool);\r\n    event Transfer(address indexed from, address indexed to, uint256 value);\r\n    event Approval(address indexed owner, address indexed spender, uint256 value);\r\n}\r\n\r\ncontract Context {\r\n    constructor () internal { }\r\n\r\n    function _msgSender() internal view returns (address payable) {\r\n        return msg.sender;\r\n    }\r\n\r\n    function _msgData() internal view returns (bytes memory) {\r\n        this; \r\n        return msg.data;\r\n    }\r\n}\r\n\r\ncontract ERC20 is Context, IERC20 {\r\n    using SafeMath for uint256;\r\n\r\n    mapping (address => uint256) _balances;\r\n\r\n    mapping (address => mapping (address => uint256)) private _allowances;\r\n\r\n    uint256 _totalSupply;\r\n    function totalSupply() public view returns (uint256) {\r\n        return _totalSupply;\r\n    }\r\n    function balanceOf(address account) public view returns (uint256) {\r\n        return _balances[account];\r\n    }\r\n    function transfer(address recipient, uint256 amount) public returns (bool) {\r\n        _transfer(_msgSender(), recipient, amount);\r\n        return true;\r\n    }\r\n    function allowance(address owner, address spender) public view returns (uint256) {\r\n        return _allowances[owner][spender];\r\n    }\r\n    function approve(address spender, uint256 amount) public returns (bool) {\r\n        _approve(_msgSender(), spender, amount);\r\n        return true;\r\n    }\r\n    function transferFrom(address sender, address recipient, uint256 amount) public returns (bool) {\r\n        _transfer(sender, recipient, amount);\r\n        _approve(sender, _msgSender(), _allowances[sender][_msgSender()].sub(amount, \"ERC20: transfer amount exceeds allowance\"));\r\n        return true;\r\n    }\r\n    function increaseAllowance(address spender, uint256 addedValue) public returns (bool) {\r\n        _approve(_msgSender(), spender, _allowances[_msgSender()][spender].add(addedValue));\r\n        return true;\r\n    }\r\n    function decreaseAllowance(address spender, uint256 subtractedValue) public returns (bool) {\r\n        _approve(_msgSender(), spender, _allowances[_msgSender()][spender].sub(subtractedValue, \"ERC20: decreased allowance below zero\"));\r\n        return true;\r\n    }\r\n    function _transfer(address sender, address recipient, uint256 amount) internal {\r\n        require(sender != address(0), \"ERC20: transfer from the zero address\");\r\n        require(recipient != address(0), \"ERC20: transfer to the zero address\");\r\n\r\n        _balances[sender] = _balances[sender].sub(amount, \"ERC20: transfer amount exceeds balance\");\r\n        _balances[recipient] = _balances[recipient].add(amount);\r\n        emit Transfer(sender, recipient, amount);\r\n    }\r\n    function _mint(address account, uint256 amount) internal {\r\n        require(account != address(0), \"ERC20: mint to the zero address\");\r\n\r\n        _totalSupply = _totalSupply.add(amount);\r\n        _balances[account] = _balances[account].add(amount);\r\n        emit Transfer(address(0), account, amount);\r\n    }\r\n    function _burn(address account, uint256 amount) internal {\r\n        require(account != address(0), \"ERC20: burn from the zero address\");\r\n\r\n        _balances[account] = _balances[account].sub(amount, \"ERC20: burn amount exceeds balance\");\r\n        _totalSupply = _totalSupply.sub(amount);\r\n        emit Transfer(account, address(0), amount);\r\n    }\r\n    function _approve(address owner, address spender, uint256 amount) internal {\r\n        require(owner != address(0), \"ERC20: approve from the zero address\");\r\n        require(spender != address(0), \"ERC20: approve to the zero address\");\r\n\r\n        _allowances[owner][spender] = amount;\r\n        emit Approval(owner, spender, amount);\r\n    }\r\n    function _burnFrom(address account, uint256 amount) internal {\r\n        _burn(account, amount);\r\n        _approve(account, _msgSender(), _allowances[account][_msgSender()].sub(amount, \"ERC20: burn amount exceeds allowance\"));\r\n    }\r\n}\r\n\r\ncontract ERC20Detailed is IERC20 {\r\n    string private _name;\r\n    string private _symbol;\r\n    uint8 private _decimals;\r\n\r\n    constructor (string memory name, string memory symbol, uint8 decimals) public {\r\n        _name = name;\r\n        _symbol = symbol;\r\n        _decimals = decimals;\r\n    }\r\n    function name() public view returns (string memory) {\r\n        return _name;\r\n    }\r\n    function symbol() public view returns (string memory) {\r\n        return _symbol;\r\n    }\r\n    function decimals() public view returns (uint8) {\r\n        return _decimals;\r\n    }\r\n}\r\n\r\ncontract ReentrancyGuard {\r\n    uint256 private _guardCounter;\r\n\r\n    constructor () internal {\r\n        _guardCounter = 1;\r\n    }\r\n\r\n    modifier nonReentrant() {\r\n        _guardCounter += 1;\r\n        uint256 localCounter = _guardCounter;\r\n        _;\r\n        require(localCounter == _guardCounter, \"ReentrancyGuard: reentrant call\");\r\n    }\r\n}\r\n\r\ncontract Ownable is Context {\r\n    address private _owner;\r\n\r\n    event OwnershipTransferred(address indexed previousOwner, address indexed newOwner);\r\n    constructor () internal {\r\n        _owner = _msgSender();\r\n        emit OwnershipTransferred(address(0), _owner);\r\n    }\r\n    function owner() public view returns (address) {\r\n        return _owner;\r\n    }\r\n    modifier onlyOwner() {\r\n        require(isOwner(), \"Ownable: caller is not the owner\");\r\n        _;\r\n    }\r\n    function isOwner() public view returns (bool) {\r\n        return _msgSender() == _owner;\r\n    }\r\n    function renounceOwnership() public onlyOwner {\r\n        emit OwnershipTransferred(_owner, address(0));\r\n        _owner = address(0);\r\n    }\r\n    function transferOwnership(address newOwner) public onlyOwner {\r\n        _transferOwnership(newOwner);\r\n    }\r\n    function _transferOwnership(address newOwner) internal {\r\n        require(newOwner != address(0), \"Ownable: new owner is the zero address\");\r\n        emit OwnershipTransferred(_owner, newOwner);\r\n        _owner = newOwner;\r\n    }\r\n}\r\n\r\nlibrary SafeMath {\r\n    function add(uint256 a, uint256 b) internal pure returns (uint256) {\r\n        uint256 c = a + b;\r\n        require(c >= a, \"SafeMath: addition overflow\");\r\n\r\n        return c;\r\n    }\r\n    function sub(uint256 a, uint256 b) internal pure returns (uint256) {\r\n        return sub(a, b, \"SafeMath: subtraction overflow\");\r\n    }\r\n    function sub(uint256 a, uint256 b, string memory errorMessage) internal pure returns (uint256) {\r\n        require(b <= a, errorMessage);\r\n        uint256 c = a - b;\r\n\r\n        return c;\r\n    }\r\n    function mul(uint256 a, uint256 b) internal pure returns (uint256) {\r\n        if (a == 0) {\r\n            return 0;\r\n        }\r\n\r\n        uint256 c = a * b;\r\n        require(c / a == b, \"SafeMath: multiplication overflow\");\r\n\r\n        return c;\r\n    }\r\n    function div(uint256 a, uint256 b) internal pure returns (uint256) {\r\n        return div(a, b, \"SafeMath: division by zero\");\r\n    }\r\n    function div(uint256 a, uint256 b, string memory errorMessage) internal pure returns (uint256) {\r\n        // Solidity only automatically asserts when dividing by 0\r\n        require(b > 0, errorMessage);\r\n        uint256 c = a / b;\r\n\r\n        return c;\r\n    }\r\n    function mod(uint256 a, uint256 b) internal pure returns (uint256) {\r\n        return mod(a, b, \"SafeMath: modulo by zero\");\r\n    }\r\n    function mod(uint256 a, uint256 b, string memory errorMessage) internal pure returns (uint256) {\r\n        require(b != 0, errorMessage);\r\n        return a % b;\r\n    }\r\n}\r\n\r\nlibrary Address {\r\n    function isContract(address account) internal view returns (bool) {\r\n        bytes32 codehash;\r\n        bytes32 accountHash = 0xc5d2460186f7233c927e7db2dcc703c0e500b653ca82273b7bfad8045d85a470;\r\n\r\n        assembly { codehash := extcodehash(account) }\r\n        return (codehash != 0x0 && codehash != accountHash);\r\n    }\r\n    function toPayable(address account) internal pure returns (address payable) {\r\n        return address(uint160(account));\r\n    }\r\n    function sendValue(address payable recipient, uint256 amount) internal {\r\n        require(address(this).balance >= amount, \"Address: insufficient balance\");\r\n\r\n        (bool success, ) = recipient.call.value(amount)(\"\");\r\n        require(success, \"Address: unable to send value, recipient may have reverted\");\r\n    }\r\n}\r\n\r\nlibrary SafeERC20 {\r\n    using SafeMath for uint256;\r\n    using Address for address;\r\n\r\n    function safeTransfer(IERC20 token, address to, uint256 value) internal {\r\n        callOptionalReturn(token, abi.encodeWithSelector(token.transfer.selector, to, value));\r\n    }\r\n\r\n    function safeTransferFrom(IERC20 token, address from, address to, uint256 value) internal {\r\n        callOptionalReturn(token, abi.encodeWithSelector(token.transferFrom.selector, from, to, value));\r\n    }\r\n\r\n    function safeApprove(IERC20 token, address spender, uint256 value) internal {\r\n        require((value == 0) || (token.allowance(address(this), spender) == 0),\r\n            \"SafeERC20: approve from non-zero to non-zero allowance\"\r\n        );\r\n        callOptionalReturn(token, abi.encodeWithSelector(token.approve.selector, spender, value));\r\n    }\r\n\r\n    function safeIncreaseAllowance(IERC20 token, address spender, uint256 value) internal {\r\n        uint256 newAllowance = token.allowance(address(this), spender).add(value);\r\n        callOptionalReturn(token, abi.encodeWithSelector(token.approve.selector, spender, newAllowance));\r\n    }\r\n\r\n    function safeDecreaseAllowance(IERC20 token, address spender, uint256 value) internal {\r\n        uint256 newAllowance = token.allowance(address(this), spender).sub(value, \"SafeERC20: decreased allowance below zero\");\r\n        callOptionalReturn(token, abi.encodeWithSelector(token.approve.selector, spender, newAllowance));\r\n    }\r\n    function callOptionalReturn(IERC20 token, bytes memory data) private {\r\n        require(address(token).isContract(), \"SafeERC20: call to non-contract\");\r\n\r\n        (bool success, bytes memory returndata) = address(token).call(data);\r\n        require(success, \"SafeERC20: low-level call failed\");\r\n\r\n        if (returndata.length > 0) {\r\n            require(abi.decode(returndata, (bool)), \"SafeERC20: ERC20 operation did not succeed\");\r\n        }\r\n    }\r\n}\r\n\r\ninterface Fulcrum {\r\n    function mint(address receiver, uint256 amount) external payable returns (uint256 mintAmount);\r\n    function burn(address receiver, uint256 burnAmount) external returns (uint256 loanAmountPaid);\r\n    function assetBalanceOf(address _owner) external view returns (uint256 balance);\r\n}\r\n\r\ninterface ILendingPoolAddressesProvider {\r\n    function getLendingPool() external view returns (address);\r\n}\r\n\r\ninterface Aave {\r\n    function deposit(address _reserve, uint256 _amount, uint16 _referralCode) external;\r\n}\r\n\r\ninterface AToken {\r\n    function redeem(uint256 amount) external;\r\n}\r\n\r\ninterface IIEarnManager {\r\n    function recommend(address _token) external view returns (\r\n      string memory choice,\r\n      uint256 fapr,\r\n      uint256 aapr\r\n    );\r\n}\r\n\r\ncontract Structs {\r\n    struct Val {\r\n        uint256 value;\r\n    }\r\n\r\n    enum ActionType {\r\n        Deposit,   // supply tokens\r\n        Withdraw  // borrow tokens\r\n    }\r\n\r\n    enum AssetDenomination {\r\n        Wei // the amount is denominated in wei\r\n    }\r\n\r\n    enum AssetReference {\r\n        Delta // the amount is given as a delta from the current value\r\n    }\r\n\r\n    struct AssetAmount {\r\n        bool sign; // true if positive\r\n        AssetDenomination denomination;\r\n        AssetReference ref;\r\n        uint256 value;\r\n    }\r\n\r\n    struct ActionArgs {\r\n        ActionType actionType;\r\n        uint256 accountId;\r\n        AssetAmount amount;\r\n        uint256 primaryMarketId;\r\n        uint256 secondaryMarketId;\r\n        address otherAddress;\r\n        uint256 otherAccountId;\r\n        bytes data;\r\n    }\r\n\r\n    struct Info {\r\n        address owner;  // The address that owns the account\r\n        uint256 number; // A nonce that allows a single address to control many accounts\r\n    }\r\n\r\n    struct Wei {\r\n        bool sign; // true if positive\r\n        uint256 value;\r\n    }\r\n}\r\n\r\ninterface LendingPoolAddressesProvider {\r\n    function getLendingPool() external view returns (address);\r\n    function getLendingPoolCore() external view returns (address);\r\n}\r\n\r\ncontract xUSDT is ERC20, ERC20Detailed, ReentrancyGuard, Ownable, Structs {\r\n  using SafeERC20 for IERC20;\r\n  using Address for address;\r\n  using SafeMath for uint256;\r\n\r\n  uint256 public pool;\r\n  address public token;\r\n  address public fulcrum;\r\n  address public aave;\r\n  address public aaveToken;\r\n  address public apr;\r\n\r\n  enum Lender {\r\n      NONE,\r\n      AAVE,\r\n      FULCRUM\r\n  }\r\n\r\n  Lender public provider = Lender.NONE;\r\n\r\n  constructor () public ERC20Detailed(\"xend USDT\", \"xUSDT\", 6) {\r\n    token = address(0xdAC17F958D2ee523a2206206994597C13D831ec7);\r\n    apr = address(0xdD6d648C991f7d47454354f4Ef326b04025a48A8);\r\n    aave = address(0x24a42fD28C976A61Df5D00D0599C34c4f90748c8);\r\n    fulcrum = address(0xF013406A0B1d544238083DF0B93ad0d2cBE0f65f);\r\n    aaveToken = address(0x71fc860F7D3A592A4a98740e39dB31d25db65ae8);\r\n    approveToken();\r\n  }\r\n\r\n  function set_new_APR(address _new_APR) public onlyOwner {\r\n      apr = _new_APR;\r\n  }\r\n  function set_new_FULCRUM(address _new_FULCRUM) public onlyOwner {\r\n      fulcrum = _new_FULCRUM;\r\n  }\r\n  // Quick swap low gas method for pool swaps\r\n  function deposit(uint256 _amount)\r\n      external\r\n      nonReentrant\r\n  {\r\n      require(_amount > 0, \"deposit must be greater than 0\");\r\n      pool = _calcPoolValueInToken();\r\n\r\n      IERC20(token).safeTransferFrom(msg.sender, address(this), _amount);\r\n\r\n      // Calculate pool shares\r\n      uint256 shares = 0;\r\n      if (pool == 0) {\r\n        shares = _amount;\r\n        pool = _amount;\r\n      } else {\r\n        shares = (_amount.mul(_totalSupply)).div(pool);\r\n      }\r\n      pool = _calcPoolValueInToken();\r\n      _mint(msg.sender, shares);\r\n  }\r\n\r\n  // No rebalance implementation for lower fees and faster swaps\r\n  function withdraw(uint256 _shares)\r\n      external\r\n      nonReentrant\r\n  {\r\n      require(_shares > 0, \"withdraw must be greater than 0\");\r\n\r\n      uint256 ibalance = balanceOf(msg.sender);\r\n      require(_shares <= ibalance, \"insufficient balance\");\r\n\r\n      // Could have over value from cTokens\r\n      pool = _calcPoolValueInToken();\r\n      // Calc to redeem before updating balances\r\n      uint256 r = (pool.mul(_shares)).div(_totalSupply);\r\n\r\n\r\n      _balances[msg.sender] = _balances[msg.sender].sub(_shares, \"redeem amount exceeds balance\");\r\n      _totalSupply = _totalSupply.sub(_shares);\r\n\r\n      emit Transfer(msg.sender, address(0), _shares);\r\n\r\n      // Check balance\r\n      uint256 b = IERC20(token).balanceOf(address(this));\r\n      if (b < r) {\r\n        _withdrawSome(r.sub(b));\r\n      }\r\n\r\n      IERC20(token).safeTransfer(msg.sender, r);\r\n      pool = _calcPoolValueInToken();\r\n  }\r\n\r\n  function() external payable {\r\n\r\n  }\r\n\r\n  function recommend() public view returns (Lender) {\r\n    (, uint256 fapr, uint256 aapr) = IIEarnManager(apr).recommend(token);\r\n    uint256 max = 0;\r\n    if (fapr > max) {\r\n      max = fapr;\r\n    }\r\n    if (aapr > max) {\r\n      max = aapr;\r\n    }\r\n    \r\n    Lender newProvider = Lender.NONE;\r\n    if (max == aapr) {\r\n      newProvider = Lender.AAVE;\r\n    } else if (max == fapr) {\r\n      newProvider = Lender.FULCRUM;\r\n    }\r\n    return newProvider;\r\n  }\r\n  \r\n  function getAave() public view returns (address) {\r\n    return LendingPoolAddressesProvider(aave).getLendingPool();\r\n  }\r\n  function getAaveCore() public view returns (address) {\r\n    return LendingPoolAddressesProvider(aave).getLendingPoolCore();\r\n  }\r\n\r\n  function approveToken() public {\r\n      IERC20(token).safeApprove(getAaveCore(), uint(-1));\r\n      IERC20(token).safeApprove(fulcrum, uint(-1));\r\n  }\r\n\r\n  function balance() public view returns (uint256) {\r\n    return IERC20(token).balanceOf(address(this));\r\n  }\r\n\r\n  function balanceFulcrumInToken() public view returns (uint256) {\r\n    uint256 b = balanceFulcrum();\r\n    if (b > 0) {\r\n      b = Fulcrum(fulcrum).assetBalanceOf(address(this));\r\n    }\r\n    return b;\r\n  }\r\n  function balanceFulcrum() public view returns (uint256) {\r\n    return IERC20(fulcrum).balanceOf(address(this));\r\n  }\r\n  function balanceAave() public view returns (uint256) {\r\n    return IERC20(aaveToken).balanceOf(address(this));\r\n  }\r\n\r\n  function _balance() internal view returns (uint256) {\r\n    return IERC20(token).balanceOf(address(this));\r\n  }\r\n\r\n  function _balanceFulcrumInToken() internal view returns (uint256) {\r\n    uint256 b = balanceFulcrum();\r\n    if (b > 0) {\r\n      b = Fulcrum(fulcrum).assetBalanceOf(address(this));\r\n    }\r\n    return b;\r\n  }\r\n  function _balanceFulcrum() internal view returns (uint256) {\r\n    return IERC20(fulcrum).balanceOf(address(this));\r\n  }\r\n  function _balanceAave() internal view returns (uint256) {\r\n    return IERC20(aaveToken).balanceOf(address(this));\r\n  }\r\n\r\n  function _withdrawAll() internal {\r\n    uint256  amount = _balanceFulcrum();\r\n    if (amount > 0) {\r\n      _withdrawFulcrum(amount);\r\n    }\r\n    amount = _balanceAave();\r\n    if (amount > 0) {\r\n      _withdrawAave(amount);\r\n    }\r\n  }\r\n\r\n  function _withdrawSomeFulcrum(uint256 _amount) internal {\r\n    // Balance of fulcrum tokens, 1 iDAI = 1.00x DAI\r\n    uint256 b = balanceFulcrum(); // 1970469086655766652\r\n    // Balance of token in fulcrum\r\n    uint256 bT = balanceFulcrumInToken(); // 2000000803224344406\r\n    require(bT >= _amount, \"insufficient funds\");\r\n    // can have unintentional rounding errors\r\n    uint256 amount = (b.mul(_amount)).div(bT).add(1);\r\n    _withdrawFulcrum(amount);\r\n  }\r\n\r\n  function _withdrawSome(uint256 _amount) internal {\r\n    \r\n    if (provider == Lender.AAVE) {\r\n      require(balanceAave() >= _amount, \"insufficient funds\");\r\n      _withdrawAave(_amount);\r\n    }\r\n    \r\n    if (provider == Lender.FULCRUM) {\r\n      _withdrawSomeFulcrum(_amount);\r\n    }\r\n  }\r\n\r\n  function rebalance() public {\r\n    Lender newProvider = recommend();\r\n\r\n    if (newProvider != provider) {\r\n      _withdrawAll();\r\n    }\r\n\r\n    if (balance() > 0) {\r\n      if (newProvider == Lender.FULCRUM) {\r\n        supplyFulcrum(balance());\r\n      } else if (newProvider == Lender.AAVE) {\r\n        supplyAave(balance());\r\n      }\r\n    }\r\n\r\n    provider = newProvider;\r\n  }\r\n\r\n  // Internal only rebalance for better gas in redeem\r\n  function _rebalance(Lender newProvider) internal {\r\n    if (_balance() > 0) {\r\n      if (newProvider == Lender.FULCRUM) {\r\n        supplyFulcrum(_balance());\r\n      } else if (newProvider == Lender.AAVE) {\r\n        supplyAave(_balance());\r\n      }\r\n    }\r\n    provider = newProvider;\r\n  }\r\n\r\n  function supplyAave(uint amount) public {\r\n      Aave(getAave()).deposit(token, amount, 0);\r\n  }\r\n  function supplyFulcrum(uint amount) public {\r\n      require(Fulcrum(fulcrum).mint(address(this), amount) > 0, \"FULCRUM: supply failed\");\r\n  }\r\n  function _withdrawAave(uint amount) internal {\r\n      AToken(aaveToken).redeem(amount);\r\n  }\r\n  function _withdrawFulcrum(uint amount) internal {\r\n      require(Fulcrum(fulcrum).burn(address(this), amount) > 0, \"FULCRUM: withdraw failed\");\r\n  }\r\n\r\n  function _calcPoolValueInToken() internal view returns (uint) {\r\n    return _balanceFulcrumInToken()\r\n      .add(_balanceAave())\r\n      .add(_balance());\r\n  }\r\n\r\n  function calcPoolValueInToken() public view returns (uint) {\r\n    return balanceFulcrumInToken()\r\n      .add(balanceAave())\r\n      .add(balance());\r\n  }\r\n\r\n  function getPricePerFullShare() public view returns (uint) {\r\n    uint _pool = calcPoolValueInToken();\r\n    return _pool.mul(1e18).div(_totalSupply);\r\n  }\r\n}",
  "sourcePath": "E:/Task/blockchain/xendfinance/polygon-earn/contracts/XUSDT.sol",
  "compiler": {
    "name": "solc",
    "version": "0.5.16+commit.9c3226ce.Emscripten.clang"
  },
  "schemaVersion": "3.4.1",
  "updatedAt": "2021-07-12T15:23:46.336Z",
  "devdoc": {
    "methods": {}
  },
  "userdoc": {
    "methods": {}
  }
}